{
  "contractName": "CompanyRegistry",
  "abi": [
    {
      "inputs": [
        {
          "internalType": "address",
          "name": "_feeToSetter",
          "type": "address"
        }
      ],
      "stateMutability": "nonpayable",
      "type": "constructor"
    },
    {
      "anonymous": false,
      "inputs": [
        {
          "indexed": true,
          "internalType": "address",
          "name": "previousOwner",
          "type": "address"
        },
        {
          "indexed": true,
          "internalType": "address",
          "name": "newOwner",
          "type": "address"
        }
      ],
      "name": "OwnershipTransferred",
      "type": "event"
    },
    {
      "anonymous": false,
      "inputs": [
        {
          "indexed": true,
          "internalType": "address",
          "name": "_owner",
          "type": "address"
        },
        {
          "indexed": true,
          "internalType": "address",
          "name": "_companyAddress",
          "type": "address"
        },
        {
          "indexed": true,
          "internalType": "string",
          "name": "_companyName",
          "type": "string"
        }
      ],
      "name": "companyCreated",
      "type": "event"
    },
    {
      "anonymous": false,
      "inputs": [
        {
          "indexed": true,
          "internalType": "address",
          "name": "_newOwner",
          "type": "address"
        },
        {
          "indexed": true,
          "internalType": "address",
          "name": "_companyAddress",
          "type": "address"
        }
      ],
      "name": "newCompanyOwner",
      "type": "event"
    },
    {
      "inputs": [
        {
          "internalType": "uint256",
          "name": "",
          "type": "uint256"
        }
      ],
      "name": "companyList",
      "outputs": [
        {
          "internalType": "contract Company",
          "name": "",
          "type": "address"
        }
      ],
      "stateMutability": "view",
      "type": "function",
      "constant": true
    },
    {
      "inputs": [],
      "name": "feeTo",
      "outputs": [
        {
          "internalType": "address",
          "name": "",
          "type": "address"
        }
      ],
      "stateMutability": "view",
      "type": "function",
      "constant": true
    },
    {
      "inputs": [],
      "name": "feeToSetter",
      "outputs": [
        {
          "internalType": "address",
          "name": "",
          "type": "address"
        }
      ],
      "stateMutability": "view",
      "type": "function",
      "constant": true
    },
    {
      "inputs": [],
      "name": "idCounter",
      "outputs": [
        {
          "internalType": "uint256",
          "name": "",
          "type": "uint256"
        }
      ],
      "stateMutability": "view",
      "type": "function",
      "constant": true
    },
    {
      "inputs": [],
      "name": "owner",
      "outputs": [
        {
          "internalType": "address",
          "name": "",
          "type": "address"
        }
      ],
      "stateMutability": "view",
      "type": "function",
      "constant": true
    },
    {
      "inputs": [],
      "name": "renounceOwnership",
      "outputs": [],
      "stateMutability": "nonpayable",
      "type": "function"
    },
    {
      "inputs": [
        {
          "internalType": "address",
          "name": "newOwner",
          "type": "address"
        }
      ],
      "name": "transferOwnership",
      "outputs": [],
      "stateMutability": "nonpayable",
      "type": "function"
    },
    {
      "inputs": [],
      "name": "getFeeToSetter",
      "outputs": [
        {
          "internalType": "address",
          "name": "",
          "type": "address"
        }
      ],
      "stateMutability": "view",
      "type": "function",
      "constant": true
    },
    {
      "inputs": [
        {
          "internalType": "string",
          "name": "_name",
          "type": "string"
        }
      ],
      "name": "createCompany",
      "outputs": [],
      "stateMutability": "nonpayable",
      "type": "function"
    },
    {
      "inputs": [
        {
          "internalType": "address",
          "name": "_owner",
          "type": "address"
        }
      ],
      "name": "getCompanyAddress",
      "outputs": [
        {
          "internalType": "address",
          "name": "",
          "type": "address"
        }
      ],
      "stateMutability": "view",
      "type": "function",
      "constant": true
    },
    {
      "inputs": [],
      "name": "getAllCompanies",
      "outputs": [
        {
          "internalType": "address[]",
          "name": "",
          "type": "address[]"
        }
      ],
      "stateMutability": "view",
      "type": "function",
      "constant": true
    },
    {
      "inputs": [
        {
          "internalType": "address",
          "name": "_feeTo",
          "type": "address"
        }
      ],
      "name": "setFeeTo",
      "outputs": [],
      "stateMutability": "nonpayable",
      "type": "function"
    },
    {
      "inputs": [
        {
          "internalType": "address",
          "name": "_feeToSetter",
          "type": "address"
        }
      ],
      "name": "setFeeToSetter",
      "outputs": [],
      "stateMutability": "nonpayable",
      "type": "function"
    }
  ],
  "bytecode": "0x608060405260006005553480156200001657600080fd5b50604051620055763803806200557683398181016040528101906200003c919062000199565b6200006e62000059620000b6640100000000026401000000009004565b620000be640100000000026401000000009004565b80600260006101000a81548173ffffffffffffffffffffffffffffffffffffffff021916908373ffffffffffffffffffffffffffffffffffffffff160217905550506200021e565b600033905090565b60008060009054906101000a900473ffffffffffffffffffffffffffffffffffffffff169050816000806101000a81548173ffffffffffffffffffffffffffffffffffffffff021916908373ffffffffffffffffffffffffffffffffffffffff1602179055508173ffffffffffffffffffffffffffffffffffffffff168173ffffffffffffffffffffffffffffffffffffffff167f8be0079c531659141344cd1fd0a4f28419497f9722a3daafe3b4186f6b6457e060405160405180910390a35050565b600081519050620001938162000204565b92915050565b600060208284031215620001b257620001b1620001ff565b5b6000620001c28482850162000182565b91505092915050565b6000620001d882620001df565b9050919050565b600073ffffffffffffffffffffffffffffffffffffffff82169050919050565b600080fd5b6200020f81620001cb565b81146200021b57600080fd5b50565b615348806200022e6000396000f3fe60806040523480156200001157600080fd5b5060043610620000ff576000357c010000000000000000000000000000000000000000000000000000000090048063a2e74af611620000b6578063f2fde38b116200008c578063f2fde38b1462000246578063f46901ed1462000266578063f4aa13021462000286578063fd7f611e14620002a857620000ff565b8063a2e74af614620001ce578063d0366e5514620001ee578063eb08ab28146200022457620000ff565b8063017e7e581462000104578063094b74151462000126578063408bf4c31462000148578063715018a6146200016a5780638da5cb5b14620001765780639230c0681462000198575b600080fd5b6200010e620002c8565b6040516200011d919062000e8e565b60405180910390f35b62000130620002ee565b6040516200013f919062000e8e565b60405180910390f35b6200015262000314565b60405162000161919062000eef565b60405180910390f35b620001746200042d565b005b62000180620004be565b6040516200018f919062000e8e565b60405180910390f35b620001b66004803603810190620001b0919062000c0b565b620004e7565b604051620001c5919062000e8e565b60405180910390f35b620001ec6004803603810190620001e6919062000c0b565b62000550565b005b6200020c600480360381019062000206919062000c8e565b62000627565b6040516200021b919062000f13565b60405180910390f35b6200022e62000667565b6040516200023d919062000f96565b60405180910390f35b6200026460048036038101906200025e919062000c0b565b6200066d565b005b6200028460048036038101906200027e919062000c0b565b62000771565b005b6200029062000848565b6040516200029f919062000e8e565b60405180910390f35b620002c66004803603810190620002c0919062000c3d565b62000872565b005b600160009054906101000a900473ffffffffffffffffffffffffffffffffffffffff1681565b600260009054906101000a900473ffffffffffffffffffffffffffffffffffffffff1681565b6060600060048054905067ffffffffffffffff8111156200033a5762000339620011ff565b5b604051908082528060200260200182016040528015620003695781602001602082028036833780820191505090505b50905060005b600480549050811015620004255760048181548110620003945762000393620011d0565b5b9060005260206000200160009054906101000a900473ffffffffffffffffffffffffffffffffffffffff16828281518110620003d557620003d4620011d0565b5b602002602001019073ffffffffffffffffffffffffffffffffffffffff16908173ffffffffffffffffffffffffffffffffffffffff168152505080806200041c9062001153565b9150506200036f565b508091505090565b6200043762000a85565b73ffffffffffffffffffffffffffffffffffffffff1662000457620004be565b73ffffffffffffffffffffffffffffffffffffffff1614620004b0576040517f08c379a0000000000000000000000000000000000000000000000000000000008152600401620004a79062000f74565b60405180910390fd5b620004bc600062000a8d565b565b60008060009054906101000a900473ffffffffffffffffffffffffffffffffffffffff16905090565b6000600360008373ffffffffffffffffffffffffffffffffffffffff1673ffffffffffffffffffffffffffffffffffffffff16815260200190815260200160002060009054906101000a900473ffffffffffffffffffffffffffffffffffffffff169050919050565b600260009054906101000a900473ffffffffffffffffffffffffffffffffffffffff1673ffffffffffffffffffffffffffffffffffffffff163373ffffffffffffffffffffffffffffffffffffffff1614620005e3576040517f08c379a0000000000000000000000000000000000000000000000000000000008152600401620005da9062000f52565b60405180910390fd5b80600260006101000a81548173ffffffffffffffffffffffffffffffffffffffff021916908373ffffffffffffffffffffffffffffffffffffffff16021790555050565b600481815481106200063857600080fd5b906000526020600020016000915054906101000a900473ffffffffffffffffffffffffffffffffffffffff1681565b60055481565b6200067762000a85565b73ffffffffffffffffffffffffffffffffffffffff1662000697620004be565b73ffffffffffffffffffffffffffffffffffffffff1614620006f0576040517f08c379a0000000000000000000000000000000000000000000000000000000008152600401620006e79062000f74565b60405180910390fd5b600073ffffffffffffffffffffffffffffffffffffffff168173ffffffffffffffffffffffffffffffffffffffff16141562000763576040517f08c379a00000000000000000000000000000000000000000000000000000000081526004016200075a9062000f30565b60405180910390fd5b6200076e8162000a8d565b50565b600260009054906101000a900473ffffffffffffffffffffffffffffffffffffffff1673ffffffffffffffffffffffffffffffffffffffff163373ffffffffffffffffffffffffffffffffffffffff161462000804576040517f08c379a0000000000000000000000000000000000000000000000000000000008152600401620007fb9062000f52565b60405180910390fd5b80600160006101000a81548173ffffffffffffffffffffffffffffffffffffffff021916908373ffffffffffffffffffffffffffffffffffffffff16021790555050565b6000600260009054906101000a900473ffffffffffffffffffffffffffffffffffffffff16905090565b60003360055483604051620008879062000b51565b620008959392919062000eab565b604051809103906000f080158015620008b2573d6000803e3d6000fd5b50905080600360003373ffffffffffffffffffffffffffffffffffffffff1673ffffffffffffffffffffffffffffffffffffffff16815260200190815260200160002060006101000a81548173ffffffffffffffffffffffffffffffffffffffff021916908373ffffffffffffffffffffffffffffffffffffffff1602179055506004819080600181540180825580915050600190039060005260206000200160009091909190916101000a81548173ffffffffffffffffffffffffffffffffffffffff021916908373ffffffffffffffffffffffffffffffffffffffff16021790555060056000815480929190620009ab9062001153565b919050555081604051620009c0919062000e75565b6040518091039020600360003373ffffffffffffffffffffffffffffffffffffffff1673ffffffffffffffffffffffffffffffffffffffff16815260200190815260200160002060009054906101000a900473ffffffffffffffffffffffffffffffffffffffff1673ffffffffffffffffffffffffffffffffffffffff163373ffffffffffffffffffffffffffffffffffffffff167f087400a4efca527a4d0b62d4d8b2c53e87c073ec20b407ba24ab577ce7e5c4ef60405160405180910390a45050565b600033905090565b60008060009054906101000a900473ffffffffffffffffffffffffffffffffffffffff169050816000806101000a81548173ffffffffffffffffffffffffffffffffffffffff021916908373ffffffffffffffffffffffffffffffffffffffff1602179055508173ffffffffffffffffffffffffffffffffffffffff168173ffffffffffffffffffffffffffffffffffffffff167f8be0079c531659141344cd1fd0a4f28419497f9722a3daafe3b4186f6b6457e060405160405180910390a35050565b613fea806200132983390190565b600062000b7662000b708462000fdc565b62000fb3565b90508281526020810184848401111562000b955762000b9462001233565b5b62000ba2848285620010d8565b509392505050565b60008135905062000bbb81620012f4565b92915050565b600082601f83011262000bd95762000bd86200122e565b5b813562000beb84826020860162000b5f565b91505092915050565b60008135905062000c05816200130e565b92915050565b60006020828403121562000c245762000c236200123d565b5b600062000c348482850162000baa565b91505092915050565b60006020828403121562000c565762000c556200123d565b5b600082013567ffffffffffffffff81111562000c775762000c7662001238565b5b62000c858482850162000bc1565b91505092915050565b60006020828403121562000ca75762000ca66200123d565b5b600062000cb78482850162000bf4565b91505092915050565b600062000cce838362000cda565b60208301905092915050565b62000ce58162001072565b82525050565b62000cf68162001072565b82525050565b600062000d098262001022565b62000d15818562001045565b935062000d228362001012565b8060005b8381101562000d5957815162000d3d888262000cc0565b975062000d4a8362001038565b92505060018101905062000d26565b5085935050505092915050565b62000d7181620010b0565b82525050565b600062000d84826200102d565b62000d90818562001056565b935062000da2818560208601620010e7565b62000dad8162001242565b840191505092915050565b600062000dc5826200102d565b62000dd1818562001067565b935062000de3818560208601620010e7565b80840191505092915050565b600062000dfe60268362001056565b915062000e0b8262001253565b604082019050919050565b600062000e2560128362001056565b915062000e3282620012a2565b602082019050919050565b600062000e4c60208362001056565b915062000e5982620012cb565b602082019050919050565b62000e6f81620010a6565b82525050565b600062000e83828462000db8565b915081905092915050565b600060208201905062000ea5600083018462000ceb565b92915050565b600060608201905062000ec2600083018662000ceb565b62000ed1602083018562000e64565b818103604083015262000ee5818462000d77565b9050949350505050565b6000602082019050818103600083015262000f0b818462000cfc565b905092915050565b600060208201905062000f2a600083018462000d66565b92915050565b6000602082019050818103600083015262000f4b8162000def565b9050919050565b6000602082019050818103600083015262000f6d8162000e16565b9050919050565b6000602082019050818103600083015262000f8f8162000e3d565b9050919050565b600060208201905062000fad600083018462000e64565b92915050565b600062000fbf62000fd2565b905062000fcd82826200111d565b919050565b6000604051905090565b600067ffffffffffffffff82111562000ffa5762000ff9620011ff565b5b620010058262001242565b9050602081019050919050565b6000819050602082019050919050565b600081519050919050565b600081519050919050565b6000602082019050919050565b600082825260208201905092915050565b600082825260208201905092915050565b600081905092915050565b60006200107f8262001086565b9050919050565b600073ffffffffffffffffffffffffffffffffffffffff82169050919050565b6000819050919050565b6000620010bd82620010c4565b9050919050565b6000620010d18262001086565b9050919050565b82818337600083830152505050565b60005b8381101562001107578082015181840152602081019050620010ea565b8381111562001117576000848401525b50505050565b620011288262001242565b810181811067ffffffffffffffff821117156200114a5762001149620011ff565b5b80604052505050565b60006200116082620010a6565b91507fffffffffffffffffffffffffffffffffffffffffffffffffffffffffffffffff821415620011965762001195620011a1565b5b600182019050919050565b7f4e487b7100000000000000000000000000000000000000000000000000000000600052601160045260246000fd5b7f4e487b7100000000000000000000000000000000000000000000000000000000600052603260045260246000fd5b7f4e487b7100000000000000000000000000000000000000000000000000000000600052604160045260246000fd5b600080fd5b600080fd5b600080fd5b600080fd5b6000601f19601f8301169050919050565b7f4f776e61626c653a206e6577206f776e657220697320746865207a65726f206160008201527f6464726573730000000000000000000000000000000000000000000000000000602082015250565b7f4f70656e5061793a20464f5242494444454e0000000000000000000000000000600082015250565b7f4f776e61626c653a2063616c6c6572206973206e6f7420746865206f776e6572600082015250565b620012ff8162001072565b81146200130b57600080fd5b50565b6200131981620010a6565b81146200132557600080fd5b5056fe60806040523480156200001157600080fd5b5060405162003fea38038062003fea833981810160405281019062000037919062000474565b6200006962000054620000f2640100000000026401000000009004565b620000fa640100000000026401000000009004565b33600560006101000a81548173ffffffffffffffffffffffffffffffffffffffff021916908373ffffffffffffffffffffffffffffffffffffffff160217905550620000c983620001be64010000000002620027ff176401000000009004565b816002819055508060019080519060200190620000e892919062000318565b5050505062000800565b600033905090565b60008060009054906101000a900473ffffffffffffffffffffffffffffffffffffffff169050816000806101000a81548173ffffffffffffffffffffffffffffffffffffffff021916908373ffffffffffffffffffffffffffffffffffffffff1602179055508173ffffffffffffffffffffffffffffffffffffffff168173ffffffffffffffffffffffffffffffffffffffff167f8be0079c531659141344cd1fd0a4f28419497f9722a3daafe3b4186f6b6457e060405160405180910390a35050565b620001d7620000f2640100000000026401000000009004565b73ffffffffffffffffffffffffffffffffffffffff1662000206620002ef640100000000026401000000009004565b73ffffffffffffffffffffffffffffffffffffffff16146200025f576040517f08c379a000000000000000000000000000000000000000000000000000000000815260040162000256906200055f565b60405180910390fd5b600073ffffffffffffffffffffffffffffffffffffffff168173ffffffffffffffffffffffffffffffffffffffff161415620002d2576040517f08c379a0000000000000000000000000000000000000000000000000000000008152600401620002c9906200053d565b60405180910390fd5b620002ec81620000fa640100000000026401000000009004565b50565b60008060009054906101000a900473ffffffffffffffffffffffffffffffffffffffff16905090565b828054620003269062000665565b90600052602060002090601f0160209004810192826200034a576000855562000396565b82601f106200036557805160ff191683800117855562000396565b8280016001018555821562000396579182015b828111156200039557825182559160200191906001019062000378565b5b509050620003a59190620003a9565b5090565b5b80821115620003c4576000816000905550600101620003aa565b5090565b6000620003df620003d984620005aa565b62000581565b905082815260208101848484011115620003fe57620003fd62000734565b5b6200040b8482856200062f565b509392505050565b6000815190506200042481620007cc565b92915050565b600082601f8301126200044257620004416200072f565b5b815162000454848260208601620003c8565b91505092915050565b6000815190506200046e81620007e6565b92915050565b60008060006060848603121562000490576200048f6200073e565b5b6000620004a08682870162000413565b9350506020620004b3868287016200045d565b925050604084015167ffffffffffffffff811115620004d757620004d662000739565b5b620004e5868287016200042a565b9150509250925092565b6000620004fe602683620005e0565b91506200050b8262000754565b604082019050919050565b600062000525602083620005e0565b91506200053282620007a3565b602082019050919050565b600060208201905081810360008301526200055881620004ef565b9050919050565b600060208201905081810360008301526200057a8162000516565b9050919050565b60006200058d620005a0565b90506200059b82826200069b565b919050565b6000604051905090565b600067ffffffffffffffff821115620005c857620005c762000700565b5b620005d38262000743565b9050602081019050919050565b600082825260208201905092915050565b6000620005fe8262000605565b9050919050565b600073ffffffffffffffffffffffffffffffffffffffff82169050919050565b6000819050919050565b60005b838110156200064f57808201518184015260208101905062000632565b838111156200065f576000848401525b50505050565b600060028204905060018216806200067e57607f821691505b60208210811415620006955762000694620006d1565b5b50919050565b620006a68262000743565b810181811067ffffffffffffffff82111715620006c857620006c762000700565b5b80604052505050565b7f4e487b7100000000000000000000000000000000000000000000000000000000600052602260045260246000fd5b7f4e487b7100000000000000000000000000000000000000000000000000000000600052604160045260246000fd5b600080fd5b600080fd5b600080fd5b600080fd5b6000601f19601f8301169050919050565b7f4f776e61626c653a206e6577206f776e657220697320746865207a65726f206160008201527f6464726573730000000000000000000000000000000000000000000000000000602082015250565b7f4f776e61626c653a2063616c6c6572206973206e6f7420746865206f776e6572600082015250565b620007d781620005f1565b8114620007e357600080fd5b50565b620007f18162000625565b8114620007fd57600080fd5b50565b6137da80620008106000396000f3fe608060405260043610610183576000357c0100000000000000000000000000000000000000000000000000000000900480637b103999116100ee578063b357e23d116100a7578063c621277a11610081578063c621277a14610527578063d067894714610550578063f2e8048314610592578063f2fde38b146105a957610183565b8063b357e23d14610493578063bbe46dfd146104bc578063c3b2d07a146104e557610183565b80637b1039991461036f578063893d20e81461039a5780638da5cb5b146103c557806396c7c9ac146103f057806399fc451f1461042d5780639ec748781461045657610183565b80636d146a52116101405780636d146a52146102755780636e7c4ab11461029e5780636f5be0d6146102c7578063715018a61461030457806372ec774b1461031b578063744bfe611461034657610183565b806306fdde03146101885780630d7129e8146101b35780631f50ad16146101dc57806323d954ca1461020557806343cfbd65146102215780635738054e1461024c575b600080fd5b34801561019457600080fd5b5061019d6105d2565b6040516101aa919061313a565b60405180910390f35b3480156101bf57600080fd5b506101da60048036038101906101d59190612d06565b610660565b005b3480156101e857600080fd5b5061020360048036038101906101fe9190612c7f565b61097a565b005b61021f600480360381019061021a9190612e07565b610f60565b005b34801561022d57600080fd5b50610236611143565b604051610243919061313a565b60405180910390f35b34801561025857600080fd5b50610273600480360381019061026e9190612d6d565b6111d5565b005b34801561028157600080fd5b5061029c60048036038101906102979190612d6d565b6112df565b005b3480156102aa57600080fd5b506102c560048036038101906102c09190612c7f565b6113e9565b005b3480156102d357600080fd5b506102ee60048036038101906102e99190612c7f565b611599565b6040516102fb919061321c565b60405180910390f35b34801561031057600080fd5b506103196115e5565b005b34801561032757600080fd5b5061033061166d565b60405161033d9190613118565b60405180910390f35b34801561035257600080fd5b5061036d60048036038101906103689190612e07565b61177f565b005b34801561037b57600080fd5b50610384611962565b6040516103919190613013565b60405180910390f35b3480156103a657600080fd5b506103af611988565b6040516103bc9190613013565b60405180910390f35b3480156103d157600080fd5b506103da611997565b6040516103e79190613013565b60405180910390f35b3480156103fc57600080fd5b5061041760048036038101906104129190612cd9565b6119c0565b604051610424919061321c565b60405180910390f35b34801561043957600080fd5b50610454600480360381019061044f9190612c7f565b611a0c565b005b34801561046257600080fd5b5061047d60048036038101906104789190612c7f565b611a18565b60405161048a919061321c565b60405180910390f35b34801561049f57600080fd5b506104ba60048036038101906104b59190612d6d565b611a61565b005b3480156104c857600080fd5b506104e360048036038101906104de9190612c7f565b611e0f565b005b3480156104f157600080fd5b5061050c60048036038101906105079190612dda565b6124a9565b60405161051e9695949392919061302e565b60405180910390f35b34801561053357600080fd5b5061054e60048036038101906105499190612e07565b612535565b005b34801561055c57600080fd5b5061057760048036038101906105729190612c7f565b61268d565b6040516105899695949392919061302e565b60405180910390f35b34801561059e57600080fd5b506105a7612709565b005b3480156105b557600080fd5b506105d060048036038101906105cb9190612c7f565b6127ff565b005b600180546105df90613464565b80601f016020809104026020016040519081016040528092919081815260200182805461060b90613464565b80156106585780601f1061062d57610100808354040283529160200191610658565b820191906000526020600020905b81548152906001019060200180831161063b57829003601f168201915b505050505081565b6106686128f7565b73ffffffffffffffffffffffffffffffffffffffff16610686611997565b73ffffffffffffffffffffffffffffffffffffffff16146106dc576040517f08c379a00000000000000000000000000000000000000000000000000000000081526004016106d3906131bc565b60405180910390fd5b60006040518060c001604052808673ffffffffffffffffffffffffffffffffffffffff1681526020018573ffffffffffffffffffffffffffffffffffffffff168152602001848152602001838152602001600081526020016000815250905080600760008773ffffffffffffffffffffffffffffffffffffffff1673ffffffffffffffffffffffffffffffffffffffff16815260200190815260200160002060008201518160000160006101000a81548173ffffffffffffffffffffffffffffffffffffffff021916908373ffffffffffffffffffffffffffffffffffffffff16021790555060208201518160010160006101000a81548173ffffffffffffffffffffffffffffffffffffffff021916908373ffffffffffffffffffffffffffffffffffffffff16021790555060408201518160020155606082015181600301556080820151816004015560a08201518160050155905050600881908060018154018082558091505060019003906000526020600020906006020160009091909190915060008201518160000160006101000a81548173ffffffffffffffffffffffffffffffffffffffff021916908373ffffffffffffffffffffffffffffffffffffffff16021790555060208201518160010160006101000a81548173ffffffffffffffffffffffffffffffffffffffff021916908373ffffffffffffffffffffffffffffffffffffffff16021790555060408201518160020155606082015181600301556080820151816004015560a082015181600501555050818473ffffffffffffffffffffffffffffffffffffffff168673ffffffffffffffffffffffffffffffffffffffff167f8299eb8267d570c486958c8ae09c384854d17cd9174fd1cb8dc8e355d062e2fe60405160405180910390a45050505050565b6109826128f7565b73ffffffffffffffffffffffffffffffffffffffff166109a0611997565b73ffffffffffffffffffffffffffffffffffffffff16146109f6576040517f08c379a00000000000000000000000000000000000000000000000000000000081526004016109ed906131bc565b60405180910390fd5b6000610a46600760008473ffffffffffffffffffffffffffffffffffffffff1673ffffffffffffffffffffffffffffffffffffffff1681526020019081526020016000206003015461016d6128ff565b9050600062015180600760008573ffffffffffffffffffffffffffffffffffffffff1673ffffffffffffffffffffffffffffffffffffffff16815260200190815260200160002060030154610a9b9190613313565b905080600760008573ffffffffffffffffffffffffffffffffffffffff1673ffffffffffffffffffffffffffffffffffffffff16815260200190815260200160002060040154610aeb919061328c565b421015610af757600080fd5b6000600760008573ffffffffffffffffffffffffffffffffffffffff1673ffffffffffffffffffffffffffffffffffffffff16815260200190815260200160002060010160009054906101000a900473ffffffffffffffffffffffffffffffffffffffff16905060008190506000806003541115610cf457600080610bbe600760008a73ffffffffffffffffffffffffffffffffffffffff1673ffffffffffffffffffffffffffffffffffffffff168152602001908152602001600020600201548861291c565b9050610bcc6003548261291c565b9150610c23610c1d600760008b73ffffffffffffffffffffffffffffffffffffffff1673ffffffffffffffffffffffffffffffffffffffff168152602001908152602001600020600201548961291c565b83612930565b92508373ffffffffffffffffffffffffffffffffffffffff1663a9059cbb600460009054906101000a900473ffffffffffffffffffffffffffffffffffffffff16846040518363ffffffff167c0100000000000000000000000000000000000000000000000000000000028152600401610c9e9291906130ef565b602060405180830381600087803b158015610cb857600080fd5b505af1158015610ccc573d6000803e3d6000fd5b505050506040513d601f19601f82011682018060405250810190610cf09190612dad565b5050505b60006003541415610d4e57610d4b600760008873ffffffffffffffffffffffffffffffffffffffff1673ffffffffffffffffffffffffffffffffffffffff168152602001908152602001600020600201548661291c565b90505b6000600760008873ffffffffffffffffffffffffffffffffffffffff1673ffffffffffffffffffffffffffffffffffffffff16815260200190815260200160002060000160009054906101000a900473ffffffffffffffffffffffffffffffffffffffff16905081600660008673ffffffffffffffffffffffffffffffffffffffff1673ffffffffffffffffffffffffffffffffffffffff1681526020019081526020016000206000828254610e04919061336d565b9250508190555042600760008973ffffffffffffffffffffffffffffffffffffffff1673ffffffffffffffffffffffffffffffffffffffff168152602001908152602001600020600401819055508273ffffffffffffffffffffffffffffffffffffffff1663a9059cbb82846040518363ffffffff167c0100000000000000000000000000000000000000000000000000000000028152600401610ea992919061308f565b602060405180830381600087803b158015610ec357600080fd5b505af1158015610ed7573d6000803e3d6000fd5b505050506040513d601f19601f82011682018060405250810190610efb9190612dad565b50818473ffffffffffffffffffffffffffffffffffffffff168873ffffffffffffffffffffffffffffffffffffffff167f8932c4c89ad779d7d0ca58f0cef653239a672137bd89097d4ec99eff9e88428260405160405180910390a450505050505050565b610f686128f7565b73ffffffffffffffffffffffffffffffffffffffff16610f86611997565b73ffffffffffffffffffffffffffffffffffffffff1614610fdc576040517f08c379a0000000000000000000000000000000000000000000000000000000008152600401610fd3906131bc565b60405180910390fd5b60008190508073ffffffffffffffffffffffffffffffffffffffff166323b872dd3330866040518463ffffffff167c010000000000000000000000000000000000000000000000000000000002815260040161103a939291906130b8565b602060405180830381600087803b15801561105457600080fd5b505af1158015611068573d6000803e3d6000fd5b505050506040513d601f19601f8201168201806040525081019061108c9190612dad565b5082600660008473ffffffffffffffffffffffffffffffffffffffff1673ffffffffffffffffffffffffffffffffffffffff16815260200190815260200160002060008282546110dc919061328c565b92505081905550828273ffffffffffffffffffffffffffffffffffffffff163073ffffffffffffffffffffffffffffffffffffffff167f2b3a72294226d67c14ef039ea7ff97706ea2cb96eb55e8f99996198ac053c79060405160405180910390a4505050565b60606001805461115290613464565b80601f016020809104026020016040519081016040528092919081815260200182805461117e90613464565b80156111cb5780601f106111a0576101008083540402835291602001916111cb565b820191906000526020600020905b8154815290600101906020018083116111ae57829003601f168201915b5050505050905090565b6111dd6128f7565b73ffffffffffffffffffffffffffffffffffffffff166111fb611997565b73ffffffffffffffffffffffffffffffffffffffff1614611251576040517f08c379a0000000000000000000000000000000000000000000000000000000008152600401611248906131bc565b60405180910390fd5b60008111611294576040517f08c379a000000000000000000000000000000000000000000000000000000000815260040161128b906131dc565b60405180910390fd5b80600760008473ffffffffffffffffffffffffffffffffffffffff1673ffffffffffffffffffffffffffffffffffffffff168152602001908152602001600020600301819055505050565b6112e76128f7565b73ffffffffffffffffffffffffffffffffffffffff16611305611997565b73ffffffffffffffffffffffffffffffffffffffff161461135b576040517f08c379a0000000000000000000000000000000000000000000000000000000008152600401611352906131bc565b60405180910390fd5b6000811161139e576040517f08c379a00000000000000000000000000000000000000000000000000000000081526004016113959061315c565b60405180910390fd5b80600760008473ffffffffffffffffffffffffffffffffffffffff1673ffffffffffffffffffffffffffffffffffffffff168152602001908152602001600020600201819055505050565b6113f16128f7565b73ffffffffffffffffffffffffffffffffffffffff1661140f611997565b73ffffffffffffffffffffffffffffffffffffffff1614611465576040517f08c379a000000000000000000000000000000000000000000000000000000000815260040161145c906131bc565b60405180910390fd5b60005b600880549050811015611595578173ffffffffffffffffffffffffffffffffffffffff16600882815481106114a05761149f61356c565b5b906000526020600020906006020160000160009054906101000a900473ffffffffffffffffffffffffffffffffffffffff1673ffffffffffffffffffffffffffffffffffffffff16141561158257600881815481106115025761150161356c565b5b9060005260206000209060060201600080820160006101000a81549073ffffffffffffffffffffffffffffffffffffffff02191690556001820160006101000a81549073ffffffffffffffffffffffffffffffffffffffff0219169055600282016000905560038201600090556004820160009055600582016000905550505b808061158d90613496565b915050611468565b5050565b6000600760008373ffffffffffffffffffffffffffffffffffffffff1673ffffffffffffffffffffffffffffffffffffffff168152602001908152602001600020600201549050919050565b6115ed6128f7565b73ffffffffffffffffffffffffffffffffffffffff1661160b611997565b73ffffffffffffffffffffffffffffffffffffffff1614611661576040517f08c379a0000000000000000000000000000000000000000000000000000000008152600401611658906131bc565b60405180910390fd5b61166b6000612946565b565b6060600060088054905067ffffffffffffffff8111156116905761168f61359b565b5b6040519080825280602002602001820160405280156116be5781602001602082028036833780820191505090505b50905060005b60088054905081101561177757600881815481106116e5576116e461356c565b5b906000526020600020906006020160000160009054906101000a900473ffffffffffffffffffffffffffffffffffffffff1682828151811061172a5761172961356c565b5b602002602001019073ffffffffffffffffffffffffffffffffffffffff16908173ffffffffffffffffffffffffffffffffffffffff1681525050808061176f90613496565b9150506116c4565b508091505090565b6117876128f7565b73ffffffffffffffffffffffffffffffffffffffff166117a5611997565b73ffffffffffffffffffffffffffffffffffffffff16146117fb576040517f08c379a00000000000000000000000000000000000000000000000000000000081526004016117f2906131bc565b60405180910390fd5b600081905082600660008473ffffffffffffffffffffffffffffffffffffffff1673ffffffffffffffffffffffffffffffffffffffff168152602001908152602001600020600082825461184f919061336d565b925050819055506000611860611997565b90508173ffffffffffffffffffffffffffffffffffffffff1663a9059cbb82866040518363ffffffff167c01000000000000000000000000000000000000000000000000000000000281526004016118b99291906130ef565b602060405180830381600087803b1580156118d357600080fd5b505af11580156118e7573d6000803e3d6000fd5b505050506040513d601f19601f8201168201806040525081019061190b9190612dad565b503073ffffffffffffffffffffffffffffffffffffffff167fce7b627b3830179bde4b610048f5cffbed187ff14e09e83edfad43cead2b174784866040516119549291906130ef565b60405180910390a250505050565b600560009054906101000a900473ffffffffffffffffffffffffffffffffffffffff1681565b6000611992611997565b905090565b60008060009054906101000a900473ffffffffffffffffffffffffffffffffffffffff16905090565b6000600760008373ffffffffffffffffffffffffffffffffffffffff1673ffffffffffffffffffffffffffffffffffffffff168152602001908152602001600020600301549050919050565b611a15816127ff565b50565b6000600660008373ffffffffffffffffffffffffffffffffffffffff1673ffffffffffffffffffffffffffffffffffffffff168152602001908152602001600020549050919050565b611a696128f7565b73ffffffffffffffffffffffffffffffffffffffff16611a87611997565b73ffffffffffffffffffffffffffffffffffffffff1614611add576040517f08c379a0000000000000000000000000000000000000000000000000000000008152600401611ad4906131bc565b60405180910390fd5b6000600760008473ffffffffffffffffffffffffffffffffffffffff1673ffffffffffffffffffffffffffffffffffffffff16815260200190815260200160002060010160009054906101000a900473ffffffffffffffffffffffffffffffffffffffff16905060008190506000806003541115611c365760006003549050611b668582612930565b91508273ffffffffffffffffffffffffffffffffffffffff1663a9059cbb600460009054906101000a900473ffffffffffffffffffffffffffffffffffffffff16836040518363ffffffff167c0100000000000000000000000000000000000000000000000000000000028152600401611be19291906130ef565b602060405180830381600087803b158015611bfb57600080fd5b505af1158015611c0f573d6000803e3d6000fd5b505050506040513d601f19601f82011682018060405250810190611c339190612dad565b50505b60006003541415611c45578390505b6000600760008773ffffffffffffffffffffffffffffffffffffffff1673ffffffffffffffffffffffffffffffffffffffff16815260200190815260200160002060000160009054906101000a900473ffffffffffffffffffffffffffffffffffffffff16905081600660008673ffffffffffffffffffffffffffffffffffffffff1673ffffffffffffffffffffffffffffffffffffffff1681526020019081526020016000206000828254611cfb919061336d565b925050819055508273ffffffffffffffffffffffffffffffffffffffff1663a9059cbb82846040518363ffffffff167c0100000000000000000000000000000000000000000000000000000000028152600401611d5992919061308f565b602060405180830381600087803b158015611d7357600080fd5b505af1158015611d87573d6000803e3d6000fd5b505050506040513d601f19601f82011682018060405250810190611dab9190612dad565b50818473ffffffffffffffffffffffffffffffffffffffff168773ffffffffffffffffffffffffffffffffffffffff167f8932c4c89ad779d7d0ca58f0cef653239a672137bd89097d4ec99eff9e88428260405160405180910390a4505050505050565b3373ffffffffffffffffffffffffffffffffffffffff168173ffffffffffffffffffffffffffffffffffffffff1614611e7d576040517f08c379a0000000000000000000000000000000000000000000000000000000008152600401611e749061319c565b60405180910390fd5b6000611ecd600760008473ffffffffffffffffffffffffffffffffffffffff1673ffffffffffffffffffffffffffffffffffffffff1681526020019081526020016000206003015461016d6128ff565b9050600062015180600760008573ffffffffffffffffffffffffffffffffffffffff1673ffffffffffffffffffffffffffffffffffffffff16815260200190815260200160002060030154611f229190613313565b905080600760008573ffffffffffffffffffffffffffffffffffffffff1673ffffffffffffffffffffffffffffffffffffffff16815260200190815260200160002060050154611f72919061328c565b421015611fb4576040517f08c379a0000000000000000000000000000000000000000000000000000000008152600401611fab906131fc565b60405180910390fd5b6000600760008573ffffffffffffffffffffffffffffffffffffffff1673ffffffffffffffffffffffffffffffffffffffff16815260200190815260200160002060010160009054906101000a900473ffffffffffffffffffffffffffffffffffffffff169050600081905060008060035411156121935760008061207b600760008a73ffffffffffffffffffffffffffffffffffffffff1673ffffffffffffffffffffffffffffffffffffffff168152602001908152602001600020600201548861291c565b90506000606460018361208e9190613313565b61209891906132e2565b905060006120a86003548461291c565b90506120b48183612a0a565b93506120c08385612930565b94508573ffffffffffffffffffffffffffffffffffffffff1663a9059cbb600460009054906101000a900473ffffffffffffffffffffffffffffffffffffffff16866040518363ffffffff167c010000000000000000000000000000000000000000000000000000000002815260040161213b9291906130ef565b602060405180830381600087803b15801561215557600080fd5b505af1158015612169573d6000803e3d6000fd5b505050506040513d601f19601f8201168201806040525081019061218d9190612dad565b50505050505b600060035414156122505760006121ec600760008973ffffffffffffffffffffffffffffffffffffffff1673ffffffffffffffffffffffffffffffffffffffff168152602001908152602001600020600201548761291c565b9050600060646001836121ff9190613313565b61220991906132e2565b905061224b82826040518060400160405280600d81526020017f6572726f72202d20726574727900000000000000000000000000000000000000815250612a20565b925050505b6000600760008873ffffffffffffffffffffffffffffffffffffffff1673ffffffffffffffffffffffffffffffffffffffff16815260200190815260200160002060000160009054906101000a900473ffffffffffffffffffffffffffffffffffffffff16905081600660008673ffffffffffffffffffffffffffffffffffffffff1673ffffffffffffffffffffffffffffffffffffffff1681526020019081526020016000206000828254612306919061336d565b9250508190555042600760008973ffffffffffffffffffffffffffffffffffffffff1673ffffffffffffffffffffffffffffffffffffffff1681526020019081526020016000206004018190555042600760008973ffffffffffffffffffffffffffffffffffffffff1673ffffffffffffffffffffffffffffffffffffffff168152602001908152602001600020600501819055508273ffffffffffffffffffffffffffffffffffffffff1663a9059cbb82846040518363ffffffff167c01000000000000000000000000000000000000000000000000000000000281526004016123f292919061308f565b602060405180830381600087803b15801561240c57600080fd5b505af1158015612420573d6000803e3d6000fd5b505050506040513d601f19601f820116820180604052508101906124449190612dad565b50818473ffffffffffffffffffffffffffffffffffffffff168873ffffffffffffffffffffffffffffffffffffffff167f8932c4c89ad779d7d0ca58f0cef653239a672137bd89097d4ec99eff9e88428260405160405180910390a450505050505050565b600881815481106124b957600080fd5b90600052602060002090600602016000915090508060000160009054906101000a900473ffffffffffffffffffffffffffffffffffffffff16908060010160009054906101000a900473ffffffffffffffffffffffffffffffffffffffff16908060020154908060030154908060040154908060050154905086565b6000600560009054906101000a900473ffffffffffffffffffffffffffffffffffffffff16905060008173ffffffffffffffffffffffffffffffffffffffff1663f4aa13026040518163ffffffff167c010000000000000000000000000000000000000000000000000000000002815260040160206040518083038186803b1580156125c057600080fd5b505afa1580156125d4573d6000803e3d6000fd5b505050506040513d601f19601f820116820180604052508101906125f89190612cac565b90508073ffffffffffffffffffffffffffffffffffffffff163373ffffffffffffffffffffffffffffffffffffffff161461263257600080fd5b6127108461264091906132e2565b60038190555082600460006101000a81548173ffffffffffffffffffffffffffffffffffffffff021916908373ffffffffffffffffffffffffffffffffffffffff16021790555050505050565b60076020528060005260406000206000915090508060000160009054906101000a900473ffffffffffffffffffffffffffffffffffffffff16908060010160009054906101000a900473ffffffffffffffffffffffffffffffffffffffff16908060020154908060030154908060040154908060050154905086565b6127116128f7565b73ffffffffffffffffffffffffffffffffffffffff1661272f611997565b73ffffffffffffffffffffffffffffffffffffffff1614612785576040517f08c379a000000000000000000000000000000000000000000000000000000000815260040161277c906131bc565b60405180910390fd5b60005b6008805490508110156127fc576000600882815481106127ab576127aa61356c565b5b906000526020600020906006020160000160009054906101000a900473ffffffffffffffffffffffffffffffffffffffff1690506127e88161097a565b5080806127f490613496565b915050612788565b50565b6128076128f7565b73ffffffffffffffffffffffffffffffffffffffff16612825611997565b73ffffffffffffffffffffffffffffffffffffffff161461287b576040517f08c379a0000000000000000000000000000000000000000000000000000000008152600401612872906131bc565b60405180910390fd5b600073ffffffffffffffffffffffffffffffffffffffff168173ffffffffffffffffffffffffffffffffffffffff1614156128eb576040517f08c379a00000000000000000000000000000000000000000000000000000000081526004016128e29061317c565b60405180910390fd5b6128f481612946565b50565b600033905090565b600061291483670de0b6b3a764000084612a75565b905092915050565b60006129288383612b50565b905092915050565b6000818361293e919061336d565b905092915050565b60008060009054906101000a900473ffffffffffffffffffffffffffffffffffffffff169050816000806101000a81548173ffffffffffffffffffffffffffffffffffffffff021916908373ffffffffffffffffffffffffffffffffffffffff1602179055508173ffffffffffffffffffffffffffffffffffffffff168173ffffffffffffffffffffffffffffffffffffffff167f8be0079c531659141344cd1fd0a4f28419497f9722a3daafe3b4186f6b6457e060405160405180910390a35050565b60008183612a18919061328c565b905092915050565b6000838311158290612a68576040517f08c379a0000000000000000000000000000000000000000000000000000000008152600401612a5f919061313a565b60405180910390fd5b5082840390509392505050565b600080600080198587098587029250828110838203039150506000811415612ab05760008411612aa457600080fd5b83820492505050612b49565b808411612abc57600080fd5b60008486880990508281118203915080830392506000600186190186169050808604955080840493506001818260000304019050808302841793506000600287600302189050808702600203810290508087026002038102905080870260020381029050808702600203810290508087026002038102905080870260020381029050808502955050505050505b9392505050565b60008060008019848609848602925082811083820303915050600080670de0b6b3a764000086880991506706f05b59d3b1ffff821190506000831415612bb65780670de0b6b3a76400008581612ba957612ba861350e565b5b0401945050505050612c10565b82670de0b6b3a764000011612bca57600080fd5b807faccb18165bd6fe31ae1cf318dc5b51eee0e1ba569b88cd74c1773b91fac1066960016204000080600003040186851186030262040000858803041702019450505050505b92915050565b600081359050612c2581613748565b92915050565b600081519050612c3a81613748565b92915050565b600081359050612c4f8161375f565b92915050565b600081519050612c6481613776565b92915050565b600081359050612c798161378d565b92915050565b600060208284031215612c9557612c946135ca565b5b6000612ca384828501612c16565b91505092915050565b600060208284031215612cc257612cc16135ca565b5b6000612cd084828501612c2b565b91505092915050565b600060208284031215612cef57612cee6135ca565b5b6000612cfd84828501612c40565b91505092915050565b60008060008060808587031215612d2057612d1f6135ca565b5b6000612d2e87828801612c40565b9450506020612d3f87828801612c16565b9350506040612d5087828801612c6a565b9250506060612d6187828801612c6a565b91505092959194509250565b60008060408385031215612d8457612d836135ca565b5b6000612d9285828601612c16565b9250506020612da385828601612c6a565b9150509250929050565b600060208284031215612dc357612dc26135ca565b5b6000612dd184828501612c55565b91505092915050565b600060208284031215612df057612def6135ca565b5b6000612dfe84828501612c6a565b91505092915050565b60008060408385031215612e1e57612e1d6135ca565b5b6000612e2c85828601612c6a565b9250506020612e3d85828601612c16565b9150509250929050565b6000612e538383612e7d565b60208301905092915050565b612e68816133fb565b82525050565b612e77816133b3565b82525050565b612e86816133a1565b82525050565b612e95816133a1565b82525050565b6000612ea682613247565b612eb0818561326a565b9350612ebb83613237565b8060005b83811015612eec578151612ed38882612e47565b9750612ede8361325d565b925050600181019050612ebf565b5085935050505092915050565b6000612f0482613252565b612f0e818561327b565b9350612f1e818560208601613431565b612f27816135cf565b840191505092915050565b6000612f3f601d8361327b565b9150612f4a826135e0565b602082019050919050565b6000612f6260268361327b565b9150612f6d82613609565b604082019050919050565b6000612f85603b8361327b565b9150612f9082613658565b604082019050919050565b6000612fa860208361327b565b9150612fb3826136a7565b602082019050919050565b6000612fcb601f8361327b565b9150612fd6826136d0565b602082019050919050565b6000612fee602f8361327b565b9150612ff9826136f9565b604082019050919050565b61300d816133f1565b82525050565b60006020820190506130286000830184612e8c565b92915050565b600060c0820190506130436000830189612e6e565b6130506020830188612e8c565b61305d6040830187613004565b61306a6060830186613004565b6130776080830185613004565b61308460a0830184613004565b979650505050505050565b60006040820190506130a46000830185612e5f565b6130b16020830184613004565b9392505050565b60006060820190506130cd6000830186612e8c565b6130da6020830185612e8c565b6130e76040830184613004565b949350505050565b60006040820190506131046000830185612e8c565b6131116020830184613004565b9392505050565b600060208201905081810360008301526131328184612e9b565b905092915050565b600060208201905081810360008301526131548184612ef9565b905092915050565b6000602082019050818103600083015261317581612f32565b9050919050565b6000602082019050818103600083015261319581612f55565b9050919050565b600060208201905081810360008301526131b581612f78565b9050919050565b600060208201905081810360008301526131d581612f9b565b9050919050565b600060208201905081810360008301526131f581612fbe565b9050919050565b6000602082019050818103600083015261321581612fe1565b9050919050565b60006020820190506132316000830184613004565b92915050565b6000819050602082019050919050565b600081519050919050565b600081519050919050565b6000602082019050919050565b600082825260208201905092915050565b600082825260208201905092915050565b6000613297826133f1565b91506132a2836133f1565b9250827fffffffffffffffffffffffffffffffffffffffffffffffffffffffffffffffff038211156132d7576132d66134df565b5b828201905092915050565b60006132ed826133f1565b91506132f8836133f1565b9250826133085761330761350e565b5b828204905092915050565b600061331e826133f1565b9150613329836133f1565b9250817fffffffffffffffffffffffffffffffffffffffffffffffffffffffffffffffff0483118215151615613362576133616134df565b5b828202905092915050565b6000613378826133f1565b9150613383836133f1565b925082821015613396576133956134df565b5b828203905092915050565b60006133ac826133d1565b9050919050565b60006133be826133d1565b9050919050565b60008115159050919050565b600073ffffffffffffffffffffffffffffffffffffffff82169050919050565b6000819050919050565b60006134068261340d565b9050919050565b60006134188261341f565b9050919050565b600061342a826133d1565b9050919050565b60005b8381101561344f578082015181840152602081019050613434565b8381111561345e576000848401525b50505050565b6000600282049050600182168061347c57607f821691505b602082108114156134905761348f61353d565b5b50919050565b60006134a1826133f1565b91507fffffffffffffffffffffffffffffffffffffffffffffffffffffffffffffffff8214156134d4576134d36134df565b5b600182019050919050565b7f4e487b7100000000000000000000000000000000000000000000000000000000600052601160045260246000fd5b7f4e487b7100000000000000000000000000000000000000000000000000000000600052601260045260246000fd5b7f4e487b7100000000000000000000000000000000000000000000000000000000600052602260045260246000fd5b7f4e487b7100000000000000000000000000000000000000000000000000000000600052603260045260246000fd5b7f4e487b7100000000000000000000000000000000000000000000000000000000600052604160045260246000fd5b600080fd5b6000601f19601f8301169050919050565b7f53616c617279206d7573742062652067726561746572207468616e2030000000600082015250565b7f4f776e61626c653a206e6577206f776e657220697320746865207a65726f206160008201527f6464726573730000000000000000000000000000000000000000000000000000602082015250565b7f746869732066756e6374696f6e206d6179206f6e6c792062652063616c6c656460008201527f20627920746865207265737065637469766520656d706c6f7965650000000000602082015250565b7f4f776e61626c653a2063616c6c6572206973206e6f7420746865206f776e6572600082015250565b7f496e74657276616c206d7573742062652067726561746572207468616e203000600082015250565b7f656d706c6f7965652063616e206f6e6c79206765742070616964206f6e20736560008201527f742074696d6520696e74657276616c0000000000000000000000000000000000602082015250565b613751816133a1565b811461375c57600080fd5b50565b613768816133b3565b811461377357600080fd5b50565b61377f816133c5565b811461378a57600080fd5b50565b613796816133f1565b81146137a157600080fd5b5056fea264697066735822122035f5a686cc659587d0d207578850e31958b204d484fff1c9b4454b5c286ba77764736f6c63430008060033a264697066735822122088fd989942dffad0587b337ed2b16591059d114bd7e3cb8e7d79bf6e58ac1c4264736f6c63430008060033",
  "immutableReferences": {},
  "source": "// SPDX-License-Identifier: GPL-3.0\n\npragma solidity ^0.8.0;\n\nimport \"./Company.sol\";\nimport \"./utils/Ownable.sol\";\n\ncontract CompanyRegistry is Ownable{\n\n    address public feeTo;\n    address public feeToSetter;\n\n    constructor(address _feeToSetter) {\n        feeToSetter = _feeToSetter;\n    }\n\n    //map owner address to company address\n    mapping (address => address) companies;\n    // mapping (uint => address) idToOwner;\n    //creating this array to make it possible to turn on protocol fee\n    Company[] public companyList;\n    // address[] public companyAddresses;\n    uint256 public idCounter = 0;\n    \n    event companyCreated(address indexed _owner, address indexed _companyAddress, string indexed _companyName);\n    event newCompanyOwner(address indexed _newOwner, address indexed _companyAddress);\n\n    function getFeeToSetter() public view returns (address) {\n        return feeToSetter;\n    }\n\n    function createCompany(string memory _name) public {\n        //should prob prevent an owner from owning more than one company at a time\n        Company newCompany = new Company(msg.sender, idCounter, _name);\n        // newCompany.initialize(msg.sender, idCounter, _name);\n        companies[msg.sender] = address(newCompany);\n        //prob inefficient, rework\n        companyList.push(newCompany);\n        // companyAddresses.push(address(newCompany));\n        idCounter++;\n        //for some reason - this looks like it might be creating a new company registry contract, instead of a company contract\n        // address newCompanyAddress = address(newCompany);\n        emit companyCreated(msg.sender, companies[msg.sender], _name);\n    }\n\n    function getCompanyAddress(address _owner) public view returns (address) {\n        return address(companies[_owner]);\n    }\n\n    function getAllCompanies() public view returns (address[] memory) {\n        address[] memory list = new address[](companyList.length);\n        for (uint i; i < companyList.length; i++) {\n            //return the company address\n            list[i] = (address(companyList[i]));\n        }\n        return list;\n    }\n\n    function setFeeTo(address _feeTo) external {\n        require(msg.sender == feeToSetter, 'OpenPay: FORBIDDEN');\n        feeTo = _feeTo;\n    }\n\n    function setFeeToSetter(address _feeToSetter) external {\n        require(msg.sender == feeToSetter, 'OpenPay: FORBIDDEN');\n        feeToSetter = _feeToSetter;\n    }\n\n\n//ensure that we're able to make this require statement work properly\n//this is very important\n//     function changeOwner(address _newOwner, uint _companyId) public {\n//         //this isn't working because the msg.sender is the contract, not the owner when calling _changeOwner \n//         require(companies[_companyId].owner() == msg.sender);\n//         companies[_companyId]._changeOwner(msg.sender, _newOwner);\n//         address companyAddress = address(companies[_companyId]);\n//         emit newCompanyOwner(_newOwner, companyAddress);\n       \n//     }\n}",
  "sourcePath": "/Users/sam_flamini/devPortfolio/payrollApp/payrollApp/contracts/CompanyRegistry.sol",
  "compiler": {
    "name": "solc",
    "version": "0.8.6+commit.11564f7e.Emscripten.clang"
  },
  "schemaVersion": "3.4.1",
  "updatedAt": "2021-07-14T22:58:03.510Z",
  "networkType": "ethereum",
  "devdoc": {
    "kind": "dev",
    "methods": {
      "owner()": {
        "details": "Returns the address of the current owner."
      },
      "renounceOwnership()": {
        "details": "Leaves the contract without owner. It will not be possible to call `onlyOwner` functions anymore. Can only be called by the current owner. NOTE: Renouncing ownership will leave the contract without an owner, thereby removing any functionality that is only available to the owner."
      },
      "transferOwnership(address)": {
        "details": "Transfers ownership of the contract to a new account (`newOwner`). Can only be called by the current owner."
      }
    },
    "version": 1
  },
  "userdoc": {
    "kind": "user",
    "methods": {},
    "version": 1
  }
}