{
  "contractName": "Company",
  "abi": [
    {
      "inputs": [
        {
          "internalType": "address",
          "name": "_owner",
          "type": "address"
        },
        {
          "internalType": "uint256",
          "name": "_companyId",
          "type": "uint256"
        },
        {
          "internalType": "string",
          "name": "_name",
          "type": "string"
        }
      ],
      "stateMutability": "nonpayable",
      "type": "constructor"
    },
    {
      "anonymous": false,
      "inputs": [
        {
          "indexed": true,
          "internalType": "address",
          "name": "previousOwner",
          "type": "address"
        },
        {
          "indexed": true,
          "internalType": "address",
          "name": "newOwner",
          "type": "address"
        }
      ],
      "name": "OwnershipTransferred",
      "type": "event"
    },
    {
      "anonymous": false,
      "inputs": [
        {
          "indexed": true,
          "internalType": "address",
          "name": "_address",
          "type": "address"
        },
        {
          "indexed": false,
          "internalType": "address",
          "name": "_currency",
          "type": "address"
        },
        {
          "indexed": false,
          "internalType": "uint256",
          "name": "_amount",
          "type": "uint256"
        }
      ],
      "name": "companyWithdrawal",
      "type": "event"
    },
    {
      "anonymous": false,
      "inputs": [
        {
          "indexed": true,
          "internalType": "address",
          "name": "_address",
          "type": "address"
        },
        {
          "indexed": true,
          "internalType": "address",
          "name": "_currency",
          "type": "address"
        },
        {
          "indexed": true,
          "internalType": "uint256",
          "name": "_interval",
          "type": "uint256"
        }
      ],
      "name": "employeeCreated",
      "type": "event"
    },
    {
      "anonymous": false,
      "inputs": [
        {
          "indexed": true,
          "internalType": "address",
          "name": "_address",
          "type": "address"
        },
        {
          "indexed": true,
          "internalType": "address",
          "name": "_currency",
          "type": "address"
        },
        {
          "indexed": true,
          "internalType": "uint256",
          "name": "_amount",
          "type": "uint256"
        }
      ],
      "name": "employeePaid",
      "type": "event"
    },
    {
      "anonymous": false,
      "inputs": [
        {
          "indexed": true,
          "internalType": "address",
          "name": "_address",
          "type": "address"
        },
        {
          "indexed": true,
          "internalType": "address",
          "name": "_currency",
          "type": "address"
        },
        {
          "indexed": true,
          "internalType": "uint256",
          "name": "_amount",
          "type": "uint256"
        }
      ],
      "name": "payrollFunded",
      "type": "event"
    },
    {
      "inputs": [
        {
          "internalType": "uint256",
          "name": "",
          "type": "uint256"
        }
      ],
      "name": "employeeList",
      "outputs": [
        {
          "internalType": "address payable",
          "name": "employeeAddress",
          "type": "address"
        },
        {
          "internalType": "address",
          "name": "currency",
          "type": "address"
        },
        {
          "internalType": "uint256",
          "name": "salary",
          "type": "uint256"
        },
        {
          "internalType": "uint256",
          "name": "interval",
          "type": "uint256"
        },
        {
          "internalType": "uint256",
          "name": "lastDayPaid",
          "type": "uint256"
        },
        {
          "internalType": "uint256",
          "name": "lastPaidEarly",
          "type": "uint256"
        }
      ],
      "stateMutability": "view",
      "type": "function",
      "constant": true
    },
    {
      "inputs": [
        {
          "internalType": "address",
          "name": "",
          "type": "address"
        }
      ],
      "name": "employees",
      "outputs": [
        {
          "internalType": "address payable",
          "name": "employeeAddress",
          "type": "address"
        },
        {
          "internalType": "address",
          "name": "currency",
          "type": "address"
        },
        {
          "internalType": "uint256",
          "name": "salary",
          "type": "uint256"
        },
        {
          "internalType": "uint256",
          "name": "interval",
          "type": "uint256"
        },
        {
          "internalType": "uint256",
          "name": "lastDayPaid",
          "type": "uint256"
        },
        {
          "internalType": "uint256",
          "name": "lastPaidEarly",
          "type": "uint256"
        }
      ],
      "stateMutability": "view",
      "type": "function",
      "constant": true
    },
    {
      "inputs": [],
      "name": "name",
      "outputs": [
        {
          "internalType": "string",
          "name": "",
          "type": "string"
        }
      ],
      "stateMutability": "view",
      "type": "function",
      "constant": true
    },
    {
      "inputs": [],
      "name": "owner",
      "outputs": [
        {
          "internalType": "address",
          "name": "",
          "type": "address"
        }
      ],
      "stateMutability": "view",
      "type": "function",
      "constant": true
    },
    {
      "inputs": [],
      "name": "registry",
      "outputs": [
        {
          "internalType": "address",
          "name": "",
          "type": "address"
        }
      ],
      "stateMutability": "view",
      "type": "function",
      "constant": true
    },
    {
      "inputs": [],
      "name": "renounceOwnership",
      "outputs": [],
      "stateMutability": "nonpayable",
      "type": "function"
    },
    {
      "inputs": [
        {
          "internalType": "address",
          "name": "newOwner",
          "type": "address"
        }
      ],
      "name": "transferOwnership",
      "outputs": [],
      "stateMutability": "nonpayable",
      "type": "function"
    },
    {
      "inputs": [],
      "name": "getOwner",
      "outputs": [
        {
          "internalType": "address",
          "name": "",
          "type": "address"
        }
      ],
      "stateMutability": "view",
      "type": "function",
      "constant": true
    },
    {
      "inputs": [
        {
          "internalType": "uint256",
          "name": "_feeAmount",
          "type": "uint256"
        },
        {
          "internalType": "address",
          "name": "_feeTo",
          "type": "address"
        }
      ],
      "name": "updateProtocolFee",
      "outputs": [],
      "stateMutability": "nonpayable",
      "type": "function"
    },
    {
      "inputs": [
        {
          "internalType": "address",
          "name": "_newOwner",
          "type": "address"
        }
      ],
      "name": "_changeOwner",
      "outputs": [],
      "stateMutability": "nonpayable",
      "type": "function"
    },
    {
      "inputs": [
        {
          "internalType": "uint256",
          "name": "_amount",
          "type": "uint256"
        },
        {
          "internalType": "address",
          "name": "_token",
          "type": "address"
        }
      ],
      "name": "fundERCPayroll",
      "outputs": [],
      "stateMutability": "payable",
      "type": "function",
      "payable": true
    },
    {
      "inputs": [
        {
          "internalType": "uint256",
          "name": "_amount",
          "type": "uint256"
        },
        {
          "internalType": "address",
          "name": "_token",
          "type": "address"
        }
      ],
      "name": "withdrawFunds",
      "outputs": [],
      "stateMutability": "nonpayable",
      "type": "function"
    },
    {
      "inputs": [
        {
          "internalType": "address payable",
          "name": "_employeeAddress",
          "type": "address"
        },
        {
          "internalType": "address",
          "name": "_currency",
          "type": "address"
        },
        {
          "internalType": "uint256",
          "name": "_salary",
          "type": "uint256"
        },
        {
          "internalType": "uint256",
          "name": "_interval",
          "type": "uint256"
        }
      ],
      "name": "createEmployee",
      "outputs": [],
      "stateMutability": "nonpayable",
      "type": "function"
    },
    {
      "inputs": [
        {
          "internalType": "address",
          "name": "_address",
          "type": "address"
        },
        {
          "internalType": "uint256",
          "name": "_newSalary",
          "type": "uint256"
        }
      ],
      "name": "editEmployeeSalary",
      "outputs": [],
      "stateMutability": "nonpayable",
      "type": "function"
    },
    {
      "inputs": [
        {
          "internalType": "address",
          "name": "_address",
          "type": "address"
        },
        {
          "internalType": "uint256",
          "name": "_newInterval",
          "type": "uint256"
        }
      ],
      "name": "editEmployeeInterval",
      "outputs": [],
      "stateMutability": "nonpayable",
      "type": "function"
    },
    {
      "inputs": [
        {
          "internalType": "address",
          "name": "_address",
          "type": "address"
        }
      ],
      "name": "deleteEmployee",
      "outputs": [],
      "stateMutability": "nonpayable",
      "type": "function"
    },
    {
      "inputs": [
        {
          "internalType": "address payable",
          "name": "_address",
          "type": "address"
        }
      ],
      "name": "getEmployeeInterval",
      "outputs": [
        {
          "internalType": "uint256",
          "name": "",
          "type": "uint256"
        }
      ],
      "stateMutability": "view",
      "type": "function",
      "constant": true
    },
    {
      "inputs": [
        {
          "internalType": "address",
          "name": "_address",
          "type": "address"
        }
      ],
      "name": "getEmployeeSalary",
      "outputs": [
        {
          "internalType": "uint256",
          "name": "",
          "type": "uint256"
        }
      ],
      "stateMutability": "view",
      "type": "function",
      "constant": true
    },
    {
      "inputs": [],
      "name": "getCompanyName",
      "outputs": [
        {
          "internalType": "string",
          "name": "",
          "type": "string"
        }
      ],
      "stateMutability": "view",
      "type": "function",
      "constant": true
    },
    {
      "inputs": [
        {
          "internalType": "address",
          "name": "_tokenAddress",
          "type": "address"
        }
      ],
      "name": "getCompanyBalance",
      "outputs": [
        {
          "internalType": "uint256",
          "name": "",
          "type": "uint256"
        }
      ],
      "stateMutability": "view",
      "type": "function",
      "constant": true
    },
    {
      "inputs": [
        {
          "internalType": "address",
          "name": "_employeeAddress",
          "type": "address"
        }
      ],
      "name": "getEmployeeCurrency",
      "outputs": [
        {
          "internalType": "address",
          "name": "",
          "type": "address"
        }
      ],
      "stateMutability": "view",
      "type": "function",
      "constant": true
    },
    {
      "inputs": [],
      "name": "getEmployeesByCompany",
      "outputs": [
        {
          "internalType": "address[]",
          "name": "",
          "type": "address[]"
        }
      ],
      "stateMutability": "view",
      "type": "function",
      "constant": true
    },
    {
      "inputs": [],
      "name": "runPayroll",
      "outputs": [],
      "stateMutability": "nonpayable",
      "type": "function"
    },
    {
      "inputs": [
        {
          "internalType": "address",
          "name": "_address",
          "type": "address"
        }
      ],
      "name": "paidEarly",
      "outputs": [],
      "stateMutability": "nonpayable",
      "type": "function"
    },
    {
      "inputs": [
        {
          "internalType": "address",
          "name": "_address",
          "type": "address"
        }
      ],
      "name": "payEmployee",
      "outputs": [],
      "stateMutability": "nonpayable",
      "type": "function"
    },
    {
      "inputs": [
        {
          "internalType": "address",
          "name": "_address",
          "type": "address"
        },
        {
          "internalType": "uint256",
          "name": "_amount",
          "type": "uint256"
        }
      ],
      "name": "sendOneOffPayment",
      "outputs": [],
      "stateMutability": "nonpayable",
      "type": "function"
    }
  ],
  "bytecode": "0x608060405260006003553480156200001657600080fd5b50604051620046613803806200466183398181016040528101906200003c919062000479565b6200006e62000059620000f7640100000000026401000000009004565b620000ff640100000000026401000000009004565b33600560006101000a81548173ffffffffffffffffffffffffffffffffffffffff021916908373ffffffffffffffffffffffffffffffffffffffff160217905550620000ce83620001c36401000000000262002926176401000000009004565b816002819055508060019080519060200190620000ed9291906200031d565b5050505062000805565b600033905090565b60008060009054906101000a900473ffffffffffffffffffffffffffffffffffffffff169050816000806101000a81548173ffffffffffffffffffffffffffffffffffffffff021916908373ffffffffffffffffffffffffffffffffffffffff1602179055508173ffffffffffffffffffffffffffffffffffffffff168173ffffffffffffffffffffffffffffffffffffffff167f8be0079c531659141344cd1fd0a4f28419497f9722a3daafe3b4186f6b6457e060405160405180910390a35050565b620001dc620000f7640100000000026401000000009004565b73ffffffffffffffffffffffffffffffffffffffff166200020b620002f4640100000000026401000000009004565b73ffffffffffffffffffffffffffffffffffffffff161462000264576040517f08c379a00000000000000000000000000000000000000000000000000000000081526004016200025b9062000564565b60405180910390fd5b600073ffffffffffffffffffffffffffffffffffffffff168173ffffffffffffffffffffffffffffffffffffffff161415620002d7576040517f08c379a0000000000000000000000000000000000000000000000000000000008152600401620002ce9062000542565b60405180910390fd5b620002f181620000ff640100000000026401000000009004565b50565b60008060009054906101000a900473ffffffffffffffffffffffffffffffffffffffff16905090565b8280546200032b906200066a565b90600052602060002090601f0160209004810192826200034f57600085556200039b565b82601f106200036a57805160ff19168380011785556200039b565b828001600101855582156200039b579182015b828111156200039a5782518255916020019190600101906200037d565b5b509050620003aa9190620003ae565b5090565b5b80821115620003c9576000816000905550600101620003af565b5090565b6000620003e4620003de84620005af565b62000586565b90508281526020810184848401111562000403576200040262000739565b5b6200041084828562000634565b509392505050565b6000815190506200042981620007d1565b92915050565b600082601f83011262000447576200044662000734565b5b815162000459848260208601620003cd565b91505092915050565b6000815190506200047381620007eb565b92915050565b60008060006060848603121562000495576200049462000743565b5b6000620004a58682870162000418565b9350506020620004b88682870162000462565b925050604084015167ffffffffffffffff811115620004dc57620004db6200073e565b5b620004ea868287016200042f565b9150509250925092565b600062000503602683620005e5565b9150620005108262000759565b604082019050919050565b60006200052a602083620005e5565b91506200053782620007a8565b602082019050919050565b600060208201905081810360008301526200055d81620004f4565b9050919050565b600060208201905081810360008301526200057f816200051b565b9050919050565b600062000592620005a5565b9050620005a08282620006a0565b919050565b6000604051905090565b600067ffffffffffffffff821115620005cd57620005cc62000705565b5b620005d88262000748565b9050602081019050919050565b600082825260208201905092915050565b600062000603826200060a565b9050919050565b600073ffffffffffffffffffffffffffffffffffffffff82169050919050565b6000819050919050565b60005b838110156200065457808201518184015260208101905062000637565b8381111562000664576000848401525b50505050565b600060028204905060018216806200068357607f821691505b602082108114156200069a5762000699620006d6565b5b50919050565b620006ab8262000748565b810181811067ffffffffffffffff82111715620006cd57620006cc62000705565b5b80604052505050565b7f4e487b7100000000000000000000000000000000000000000000000000000000600052602260045260246000fd5b7f4e487b7100000000000000000000000000000000000000000000000000000000600052604160045260246000fd5b600080fd5b600080fd5b600080fd5b600080fd5b6000601f19601f8301169050919050565b7f4f776e61626c653a206e6577206f776e657220697320746865207a65726f206160008201527f6464726573730000000000000000000000000000000000000000000000000000602082015250565b7f4f776e61626c653a2063616c6c6572206973206e6f7420746865206f776e6572600082015250565b620007dc81620005f6565b8114620007e857600080fd5b50565b620007f6816200062a565b81146200080257600080fd5b50565b613e4c80620008156000396000f3fe60806040526004361061019e576000357c010000000000000000000000000000000000000000000000000000000090048063893d20e8116100ee578063b357e23d116100a7578063c621277a11610081578063c621277a1461057f578063d0678947146105a8578063f2e80483146105ea578063f2fde38b146106015761019e565b8063b357e23d146104eb578063bbe46dfd14610514578063c3b2d07a1461053d5761019e565b8063893d20e8146103b55780638da5cb5b146103e057806396c7c9ac1461040b57806399fc451f146104485780639ec7487814610471578063aa678f14146104ae5761019e565b80636d146a521161015b578063715018a611610135578063715018a61461031f57806372ec774b14610336578063744bfe61146103615780637b1039991461038a5761019e565b80636d146a52146102905780636e7c4ab1146102b95780636f5be0d6146102e25761019e565b806306fdde03146101a35780630d7129e8146101ce5780631f50ad16146101f757806323d954ca1461022057806343cfbd651461023c5780635738054e14610267575b600080fd5b3480156101af57600080fd5b506101b861062a565b6040516101c591906136a5565b60405180910390f35b3480156101da57600080fd5b506101f560048036038101906101f091906131f8565b6106b8565b005b34801561020357600080fd5b5061021e60048036038101906102199190613171565b6109d2565b005b61023a600480360381019061023591906132f9565b610eba565b005b34801561024857600080fd5b5061025161101e565b60405161025e91906136a5565b60405180910390f35b34801561027357600080fd5b5061028e6004803603810190610289919061325f565b6110b0565b005b34801561029c57600080fd5b506102b760048036038101906102b2919061325f565b6111ba565b005b3480156102c557600080fd5b506102e060048036038101906102db9190613171565b6112c4565b005b3480156102ee57600080fd5b5061030960048036038101906103049190613171565b611474565b60405161031691906137e7565b60405180910390f35b34801561032b57600080fd5b506103346114c0565b005b34801561034257600080fd5b5061034b611548565b6040516103589190613683565b60405180910390f35b34801561036d57600080fd5b50610388600480360381019061038391906132f9565b61165a565b005b34801561039657600080fd5b5061039f6117be565b6040516103ac91906135a7565b60405180910390f35b3480156103c157600080fd5b506103ca6117e4565b6040516103d791906135a7565b60405180910390f35b3480156103ec57600080fd5b506103f56117f3565b60405161040291906135a7565b60405180910390f35b34801561041757600080fd5b50610432600480360381019061042d91906131cb565b61181c565b60405161043f91906137e7565b60405180910390f35b34801561045457600080fd5b5061046f600480360381019061046a9190613171565b611868565b005b34801561047d57600080fd5b5061049860048036038101906104939190613171565b611874565b6040516104a591906137e7565b60405180910390f35b3480156104ba57600080fd5b506104d560048036038101906104d09190613171565b6118bd565b6040516104e291906135a7565b60405180910390f35b3480156104f757600080fd5b50610512600480360381019061050d919061325f565b611929565b005b34801561052057600080fd5b5061053b60048036038101906105369190613171565b611bd9565b005b34801561054957600080fd5b50610564600480360381019061055f91906132cc565b612175565b604051610576969594939291906135c2565b60405180910390f35b34801561058b57600080fd5b506105a660048036038101906105a191906132f9565b612201565b005b3480156105b457600080fd5b506105cf60048036038101906105ca9190613171565b612359565b6040516105e1969594939291906135c2565b60405180910390f35b3480156105f657600080fd5b506105ff6123d5565b005b34801561060d57600080fd5b5061062860048036038101906106239190613171565b612926565b005b6001805461063790613a0f565b80601f016020809104026020016040519081016040528092919081815260200182805461066390613a0f565b80156106b05780601f10610685576101008083540402835291602001916106b0565b820191906000526020600020905b81548152906001019060200180831161069357829003601f168201915b505050505081565b6106c0612a1e565b73ffffffffffffffffffffffffffffffffffffffff166106de6117f3565b73ffffffffffffffffffffffffffffffffffffffff1614610734576040517f08c379a000000000000000000000000000000000000000000000000000000000815260040161072b90613747565b60405180910390fd5b60006040518060c001604052808673ffffffffffffffffffffffffffffffffffffffff1681526020018573ffffffffffffffffffffffffffffffffffffffff168152602001848152602001838152602001600081526020016000815250905080600760008773ffffffffffffffffffffffffffffffffffffffff1673ffffffffffffffffffffffffffffffffffffffff16815260200190815260200160002060008201518160000160006101000a81548173ffffffffffffffffffffffffffffffffffffffff021916908373ffffffffffffffffffffffffffffffffffffffff16021790555060208201518160010160006101000a81548173ffffffffffffffffffffffffffffffffffffffff021916908373ffffffffffffffffffffffffffffffffffffffff16021790555060408201518160020155606082015181600301556080820151816004015560a08201518160050155905050600881908060018154018082558091505060019003906000526020600020906006020160009091909190915060008201518160000160006101000a81548173ffffffffffffffffffffffffffffffffffffffff021916908373ffffffffffffffffffffffffffffffffffffffff16021790555060208201518160010160006101000a81548173ffffffffffffffffffffffffffffffffffffffff021916908373ffffffffffffffffffffffffffffffffffffffff16021790555060408201518160020155606082015181600301556080820151816004015560a082015181600501555050818473ffffffffffffffffffffffffffffffffffffffff168673ffffffffffffffffffffffffffffffffffffffff167f8299eb8267d570c486958c8ae09c384854d17cd9174fd1cb8dc8e355d062e2fe60405160405180910390a45050505050565b6109da612a1e565b73ffffffffffffffffffffffffffffffffffffffff166109f86117f3565b73ffffffffffffffffffffffffffffffffffffffff1614610a4e576040517f08c379a0000000000000000000000000000000000000000000000000000000008152600401610a4590613747565b60405180910390fd5b6000610a9e600760008473ffffffffffffffffffffffffffffffffffffffff1673ffffffffffffffffffffffffffffffffffffffff1681526020019081526020016000206003015461016d612a26565b9050600062015180600760008573ffffffffffffffffffffffffffffffffffffffff1673ffffffffffffffffffffffffffffffffffffffff16815260200190815260200160002060030154610af391906138f4565b905080600760008573ffffffffffffffffffffffffffffffffffffffff1673ffffffffffffffffffffffffffffffffffffffff16815260200190815260200160002060040154610b43919061386d565b421015610b4f57600080fd5b6000600760008573ffffffffffffffffffffffffffffffffffffffff1673ffffffffffffffffffffffffffffffffffffffff16815260200190815260200160002060010160009054906101000a900473ffffffffffffffffffffffffffffffffffffffff16905060008190506000806003541115610ccd57600080610c16600760008a73ffffffffffffffffffffffffffffffffffffffff1673ffffffffffffffffffffffffffffffffffffffff1681526020019081526020016000206002015488612a43565b9050610c2460035482612a43565b9150610c7b610c75600760008b73ffffffffffffffffffffffffffffffffffffffff1673ffffffffffffffffffffffffffffffffffffffff1681526020019081526020016000206002015489612a43565b83612a57565b9250610cca600460009054906101000a900473ffffffffffffffffffffffffffffffffffffffff16838673ffffffffffffffffffffffffffffffffffffffff16612a6d9092919063ffffffff16565b50505b60006003541415610d2757610d24600760008873ffffffffffffffffffffffffffffffffffffffff1673ffffffffffffffffffffffffffffffffffffffff1681526020019081526020016000206002015486612a43565b90505b6000600760008873ffffffffffffffffffffffffffffffffffffffff1673ffffffffffffffffffffffffffffffffffffffff16815260200190815260200160002060000160009054906101000a900473ffffffffffffffffffffffffffffffffffffffff16905081600660008673ffffffffffffffffffffffffffffffffffffffff1673ffffffffffffffffffffffffffffffffffffffff1681526020019081526020016000206000828254610ddd919061394e565b9250508190555042600760008973ffffffffffffffffffffffffffffffffffffffff1673ffffffffffffffffffffffffffffffffffffffff16815260200190815260200160002060040181905550610e5681838573ffffffffffffffffffffffffffffffffffffffff16612a6d9092919063ffffffff16565b818473ffffffffffffffffffffffffffffffffffffffff168873ffffffffffffffffffffffffffffffffffffffff167f8932c4c89ad779d7d0ca58f0cef653239a672137bd89097d4ec99eff9e88428260405160405180910390a450505050505050565b610ec2612a1e565b73ffffffffffffffffffffffffffffffffffffffff16610ee06117f3565b73ffffffffffffffffffffffffffffffffffffffff1614610f36576040517f08c379a0000000000000000000000000000000000000000000000000000000008152600401610f2d90613747565b60405180910390fd5b6000819050610f683330858473ffffffffffffffffffffffffffffffffffffffff16612b0f909392919063ffffffff16565b82600660008473ffffffffffffffffffffffffffffffffffffffff1673ffffffffffffffffffffffffffffffffffffffff1681526020019081526020016000206000828254610fb7919061386d565b92505081905550828273ffffffffffffffffffffffffffffffffffffffff163073ffffffffffffffffffffffffffffffffffffffff167f2b3a72294226d67c14ef039ea7ff97706ea2cb96eb55e8f99996198ac053c79060405160405180910390a4505050565b60606001805461102d90613a0f565b80601f016020809104026020016040519081016040528092919081815260200182805461105990613a0f565b80156110a65780601f1061107b576101008083540402835291602001916110a6565b820191906000526020600020905b81548152906001019060200180831161108957829003601f168201915b5050505050905090565b6110b8612a1e565b73ffffffffffffffffffffffffffffffffffffffff166110d66117f3565b73ffffffffffffffffffffffffffffffffffffffff161461112c576040517f08c379a000000000000000000000000000000000000000000000000000000000815260040161112390613747565b60405180910390fd5b6000811161116f576040517f08c379a000000000000000000000000000000000000000000000000000000000815260040161116690613767565b60405180910390fd5b80600760008473ffffffffffffffffffffffffffffffffffffffff1673ffffffffffffffffffffffffffffffffffffffff168152602001908152602001600020600301819055505050565b6111c2612a1e565b73ffffffffffffffffffffffffffffffffffffffff166111e06117f3565b73ffffffffffffffffffffffffffffffffffffffff1614611236576040517f08c379a000000000000000000000000000000000000000000000000000000000815260040161122d90613747565b60405180910390fd5b60008111611279576040517f08c379a0000000000000000000000000000000000000000000000000000000008152600401611270906136c7565b60405180910390fd5b80600760008473ffffffffffffffffffffffffffffffffffffffff1673ffffffffffffffffffffffffffffffffffffffff168152602001908152602001600020600201819055505050565b6112cc612a1e565b73ffffffffffffffffffffffffffffffffffffffff166112ea6117f3565b73ffffffffffffffffffffffffffffffffffffffff1614611340576040517f08c379a000000000000000000000000000000000000000000000000000000000815260040161133790613747565b60405180910390fd5b60005b600880549050811015611470578173ffffffffffffffffffffffffffffffffffffffff166008828154811061137b5761137a613b17565b5b906000526020600020906006020160000160009054906101000a900473ffffffffffffffffffffffffffffffffffffffff1673ffffffffffffffffffffffffffffffffffffffff16141561145d57600881815481106113dd576113dc613b17565b5b9060005260206000209060060201600080820160006101000a81549073ffffffffffffffffffffffffffffffffffffffff02191690556001820160006101000a81549073ffffffffffffffffffffffffffffffffffffffff0219169055600282016000905560038201600090556004820160009055600582016000905550505b808061146890613a41565b915050611343565b5050565b6000600760008373ffffffffffffffffffffffffffffffffffffffff1673ffffffffffffffffffffffffffffffffffffffff168152602001908152602001600020600201549050919050565b6114c8612a1e565b73ffffffffffffffffffffffffffffffffffffffff166114e66117f3565b73ffffffffffffffffffffffffffffffffffffffff161461153c576040517f08c379a000000000000000000000000000000000000000000000000000000000815260040161153390613747565b60405180910390fd5b6115466000612bb4565b565b6060600060088054905067ffffffffffffffff81111561156b5761156a613b46565b5b6040519080825280602002602001820160405280156115995781602001602082028036833780820191505090505b50905060005b60088054905081101561165257600881815481106115c0576115bf613b17565b5b906000526020600020906006020160000160009054906101000a900473ffffffffffffffffffffffffffffffffffffffff1682828151811061160557611604613b17565b5b602002602001019073ffffffffffffffffffffffffffffffffffffffff16908173ffffffffffffffffffffffffffffffffffffffff1681525050808061164a90613a41565b91505061159f565b508091505090565b611662612a1e565b73ffffffffffffffffffffffffffffffffffffffff166116806117f3565b73ffffffffffffffffffffffffffffffffffffffff16146116d6576040517f08c379a00000000000000000000000000000000000000000000000000000000081526004016116cd90613747565b60405180910390fd5b600081905082600660008473ffffffffffffffffffffffffffffffffffffffff1673ffffffffffffffffffffffffffffffffffffffff168152602001908152602001600020600082825461172a919061394e565b92505081905550600061173b6117f3565b905061176881858473ffffffffffffffffffffffffffffffffffffffff16612a6d9092919063ffffffff16565b3073ffffffffffffffffffffffffffffffffffffffff167fce7b627b3830179bde4b610048f5cffbed187ff14e09e83edfad43cead2b174784866040516117b092919061365a565b60405180910390a250505050565b600560009054906101000a900473ffffffffffffffffffffffffffffffffffffffff1681565b60006117ee6117f3565b905090565b60008060009054906101000a900473ffffffffffffffffffffffffffffffffffffffff16905090565b6000600760008373ffffffffffffffffffffffffffffffffffffffff1673ffffffffffffffffffffffffffffffffffffffff168152602001908152602001600020600301549050919050565b61187181612926565b50565b6000600660008373ffffffffffffffffffffffffffffffffffffffff1673ffffffffffffffffffffffffffffffffffffffff168152602001908152602001600020549050919050565b6000600760008373ffffffffffffffffffffffffffffffffffffffff1673ffffffffffffffffffffffffffffffffffffffff16815260200190815260200160002060010160009054906101000a900473ffffffffffffffffffffffffffffffffffffffff169050919050565b611931612a1e565b73ffffffffffffffffffffffffffffffffffffffff1661194f6117f3565b73ffffffffffffffffffffffffffffffffffffffff16146119a5576040517f08c379a000000000000000000000000000000000000000000000000000000000815260040161199c90613747565b60405180910390fd5b6000600760008473ffffffffffffffffffffffffffffffffffffffff1673ffffffffffffffffffffffffffffffffffffffff16815260200190815260200160002060010160009054906101000a900473ffffffffffffffffffffffffffffffffffffffff16905060008190506000806003541115611a7f5760006003549050611a2e8582612a57565b9150611a7d600460009054906101000a900473ffffffffffffffffffffffffffffffffffffffff16828573ffffffffffffffffffffffffffffffffffffffff16612a6d9092919063ffffffff16565b505b60006003541415611a8e578390505b6000600760008773ffffffffffffffffffffffffffffffffffffffff1673ffffffffffffffffffffffffffffffffffffffff16815260200190815260200160002060000160009054906101000a900473ffffffffffffffffffffffffffffffffffffffff16905081600660008673ffffffffffffffffffffffffffffffffffffffff1673ffffffffffffffffffffffffffffffffffffffff1681526020019081526020016000206000828254611b44919061394e565b92505081905550611b7681838573ffffffffffffffffffffffffffffffffffffffff16612a6d9092919063ffffffff16565b818473ffffffffffffffffffffffffffffffffffffffff168773ffffffffffffffffffffffffffffffffffffffff167f8932c4c89ad779d7d0ca58f0cef653239a672137bd89097d4ec99eff9e88428260405160405180910390a4505050505050565b3373ffffffffffffffffffffffffffffffffffffffff168173ffffffffffffffffffffffffffffffffffffffff1614611c47576040517f08c379a0000000000000000000000000000000000000000000000000000000008152600401611c3e90613707565b60405180910390fd5b6000611c97600760008473ffffffffffffffffffffffffffffffffffffffff1673ffffffffffffffffffffffffffffffffffffffff1681526020019081526020016000206003015461016d612a26565b9050600062015180600760008573ffffffffffffffffffffffffffffffffffffffff1673ffffffffffffffffffffffffffffffffffffffff16815260200190815260200160002060030154611cec91906138f4565b905080600760008573ffffffffffffffffffffffffffffffffffffffff1673ffffffffffffffffffffffffffffffffffffffff16815260200190815260200160002060050154611d3c919061386d565b421015611d7e576040517f08c379a0000000000000000000000000000000000000000000000000000000008152600401611d75906137c7565b60405180910390fd5b6000600760008573ffffffffffffffffffffffffffffffffffffffff1673ffffffffffffffffffffffffffffffffffffffff16815260200190815260200160002060010160009054906101000a900473ffffffffffffffffffffffffffffffffffffffff16905060008190506000806003541115611ede57600080611e45600760008a73ffffffffffffffffffffffffffffffffffffffff1673ffffffffffffffffffffffffffffffffffffffff1681526020019081526020016000206002015488612a43565b905060006064600183611e5891906138f4565b611e6291906138c3565b90506000611e7260035484612a43565b9050611e7e8183612c78565b9350611e8a8385612a57565b9450611ed9600460009054906101000a900473ffffffffffffffffffffffffffffffffffffffff16858873ffffffffffffffffffffffffffffffffffffffff16612a6d9092919063ffffffff16565b505050505b60006003541415611f9b576000611f37600760008973ffffffffffffffffffffffffffffffffffffffff1673ffffffffffffffffffffffffffffffffffffffff1681526020019081526020016000206002015487612a43565b905060006064600183611f4a91906138f4565b611f5491906138c3565b9050611f9682826040518060400160405280600d81526020017f6572726f72202d20726574727900000000000000000000000000000000000000815250612c8e565b925050505b6000600760008873ffffffffffffffffffffffffffffffffffffffff1673ffffffffffffffffffffffffffffffffffffffff16815260200190815260200160002060000160009054906101000a900473ffffffffffffffffffffffffffffffffffffffff16905081600660008673ffffffffffffffffffffffffffffffffffffffff1673ffffffffffffffffffffffffffffffffffffffff1681526020019081526020016000206000828254612051919061394e565b9250508190555042600760008973ffffffffffffffffffffffffffffffffffffffff1673ffffffffffffffffffffffffffffffffffffffff1681526020019081526020016000206004018190555042600760008973ffffffffffffffffffffffffffffffffffffffff1673ffffffffffffffffffffffffffffffffffffffff1681526020019081526020016000206005018190555061211181838573ffffffffffffffffffffffffffffffffffffffff16612a6d9092919063ffffffff16565b818473ffffffffffffffffffffffffffffffffffffffff168873ffffffffffffffffffffffffffffffffffffffff167f8932c4c89ad779d7d0ca58f0cef653239a672137bd89097d4ec99eff9e88428260405160405180910390a450505050505050565b6008818154811061218557600080fd5b90600052602060002090600602016000915090508060000160009054906101000a900473ffffffffffffffffffffffffffffffffffffffff16908060010160009054906101000a900473ffffffffffffffffffffffffffffffffffffffff16908060020154908060030154908060040154908060050154905086565b6000600560009054906101000a900473ffffffffffffffffffffffffffffffffffffffff16905060008173ffffffffffffffffffffffffffffffffffffffff1663f4aa13026040518163ffffffff167c010000000000000000000000000000000000000000000000000000000002815260040160206040518083038186803b15801561228c57600080fd5b505afa1580156122a0573d6000803e3d6000fd5b505050506040513d601f19601f820116820180604052508101906122c4919061319e565b90508073ffffffffffffffffffffffffffffffffffffffff163373ffffffffffffffffffffffffffffffffffffffff16146122fe57600080fd5b6127108461230c91906138c3565b60038190555082600460006101000a81548173ffffffffffffffffffffffffffffffffffffffff021916908373ffffffffffffffffffffffffffffffffffffffff16021790555050505050565b60076020528060005260406000206000915090508060000160009054906101000a900473ffffffffffffffffffffffffffffffffffffffff16908060010160009054906101000a900473ffffffffffffffffffffffffffffffffffffffff16908060020154908060030154908060040154908060050154905086565b6123dd612a1e565b73ffffffffffffffffffffffffffffffffffffffff166123fb6117f3565b73ffffffffffffffffffffffffffffffffffffffff1614612451576040517f08c379a000000000000000000000000000000000000000000000000000000000815260040161244890613747565b60405180910390fd5b60005b6008805490508110156129235760006008828154811061247757612476613b17565b5b906000526020600020906006020160000160009054906101000a900473ffffffffffffffffffffffffffffffffffffffff16905060006124fb600760008473ffffffffffffffffffffffffffffffffffffffff1673ffffffffffffffffffffffffffffffffffffffff1681526020019081526020016000206003015461016d612a26565b9050600062015180600760008573ffffffffffffffffffffffffffffffffffffffff1673ffffffffffffffffffffffffffffffffffffffff1681526020019081526020016000206003015461255091906138f4565b905080600760008573ffffffffffffffffffffffffffffffffffffffff1673ffffffffffffffffffffffffffffffffffffffff168152602001908152602001600020600401546125a0919061386d565b421061290d576000600760008573ffffffffffffffffffffffffffffffffffffffff1673ffffffffffffffffffffffffffffffffffffffff16815260200190815260200160002060010160009054906101000a900473ffffffffffffffffffffffffffffffffffffffff169050600081905060008060035411156127245760008061266d600760008a73ffffffffffffffffffffffffffffffffffffffff1673ffffffffffffffffffffffffffffffffffffffff1681526020019081526020016000206002015488612a43565b905061267b60035482612a43565b91506126d26126cc600760008b73ffffffffffffffffffffffffffffffffffffffff1673ffffffffffffffffffffffffffffffffffffffff1681526020019081526020016000206002015489612a43565b83612a57565b9250612721600460009054906101000a900473ffffffffffffffffffffffffffffffffffffffff16838673ffffffffffffffffffffffffffffffffffffffff16612a6d9092919063ffffffff16565b50505b6000600354141561277e5761277b600760008873ffffffffffffffffffffffffffffffffffffffff1673ffffffffffffffffffffffffffffffffffffffff1681526020019081526020016000206002015486612a43565b90505b6000600760008873ffffffffffffffffffffffffffffffffffffffff1673ffffffffffffffffffffffffffffffffffffffff16815260200190815260200160002060000160009054906101000a900473ffffffffffffffffffffffffffffffffffffffff16905081600660008673ffffffffffffffffffffffffffffffffffffffff1673ffffffffffffffffffffffffffffffffffffffff1681526020019081526020016000206000828254612834919061394e565b9250508190555042600760008973ffffffffffffffffffffffffffffffffffffffff1673ffffffffffffffffffffffffffffffffffffffff168152602001908152602001600020600401819055506128ad81838573ffffffffffffffffffffffffffffffffffffffff16612a6d9092919063ffffffff16565b818473ffffffffffffffffffffffffffffffffffffffff168873ffffffffffffffffffffffffffffffffffffffff167f8932c4c89ad779d7d0ca58f0cef653239a672137bd89097d4ec99eff9e88428260405160405180910390a4505050505b505050808061291b90613a41565b915050612454565b50565b61292e612a1e565b73ffffffffffffffffffffffffffffffffffffffff1661294c6117f3565b73ffffffffffffffffffffffffffffffffffffffff16146129a2576040517f08c379a000000000000000000000000000000000000000000000000000000000815260040161299990613747565b60405180910390fd5b600073ffffffffffffffffffffffffffffffffffffffff168173ffffffffffffffffffffffffffffffffffffffff161415612a12576040517f08c379a0000000000000000000000000000000000000000000000000000000008152600401612a09906136e7565b60405180910390fd5b612a1b81612bb4565b50565b600033905090565b6000612a3b83670de0b6b3a764000084612ce3565b905092915050565b6000612a4f8383612dbe565b905092915050565b60008183612a65919061394e565b905092915050565b612b0a8363a9059cbb7c0100000000000000000000000000000000000000000000000000000000028484604051602401612aa892919061365a565b604051602081830303815290604052907bffffffffffffffffffffffffffffffffffffffffffffffffffffffff19166020820180517bffffffffffffffffffffffffffffffffffffffffffffffffffffffff8381831617835250505050612e84565b505050565b612bae846323b872dd7c010000000000000000000000000000000000000000000000000000000002858585604051602401612b4c93929190613623565b604051602081830303815290604052907bffffffffffffffffffffffffffffffffffffffffffffffffffffffff19166020820180517bffffffffffffffffffffffffffffffffffffffffffffffffffffffff8381831617835250505050612e84565b50505050565b60008060009054906101000a900473ffffffffffffffffffffffffffffffffffffffff169050816000806101000a81548173ffffffffffffffffffffffffffffffffffffffff021916908373ffffffffffffffffffffffffffffffffffffffff1602179055508173ffffffffffffffffffffffffffffffffffffffff168173ffffffffffffffffffffffffffffffffffffffff167f8be0079c531659141344cd1fd0a4f28419497f9722a3daafe3b4186f6b6457e060405160405180910390a35050565b60008183612c86919061386d565b905092915050565b6000838311158290612cd6576040517f08c379a0000000000000000000000000000000000000000000000000000000008152600401612ccd91906136a5565b60405180910390fd5b5082840390509392505050565b600080600080198587098587029250828110838203039150506000811415612d1e5760008411612d1257600080fd5b83820492505050612db7565b808411612d2a57600080fd5b60008486880990508281118203915080830392506000600186190186169050808604955080840493506001818260000304019050808302841793506000600287600302189050808702600203810290508087026002038102905080870260020381029050808702600203810290508087026002038102905080870260020381029050808502955050505050505b9392505050565b60008060008019848609848602925082811083820303915050600080670de0b6b3a764000086880991506706f05b59d3b1ffff821190506000831415612e245780670de0b6b3a76400008581612e1757612e16613ab9565b5b0401945050505050612e7e565b82670de0b6b3a764000011612e3857600080fd5b807faccb18165bd6fe31ae1cf318dc5b51eee0e1ba569b88cd74c1773b91fac1066960016204000080600003040186851186030262040000858803041702019450505050505b92915050565b6000612ee6826040518060400160405280602081526020017f5361666545524332303a206c6f772d6c6576656c2063616c6c206661696c65648152508573ffffffffffffffffffffffffffffffffffffffff16612f4b9092919063ffffffff16565b9050600081511115612f465780806020019051810190612f06919061329f565b612f45576040517f08c379a0000000000000000000000000000000000000000000000000000000008152600401612f3c906137a7565b60405180910390fd5b5b505050565b6060612f5a8484600085612f63565b90509392505050565b6060823073ffffffffffffffffffffffffffffffffffffffff16311015612fbf576040517f08c379a0000000000000000000000000000000000000000000000000000000008152600401612fb690613727565b60405180910390fd5b612fc88561308e565b613007576040517f08c379a0000000000000000000000000000000000000000000000000000000008152600401612ffe90613787565b60405180910390fd5b6000808673ffffffffffffffffffffffffffffffffffffffff1685876040516130309190613590565b60006040518083038185875af1925050503d806000811461306d576040519150601f19603f3d011682016040523d82523d6000602084013e613072565b606091505b50915091506130828282866130a1565b92505050949350505050565b600080823b905060008111915050919050565b606083156130b157829050613101565b6000835111156130c45782518084602001fd5b816040517f08c379a00000000000000000000000000000000000000000000000000000000081526004016130f891906136a5565b60405180910390fd5b9392505050565b60008135905061311781613dba565b92915050565b60008151905061312c81613dba565b92915050565b60008135905061314181613dd1565b92915050565b60008151905061315681613de8565b92915050565b60008135905061316b81613dff565b92915050565b60006020828403121561318757613186613b75565b5b600061319584828501613108565b91505092915050565b6000602082840312156131b4576131b3613b75565b5b60006131c28482850161311d565b91505092915050565b6000602082840312156131e1576131e0613b75565b5b60006131ef84828501613132565b91505092915050565b6000806000806080858703121561321257613211613b75565b5b600061322087828801613132565b945050602061323187828801613108565b93505060406132428782880161315c565b92505060606132538782880161315c565b91505092959194509250565b6000806040838503121561327657613275613b75565b5b600061328485828601613108565b92505060206132958582860161315c565b9150509250929050565b6000602082840312156132b5576132b4613b75565b5b60006132c384828501613147565b91505092915050565b6000602082840312156132e2576132e1613b75565b5b60006132f08482850161315c565b91505092915050565b600080604083850312156133105761330f613b75565b5b600061331e8582860161315c565b925050602061332f85828601613108565b9150509250929050565b60006133458383613360565b60208301905092915050565b61335a81613994565b82525050565b61336981613982565b82525050565b61337881613982565b82525050565b600061338982613812565b6133938185613840565b935061339e83613802565b8060005b838110156133cf5781516133b68882613339565b97506133c183613833565b9250506001810190506133a2565b5085935050505092915050565b60006133e78261381d565b6133f18185613851565b93506134018185602086016139dc565b80840191505092915050565b600061341882613828565b613422818561385c565b93506134328185602086016139dc565b61343b81613b7a565b840191505092915050565b6000613453601d8361385c565b915061345e82613b8b565b602082019050919050565b600061347660268361385c565b915061348182613bb4565b604082019050919050565b6000613499603b8361385c565b91506134a482613c03565b604082019050919050565b60006134bc60268361385c565b91506134c782613c52565b604082019050919050565b60006134df60208361385c565b91506134ea82613ca1565b602082019050919050565b6000613502601f8361385c565b915061350d82613cca565b602082019050919050565b6000613525601d8361385c565b915061353082613cf3565b602082019050919050565b6000613548602a8361385c565b915061355382613d1c565b604082019050919050565b600061356b602f8361385c565b915061357682613d6b565b604082019050919050565b61358a816139d2565b82525050565b600061359c82846133dc565b915081905092915050565b60006020820190506135bc600083018461336f565b92915050565b600060c0820190506135d76000830189613351565b6135e4602083018861336f565b6135f16040830187613581565b6135fe6060830186613581565b61360b6080830185613581565b61361860a0830184613581565b979650505050505050565b6000606082019050613638600083018661336f565b613645602083018561336f565b6136526040830184613581565b949350505050565b600060408201905061366f600083018561336f565b61367c6020830184613581565b9392505050565b6000602082019050818103600083015261369d818461337e565b905092915050565b600060208201905081810360008301526136bf818461340d565b905092915050565b600060208201905081810360008301526136e081613446565b9050919050565b6000602082019050818103600083015261370081613469565b9050919050565b600060208201905081810360008301526137208161348c565b9050919050565b60006020820190508181036000830152613740816134af565b9050919050565b60006020820190508181036000830152613760816134d2565b9050919050565b60006020820190508181036000830152613780816134f5565b9050919050565b600060208201905081810360008301526137a081613518565b9050919050565b600060208201905081810360008301526137c08161353b565b9050919050565b600060208201905081810360008301526137e08161355e565b9050919050565b60006020820190506137fc6000830184613581565b92915050565b6000819050602082019050919050565b600081519050919050565b600081519050919050565b600081519050919050565b6000602082019050919050565b600082825260208201905092915050565b600081905092915050565b600082825260208201905092915050565b6000613878826139d2565b9150613883836139d2565b9250827fffffffffffffffffffffffffffffffffffffffffffffffffffffffffffffffff038211156138b8576138b7613a8a565b5b828201905092915050565b60006138ce826139d2565b91506138d9836139d2565b9250826138e9576138e8613ab9565b5b828204905092915050565b60006138ff826139d2565b915061390a836139d2565b9250817fffffffffffffffffffffffffffffffffffffffffffffffffffffffffffffffff048311821515161561394357613942613a8a565b5b828202905092915050565b6000613959826139d2565b9150613964836139d2565b92508282101561397757613976613a8a565b5b828203905092915050565b600061398d826139b2565b9050919050565b600061399f826139b2565b9050919050565b60008115159050919050565b600073ffffffffffffffffffffffffffffffffffffffff82169050919050565b6000819050919050565b60005b838110156139fa5780820151818401526020810190506139df565b83811115613a09576000848401525b50505050565b60006002820490506001821680613a2757607f821691505b60208210811415613a3b57613a3a613ae8565b5b50919050565b6000613a4c826139d2565b91507fffffffffffffffffffffffffffffffffffffffffffffffffffffffffffffffff821415613a7f57613a7e613a8a565b5b600182019050919050565b7f4e487b7100000000000000000000000000000000000000000000000000000000600052601160045260246000fd5b7f4e487b7100000000000000000000000000000000000000000000000000000000600052601260045260246000fd5b7f4e487b7100000000000000000000000000000000000000000000000000000000600052602260045260246000fd5b7f4e487b7100000000000000000000000000000000000000000000000000000000600052603260045260246000fd5b7f4e487b7100000000000000000000000000000000000000000000000000000000600052604160045260246000fd5b600080fd5b6000601f19601f8301169050919050565b7f53616c617279206d7573742062652067726561746572207468616e2030000000600082015250565b7f4f776e61626c653a206e6577206f776e657220697320746865207a65726f206160008201527f6464726573730000000000000000000000000000000000000000000000000000602082015250565b7f746869732066756e6374696f6e206d6179206f6e6c792062652063616c6c656460008201527f20627920746865207265737065637469766520656d706c6f7965650000000000602082015250565b7f416464726573733a20696e73756666696369656e742062616c616e636520666f60008201527f722063616c6c0000000000000000000000000000000000000000000000000000602082015250565b7f4f776e61626c653a2063616c6c6572206973206e6f7420746865206f776e6572600082015250565b7f496e74657276616c206d7573742062652067726561746572207468616e203000600082015250565b7f416464726573733a2063616c6c20746f206e6f6e2d636f6e7472616374000000600082015250565b7f5361666545524332303a204552433230206f7065726174696f6e20646964206e60008201527f6f74207375636365656400000000000000000000000000000000000000000000602082015250565b7f656d706c6f7965652063616e206f6e6c79206765742070616964206f6e20736560008201527f742074696d6520696e74657276616c0000000000000000000000000000000000602082015250565b613dc381613982565b8114613dce57600080fd5b50565b613dda81613994565b8114613de557600080fd5b50565b613df1816139a6565b8114613dfc57600080fd5b50565b613e08816139d2565b8114613e1357600080fd5b5056fea264697066735822122062b921a7b61b4d43f361e8650cd22801d2b893bf8a6352def62fd25bebab864a64736f6c63430008060033",
  "immutableReferences": {},
  "source": "// SPDX-License-Identifier: GPL-3.0\n\npragma solidity ^0.8.0;\n\n//new company contract which will be created at will\n//make sure ownable, erc20, and math libraries all imported\nimport \"./utils/ERC20.sol\";\nimport \"./utils/IERC20.sol\";\nimport \"./utils/SafeERC20.sol\";\nimport \"./utils/Ownable.sol\";\nimport \"./utils/PRBMathUD60x18.sol\";\nimport \"./utils/SafeMath.sol\";\nimport \"./CompanyRegistry.sol\";\n\n\ncontract Company is Ownable {\n\n    using SafeERC20 for IERC20;\n    using SafeERC20 for ERC20;\n    \n    //company name\n    string public name;\n    // going to go only ERC - need stablecoins for payroll, not eth payments\n    //company Id (set by the current value of ID counter in the registry contract on creation)\n    uint256 companyId;\n    \n    //protocol fee - set to zero to begin\n    uint protocolFee = 0;\n    //where the protocol fee will be sent\n    address protocolVault;\n\n    //address of parent contract\n    address public registry;\n\n    //mapping of this conract's token balances - important for tracking value within the contract\n    //may not actually end up necessary^\n    mapping (address => uint) erc20Balances;\n\n\n    constructor(address _owner, uint _companyId, string memory _name) {\n        //caller is the parent contract\n        registry = msg.sender;\n        //ownership over this contract is the caller of the function in the parent contract\n        Ownable.transferOwnership(_owner);\n        companyId = _companyId;\n        name = _name;\n    }\n\n    //may not be needed as we can query Ownable for this\n    function getOwner() public view returns (address) {\n        return Ownable.owner();\n    }\n    \n\n//need to work with percentages here - ideally a require statement that prevents the fee from going over a certain level is what we need\n//allows the parent contract to set value of protocol fee to be witheld on every tx if active\n    function updateProtocolFee(uint _feeAmount, address _feeTo) public {\n        //instantiate registry contract\n        CompanyRegistry _companyRegistry = CompanyRegistry(registry);\n        // require the caller of this function to be the feeSetter as specified in the company registry contract\n        address feeToSetter = _companyRegistry.getFeeToSetter();\n        require(msg.sender == feeToSetter);\n        //fee should be a percentage - likely 30bps or 30/1000\n        protocolFee = _feeAmount / 10000;\n        protocolVault = _feeTo;\n    }\n\n\n    event payrollFunded(address indexed _address, address indexed _currency, uint indexed _amount);\n    event employeePaid(address indexed _address, address indexed _currency, uint indexed _amount);\n    event employeeCreated(address indexed _address, address indexed _currency, uint indexed _interval);\n    event companyWithdrawal(address indexed _address, address _currency, uint _amount);\n\n    //might not be needed within this contract\n    function _changeOwner(address _newOwner) public {\n        Ownable.transferOwnership(_newOwner);\n    }\n\n    //fund payroll with ERC 20 token\n    function fundERCPayroll(uint _amount, address _token) public payable onlyOwner {\n        IERC20 token = IERC20(_token);\n        token.safeTransferFrom(msg.sender, address(this), _amount);\n        //might remove this balances mapping\n        erc20Balances[_token] += _amount;\n        //how are we going to record who owns the company? Should we refer to contract itself in events or owner?\n        emit payrollFunded(address(this), _token, _amount);\n    }\n\n    //allows the company to withdraw funds if needed\n    function withdrawFunds(uint _amount, address _token) public onlyOwner {\n        IERC20 token = IERC20(_token);\n        //might remove this balances mapping to save on gas\n        erc20Balances[_token] -= _amount; \n        address owner = Ownable.owner();\n        //send value of withdrawal to the owner of the contract\n        token.safeTransfer(owner, _amount);\n        emit companyWithdrawal(address(this), _token, _amount);\n    }\n\n    struct Employee {\n        address payable employeeAddress;\n        address currency;\n        uint salary;\n        uint interval;\n        //used to identify the last time paid early and pay employee was called for a given employee\n        uint lastDayPaid;\n        uint lastPaidEarly;\n    }\n\n    //maps employee address to Employee\n    mapping (address => Employee) public employees;\n\n    //our list of employees\n    Employee[] public employeeList;\n    \n    //CRUD functionality\n    function createEmployee(address payable _employeeAddress, address _currency, uint _salary, uint _interval) public onlyOwner {\n        //added last day paid and lastpaid early here as 0 to instantiate them to zero\n        //create new employee, add them to mapping and list\n        Employee memory newEmployee = Employee(_employeeAddress, _currency, _salary, _interval, 0, 0);\n        employees[_employeeAddress] = newEmployee;\n        employeeList.push(newEmployee);\n        emit employeeCreated(_employeeAddress, _currency, _interval);\n    }\n\n    function editEmployeeSalary(address _address, uint _newSalary) public onlyOwner {\n        //may need another require statement here - check ownable contract\n        require(_newSalary > 0, \"Salary must be greater than 0\");\n        employees[_address].salary = _newSalary;\n    }\n\n  function editEmployeeInterval(address _address, uint _newInterval) public onlyOwner {\n        //may need another require statement here - check ownable contract\n        require(_newInterval > 0, \"Interval must be greater than 0\");\n        employees[_address].interval = _newInterval;\n    }\n\n    function deleteEmployee(address _address) public onlyOwner {\n        //may need another require statement here - check ownable contract\n        for (uint i; i < employeeList.length; i++) {\n            //potentially optimize this algorithm\n            //for now, just looping from start to finish through empoyee list, and deleting our specificed employee\n            if (employeeList[i].employeeAddress == _address) {\n                delete employeeList[i];\n            }\n        }\n    }\n\n\n    //Getter functions\n    function getEmployeeInterval(address payable _address) public view returns (uint) {\n        return employees[_address].interval;\n    }\n     \n     //getter functions\n    function getEmployeeSalary(address _address) public view returns (uint) {\n        return employees[_address].salary;\n    }\n\n\n     function getCompanyName() public view returns (string memory) {\n        return name;\n    }\n\n    // not needed, can use standard ERC20 procedures to get this\n    function getCompanyBalance(address _tokenAddress) public view returns (uint) {\n        return erc20Balances[_tokenAddress];\n    }\n\n    function getEmployeeCurrency(address _employeeAddress) public view returns (address) {\n        return employees[_employeeAddress].currency;\n    }\n\n     //holy shit, I think that this worked. Try it again in app, then use getemployeeSal and getEmployeeInterval to return up to date salaries and intervals, and render them on front end.\n    function getEmployeesByCompany() public view returns (address[] memory) {\n        address[] memory employeeRoster = new address[](employeeList.length);\n        for (uint i; i < employeeList.length; i++) {\n            employeeRoster[i] = (employeeList[i].employeeAddress);\n        }\n        return employeeRoster;\n    }\n\n    //this should work for running entire payroll\n    // function runPayroll() public onlyOwner {\n    //      for (uint i; i < employeeList.length; i++) {\n    //          address payable _address = employeeList[i].employeeAddress;\n    //         payEmployee(_address);\n    //      }\n    // }\n\n\n// run payroll across the entire company\n//this function is still reverting on front end\n    function runPayroll() public onlyOwner {\n        //looping through employeelist\n        for (uint i; i < employeeList.length; i++) {\n            //pulling out an address for each employee - prob not needed\n            address payable _address = employeeList[i].employeeAddress;\n            //defining a payment interval to multiply payment by\n            uint paymentInterval;\n            //use library to create a payment interval to multiply by\n            paymentInterval = PRBMathUD60x18.div(employees[_address].interval, 365);\n            //convert interval days into seconds\n            uint intervalSeconds = employees[_address].interval * 86400;\n          \n\n            //require last payment date to be at least interval days ago\n            //last day paid + seconds since last day paid must be at least interval amount of time ago\n            //it must be longer than interval days since the employee has been paid\n            if (block.timestamp >= employees[_address].lastDayPaid + intervalSeconds) {\n                //if the above is true, then\n                //get the currency address of the employee and create the token contract insgtance\n            address currency = employees[_address].currency;\n            ERC20 tokenContract = ERC20(currency);\n\n            //create variable for payment\n            uint payment;\n\n            //if a protocol fee\n            if (protocolFee > 0) {\n            //if protocol fee is turned on, send fee back to protocol before issuing payment\n            //consider switching order of operations here, or simply holding it in a separate variable to be claimed in bulk by the network\n            //would be ideal to NOT pass this gas payment along to users\n            uint feeTotal;\n            \n            uint grossPayment = PRBMathUD60x18.mul(employees[_address].salary, paymentInterval);\n            feeTotal = PRBMathUD60x18.mul(protocolFee, grossPayment);\n            payment = SafeMath.sub(PRBMathUD60x18.mul(employees[_address].salary, paymentInterval), feeTotal);\n            tokenContract.safeTransfer(protocolVault, feeTotal);\n            }\n\n            //use library to multiply by fraction\n            if (protocolFee == 0) {\n            payment = PRBMathUD60x18.mul(employees[_address].salary, paymentInterval);\n            } \n\n            address payable payee = employees[_address].employeeAddress;\n            erc20Balances[currency] -= payment;\n\n            //set lastdaypaid to now\n            employees[_address].lastDayPaid = block.timestamp;\n            tokenContract.safeTransfer(payee, payment);\n            //add the payment amount to total earnings of the employee\n            emit employeePaid(_address, currency, payment);\n            }\n            \n        }\n    }\n\n    // //let an employee to call this function to receive their pay early\n    function paidEarly(address _address) public {\n        //for now, the earlyWithdrawal fee is kept by the employer\n        require(_address == msg.sender, \"this function may only be called by the respective employee\");\n        // uint paymentInterval = employees[_address].interval;\n        uint paymentInterval = PRBMathUD60x18.div(employees[_address].interval, 365);\n        uint intervalSeconds = employees[_address].interval * 86400;\n\n        //require the employee to wait at least interval days between uses of paid early        \n        require (block.timestamp >= employees[_address].lastPaidEarly + intervalSeconds, \"employee can only get paid on set time interval\");\n\n        //get payment and subtract fee\n\n        address currency = employees[_address].currency;\n        ERC20 tokenContract = ERC20(currency);\n\n        uint payment;\n        \n        if (protocolFee > 0) {\n            //if protocol fee is turned on, send fee back to protocol before issuing payment\n            //consider switching order of operations here, or simply holding it in a separate variable to be claimed in bulk by the network\n            //would be ideal to NOT pass this gas payment along to users\n            uint feeTotal;\n            // check this math, may need to use safeMath or recalculate\n            uint grossPayment = PRBMathUD60x18.mul(employees[_address].salary, paymentInterval);\n            //multiply by 1% in solidity, and subtract from payment\n            uint earlyWithdrawalFee = grossPayment * 1 / 100;\n            uint protocolFeeTotal = PRBMathUD60x18.mul(protocolFee, grossPayment);\n\n            feeTotal = SafeMath.add(protocolFeeTotal, earlyWithdrawalFee);\n            // payment = SafeMath.sub(PRBMathUD60x18.mul(employees[_address].salary, paymentInterval), feeTotal);\n            payment = SafeMath.sub(grossPayment, feeTotal);\n\n            tokenContract.safeTransfer(protocolVault, feeTotal);\n        }\n\n        //use library to multiply by fraction\n        if (protocolFee == 0) {\n        //add the actual amount\n        uint grossPayment = PRBMathUD60x18.mul(employees[_address].salary, paymentInterval);\n        uint earlyWithdrawalFee = grossPayment * 1 / 100;\n        // uint earlyWithdrawalFee = PRBMathUD60x18.mul(grossPayment, withdrawalFee);\n\n        payment = SafeMath.sub(grossPayment, earlyWithdrawalFee, \"error - retry\");\n\n        } \n\n        address payable payee = employees[_address].employeeAddress;\n        erc20Balances[currency] -= payment;\n        \n        //set last day paid and last paid early to now\n        employees[_address].lastDayPaid = block.timestamp;\n        employees[_address].lastPaidEarly = block.timestamp;\n\n        //run payment\n\n        tokenContract.safeTransfer(payee, payment);\n        //add the payment amount to total earnings of the employee\n        emit employeePaid(_address, currency, payment);\n    }\n\n\n//run payment for a single employee\n    function payEmployee(address _address) public onlyOwner{\n    //these payment intervals and amounts will be very important for our whole application.\n\n        uint paymentInterval;\n        //use library to create a payment interval to multiply by\n        paymentInterval = PRBMathUD60x18.div(employees[_address].interval, 365);\n\n        uint intervalSeconds = employees[_address].interval * 86400;\n\n        //need to check if already paid via paidEarly() since the last time this function was called\n        //we need to store the number of days since this function was called in our employee struct\n\n        require (block.timestamp >= employees[_address].lastDayPaid + intervalSeconds);\n\n        address currency = employees[_address].currency;\n        ERC20 tokenContract = ERC20(currency);\n\n        uint payment;\n\n        \n        if (protocolFee > 0) {\n            //if protocol fee is turned on, send fee back to protocol before issuing payment\n            //consider switching order of operations here, or simply holding it in a separate variable to be claimed in bulk by the network\n            //would be ideal to NOT pass this gas payment along to users\n            uint feeTotal;\n            // check this math, may need to use safeMath or recalculate\n            uint grossPayment = PRBMathUD60x18.mul(employees[_address].salary, paymentInterval);\n            feeTotal = PRBMathUD60x18.mul(protocolFee, grossPayment);\n            payment = SafeMath.sub(PRBMathUD60x18.mul(employees[_address].salary, paymentInterval), feeTotal);\n            tokenContract.safeTransfer(protocolVault, feeTotal);\n        }\n\n        //use library to multiply by fraction\n        if (protocolFee == 0) {\n        payment = PRBMathUD60x18.mul(employees[_address].salary, paymentInterval);\n        } \n\n        address payable payee = employees[_address].employeeAddress;\n        erc20Balances[currency] -= payment;\n        \n        //set last day paid to now\n        employees[_address].lastDayPaid = block.timestamp;\n\n        tokenContract.safeTransfer(payee, payment);\n        //add the payment amount to total earnings of the employee\n        emit employeePaid(_address, currency, payment);\n    }\n\n    //pay employee one off payment - in event of user error or bonus\n    function sendOneOffPayment(address _address, uint _amount) public onlyOwner {\n\n        address currency = employees[_address].currency;\n        ERC20 tokenContract = ERC20(currency);\n\n        uint payment;\n\n        if (protocolFee > 0) {\n            //if protocol fee is turned on, send fee back to protocol before issuing payment\n            //consider switching order of operations here, or simply holding it in a separate variable to be claimed in bulk by the network\n            //would be ideal to NOT pass this gas payment along to users\n            uint feeTotal;\n            // check this math, may need to use safeMath or recalculate\n            feeTotal = protocolFee;\n            payment = SafeMath.sub(_amount, feeTotal);\n            tokenContract.safeTransfer(protocolVault, feeTotal);\n        }\n\n        //use library to multiply by fraction\n        if (protocolFee == 0) {\n        payment = _amount;\n        } \n\n        address payable payee = employees[_address].employeeAddress;\n        //can likely remove our erc20 balances mapping\n        erc20Balances[currency] -= payment;\n        \n\n        tokenContract.safeTransfer(payee, payment);\n        //add the payment amount to total earnings of the employee\n        emit employeePaid(_address, currency, payment);\n    }\n}",
  "sourcePath": "/Users/sam_flamini/devPortfolio/payrollApp/payrollApp/contracts/Company.sol",
  "compiler": {
    "name": "solc",
    "version": "0.8.6+commit.11564f7e.Emscripten.clang"
  },
  "schemaVersion": "3.4.1",
  "updatedAt": "2021-07-18T15:22:49.913Z",
  "networkType": "ethereum",
  "devdoc": {
    "kind": "dev",
    "methods": {
      "owner()": {
        "details": "Returns the address of the current owner."
      },
      "renounceOwnership()": {
        "details": "Leaves the contract without owner. It will not be possible to call `onlyOwner` functions anymore. Can only be called by the current owner. NOTE: Renouncing ownership will leave the contract without an owner, thereby removing any functionality that is only available to the owner."
      },
      "transferOwnership(address)": {
        "details": "Transfers ownership of the contract to a new account (`newOwner`). Can only be called by the current owner."
      }
    },
    "version": 1
  },
  "userdoc": {
    "kind": "user",
    "methods": {},
    "version": 1
  }
}