{
  "contractName": "CompanyRegistry",
  "abi": [
    {
      "inputs": [
        {
          "internalType": "address",
          "name": "_feeToSetter",
          "type": "address"
        }
      ],
      "stateMutability": "nonpayable",
      "type": "constructor"
    },
    {
      "anonymous": false,
      "inputs": [
        {
          "indexed": true,
          "internalType": "address",
          "name": "previousOwner",
          "type": "address"
        },
        {
          "indexed": true,
          "internalType": "address",
          "name": "newOwner",
          "type": "address"
        }
      ],
      "name": "OwnershipTransferred",
      "type": "event"
    },
    {
      "anonymous": false,
      "inputs": [
        {
          "indexed": true,
          "internalType": "address",
          "name": "_owner",
          "type": "address"
        },
        {
          "indexed": true,
          "internalType": "address",
          "name": "_companyAddress",
          "type": "address"
        },
        {
          "indexed": true,
          "internalType": "string",
          "name": "_companyName",
          "type": "string"
        }
      ],
      "name": "companyCreated",
      "type": "event"
    },
    {
      "anonymous": false,
      "inputs": [
        {
          "indexed": true,
          "internalType": "address",
          "name": "_newOwner",
          "type": "address"
        },
        {
          "indexed": true,
          "internalType": "address",
          "name": "_companyAddress",
          "type": "address"
        }
      ],
      "name": "newCompanyOwner",
      "type": "event"
    },
    {
      "inputs": [
        {
          "internalType": "uint256",
          "name": "",
          "type": "uint256"
        }
      ],
      "name": "companyList",
      "outputs": [
        {
          "internalType": "contract Company",
          "name": "",
          "type": "address"
        }
      ],
      "stateMutability": "view",
      "type": "function",
      "constant": true
    },
    {
      "inputs": [],
      "name": "feeTo",
      "outputs": [
        {
          "internalType": "address",
          "name": "",
          "type": "address"
        }
      ],
      "stateMutability": "view",
      "type": "function",
      "constant": true
    },
    {
      "inputs": [],
      "name": "feeToSetter",
      "outputs": [
        {
          "internalType": "address",
          "name": "",
          "type": "address"
        }
      ],
      "stateMutability": "view",
      "type": "function",
      "constant": true
    },
    {
      "inputs": [],
      "name": "idCounter",
      "outputs": [
        {
          "internalType": "uint256",
          "name": "",
          "type": "uint256"
        }
      ],
      "stateMutability": "view",
      "type": "function",
      "constant": true
    },
    {
      "inputs": [],
      "name": "owner",
      "outputs": [
        {
          "internalType": "address",
          "name": "",
          "type": "address"
        }
      ],
      "stateMutability": "view",
      "type": "function",
      "constant": true
    },
    {
      "inputs": [],
      "name": "renounceOwnership",
      "outputs": [],
      "stateMutability": "nonpayable",
      "type": "function"
    },
    {
      "inputs": [
        {
          "internalType": "address",
          "name": "newOwner",
          "type": "address"
        }
      ],
      "name": "transferOwnership",
      "outputs": [],
      "stateMutability": "nonpayable",
      "type": "function"
    },
    {
      "inputs": [],
      "name": "getFeeToSetter",
      "outputs": [
        {
          "internalType": "address",
          "name": "",
          "type": "address"
        }
      ],
      "stateMutability": "view",
      "type": "function",
      "constant": true
    },
    {
      "inputs": [
        {
          "internalType": "string",
          "name": "_name",
          "type": "string"
        }
      ],
      "name": "createCompany",
      "outputs": [],
      "stateMutability": "nonpayable",
      "type": "function"
    },
    {
      "inputs": [
        {
          "internalType": "address",
          "name": "_owner",
          "type": "address"
        }
      ],
      "name": "getCompanyAddress",
      "outputs": [
        {
          "internalType": "address",
          "name": "",
          "type": "address"
        }
      ],
      "stateMutability": "view",
      "type": "function",
      "constant": true
    },
    {
      "inputs": [],
      "name": "getAllCompanies",
      "outputs": [
        {
          "internalType": "address[]",
          "name": "",
          "type": "address[]"
        }
      ],
      "stateMutability": "view",
      "type": "function",
      "constant": true
    },
    {
      "inputs": [
        {
          "internalType": "address",
          "name": "_feeTo",
          "type": "address"
        }
      ],
      "name": "setFeeTo",
      "outputs": [],
      "stateMutability": "nonpayable",
      "type": "function"
    },
    {
      "inputs": [
        {
          "internalType": "address",
          "name": "_feeToSetter",
          "type": "address"
        }
      ],
      "name": "setFeeToSetter",
      "outputs": [],
      "stateMutability": "nonpayable",
      "type": "function"
    }
  ],
  "bytecode": "0x608060405260006005553480156200001657600080fd5b5060405162005ce138038062005ce183398181016040528101906200003c919062000199565b6200006e62000059620000b6640100000000026401000000009004565b620000be640100000000026401000000009004565b80600260006101000a81548173ffffffffffffffffffffffffffffffffffffffff021916908373ffffffffffffffffffffffffffffffffffffffff160217905550506200021e565b600033905090565b60008060009054906101000a900473ffffffffffffffffffffffffffffffffffffffff169050816000806101000a81548173ffffffffffffffffffffffffffffffffffffffff021916908373ffffffffffffffffffffffffffffffffffffffff1602179055508173ffffffffffffffffffffffffffffffffffffffff168173ffffffffffffffffffffffffffffffffffffffff167f8be0079c531659141344cd1fd0a4f28419497f9722a3daafe3b4186f6b6457e060405160405180910390a35050565b600081519050620001938162000204565b92915050565b600060208284031215620001b257620001b1620001ff565b5b6000620001c28482850162000182565b91505092915050565b6000620001d882620001df565b9050919050565b600073ffffffffffffffffffffffffffffffffffffffff82169050919050565b600080fd5b6200020f81620001cb565b81146200021b57600080fd5b50565b615ab3806200022e6000396000f3fe60806040523480156200001157600080fd5b5060043610620000ff576000357c010000000000000000000000000000000000000000000000000000000090048063a2e74af611620000b6578063f2fde38b116200008c578063f2fde38b1462000246578063f46901ed1462000266578063f4aa13021462000286578063fd7f611e14620002a857620000ff565b8063a2e74af614620001ce578063d0366e5514620001ee578063eb08ab28146200022457620000ff565b8063017e7e581462000104578063094b74151462000126578063408bf4c31462000148578063715018a6146200016a5780638da5cb5b14620001765780639230c0681462000198575b600080fd5b6200010e620002c8565b6040516200011d919062000e8e565b60405180910390f35b62000130620002ee565b6040516200013f919062000e8e565b60405180910390f35b6200015262000314565b60405162000161919062000eef565b60405180910390f35b620001746200042d565b005b62000180620004be565b6040516200018f919062000e8e565b60405180910390f35b620001b66004803603810190620001b0919062000c0b565b620004e7565b604051620001c5919062000e8e565b60405180910390f35b620001ec6004803603810190620001e6919062000c0b565b62000550565b005b6200020c600480360381019062000206919062000c8e565b62000627565b6040516200021b919062000f13565b60405180910390f35b6200022e62000667565b6040516200023d919062000f96565b60405180910390f35b6200026460048036038101906200025e919062000c0b565b6200066d565b005b6200028460048036038101906200027e919062000c0b565b62000771565b005b6200029062000848565b6040516200029f919062000e8e565b60405180910390f35b620002c66004803603810190620002c0919062000c3d565b62000872565b005b600160009054906101000a900473ffffffffffffffffffffffffffffffffffffffff1681565b600260009054906101000a900473ffffffffffffffffffffffffffffffffffffffff1681565b6060600060048054905067ffffffffffffffff8111156200033a5762000339620011ff565b5b604051908082528060200260200182016040528015620003695781602001602082028036833780820191505090505b50905060005b600480549050811015620004255760048181548110620003945762000393620011d0565b5b9060005260206000200160009054906101000a900473ffffffffffffffffffffffffffffffffffffffff16828281518110620003d557620003d4620011d0565b5b602002602001019073ffffffffffffffffffffffffffffffffffffffff16908173ffffffffffffffffffffffffffffffffffffffff168152505080806200041c9062001153565b9150506200036f565b508091505090565b6200043762000a85565b73ffffffffffffffffffffffffffffffffffffffff1662000457620004be565b73ffffffffffffffffffffffffffffffffffffffff1614620004b0576040517f08c379a0000000000000000000000000000000000000000000000000000000008152600401620004a79062000f74565b60405180910390fd5b620004bc600062000a8d565b565b60008060009054906101000a900473ffffffffffffffffffffffffffffffffffffffff16905090565b6000600360008373ffffffffffffffffffffffffffffffffffffffff1673ffffffffffffffffffffffffffffffffffffffff16815260200190815260200160002060009054906101000a900473ffffffffffffffffffffffffffffffffffffffff169050919050565b600260009054906101000a900473ffffffffffffffffffffffffffffffffffffffff1673ffffffffffffffffffffffffffffffffffffffff163373ffffffffffffffffffffffffffffffffffffffff1614620005e3576040517f08c379a0000000000000000000000000000000000000000000000000000000008152600401620005da9062000f52565b60405180910390fd5b80600260006101000a81548173ffffffffffffffffffffffffffffffffffffffff021916908373ffffffffffffffffffffffffffffffffffffffff16021790555050565b600481815481106200063857600080fd5b906000526020600020016000915054906101000a900473ffffffffffffffffffffffffffffffffffffffff1681565b60055481565b6200067762000a85565b73ffffffffffffffffffffffffffffffffffffffff1662000697620004be565b73ffffffffffffffffffffffffffffffffffffffff1614620006f0576040517f08c379a0000000000000000000000000000000000000000000000000000000008152600401620006e79062000f74565b60405180910390fd5b600073ffffffffffffffffffffffffffffffffffffffff168173ffffffffffffffffffffffffffffffffffffffff16141562000763576040517f08c379a00000000000000000000000000000000000000000000000000000000081526004016200075a9062000f30565b60405180910390fd5b6200076e8162000a8d565b50565b600260009054906101000a900473ffffffffffffffffffffffffffffffffffffffff1673ffffffffffffffffffffffffffffffffffffffff163373ffffffffffffffffffffffffffffffffffffffff161462000804576040517f08c379a0000000000000000000000000000000000000000000000000000000008152600401620007fb9062000f52565b60405180910390fd5b80600160006101000a81548173ffffffffffffffffffffffffffffffffffffffff021916908373ffffffffffffffffffffffffffffffffffffffff16021790555050565b6000600260009054906101000a900473ffffffffffffffffffffffffffffffffffffffff16905090565b60003360055483604051620008879062000b51565b620008959392919062000eab565b604051809103906000f080158015620008b2573d6000803e3d6000fd5b50905080600360003373ffffffffffffffffffffffffffffffffffffffff1673ffffffffffffffffffffffffffffffffffffffff16815260200190815260200160002060006101000a81548173ffffffffffffffffffffffffffffffffffffffff021916908373ffffffffffffffffffffffffffffffffffffffff1602179055506004819080600181540180825580915050600190039060005260206000200160009091909190916101000a81548173ffffffffffffffffffffffffffffffffffffffff021916908373ffffffffffffffffffffffffffffffffffffffff16021790555060056000815480929190620009ab9062001153565b919050555081604051620009c0919062000e75565b6040518091039020600360003373ffffffffffffffffffffffffffffffffffffffff1673ffffffffffffffffffffffffffffffffffffffff16815260200190815260200160002060009054906101000a900473ffffffffffffffffffffffffffffffffffffffff1673ffffffffffffffffffffffffffffffffffffffff163373ffffffffffffffffffffffffffffffffffffffff167f087400a4efca527a4d0b62d4d8b2c53e87c073ec20b407ba24ab577ce7e5c4ef60405160405180910390a45050565b600033905090565b60008060009054906101000a900473ffffffffffffffffffffffffffffffffffffffff169050816000806101000a81548173ffffffffffffffffffffffffffffffffffffffff021916908373ffffffffffffffffffffffffffffffffffffffff1602179055508173ffffffffffffffffffffffffffffffffffffffff168173ffffffffffffffffffffffffffffffffffffffff167f8be0079c531659141344cd1fd0a4f28419497f9722a3daafe3b4186f6b6457e060405160405180910390a35050565b614755806200132983390190565b600062000b7662000b708462000fdc565b62000fb3565b90508281526020810184848401111562000b955762000b9462001233565b5b62000ba2848285620010d8565b509392505050565b60008135905062000bbb81620012f4565b92915050565b600082601f83011262000bd95762000bd86200122e565b5b813562000beb84826020860162000b5f565b91505092915050565b60008135905062000c05816200130e565b92915050565b60006020828403121562000c245762000c236200123d565b5b600062000c348482850162000baa565b91505092915050565b60006020828403121562000c565762000c556200123d565b5b600082013567ffffffffffffffff81111562000c775762000c7662001238565b5b62000c858482850162000bc1565b91505092915050565b60006020828403121562000ca75762000ca66200123d565b5b600062000cb78482850162000bf4565b91505092915050565b600062000cce838362000cda565b60208301905092915050565b62000ce58162001072565b82525050565b62000cf68162001072565b82525050565b600062000d098262001022565b62000d15818562001045565b935062000d228362001012565b8060005b8381101562000d5957815162000d3d888262000cc0565b975062000d4a8362001038565b92505060018101905062000d26565b5085935050505092915050565b62000d7181620010b0565b82525050565b600062000d84826200102d565b62000d90818562001056565b935062000da2818560208601620010e7565b62000dad8162001242565b840191505092915050565b600062000dc5826200102d565b62000dd1818562001067565b935062000de3818560208601620010e7565b80840191505092915050565b600062000dfe60268362001056565b915062000e0b8262001253565b604082019050919050565b600062000e2560128362001056565b915062000e3282620012a2565b602082019050919050565b600062000e4c60208362001056565b915062000e5982620012cb565b602082019050919050565b62000e6f81620010a6565b82525050565b600062000e83828462000db8565b915081905092915050565b600060208201905062000ea5600083018462000ceb565b92915050565b600060608201905062000ec2600083018662000ceb565b62000ed1602083018562000e64565b818103604083015262000ee5818462000d77565b9050949350505050565b6000602082019050818103600083015262000f0b818462000cfc565b905092915050565b600060208201905062000f2a600083018462000d66565b92915050565b6000602082019050818103600083015262000f4b8162000def565b9050919050565b6000602082019050818103600083015262000f6d8162000e16565b9050919050565b6000602082019050818103600083015262000f8f8162000e3d565b9050919050565b600060208201905062000fad600083018462000e64565b92915050565b600062000fbf62000fd2565b905062000fcd82826200111d565b919050565b6000604051905090565b600067ffffffffffffffff82111562000ffa5762000ff9620011ff565b5b620010058262001242565b9050602081019050919050565b6000819050602082019050919050565b600081519050919050565b600081519050919050565b6000602082019050919050565b600082825260208201905092915050565b600082825260208201905092915050565b600081905092915050565b60006200107f8262001086565b9050919050565b600073ffffffffffffffffffffffffffffffffffffffff82169050919050565b6000819050919050565b6000620010bd82620010c4565b9050919050565b6000620010d18262001086565b9050919050565b82818337600083830152505050565b60005b8381101562001107578082015181840152602081019050620010ea565b8381111562001117576000848401525b50505050565b620011288262001242565b810181811067ffffffffffffffff821117156200114a5762001149620011ff565b5b80604052505050565b60006200116082620010a6565b91507fffffffffffffffffffffffffffffffffffffffffffffffffffffffffffffffff821415620011965762001195620011a1565b5b600182019050919050565b7f4e487b7100000000000000000000000000000000000000000000000000000000600052601160045260246000fd5b7f4e487b7100000000000000000000000000000000000000000000000000000000600052603260045260246000fd5b7f4e487b7100000000000000000000000000000000000000000000000000000000600052604160045260246000fd5b600080fd5b600080fd5b600080fd5b600080fd5b6000601f19601f8301169050919050565b7f4f776e61626c653a206e6577206f776e657220697320746865207a65726f206160008201527f6464726573730000000000000000000000000000000000000000000000000000602082015250565b7f4f70656e5061793a20464f5242494444454e0000000000000000000000000000600082015250565b7f4f776e61626c653a2063616c6c6572206973206e6f7420746865206f776e6572600082015250565b620012ff8162001072565b81146200130b57600080fd5b50565b6200131981620010a6565b81146200132557600080fd5b5056fe608060405260006003553480156200001657600080fd5b50604051620047553803806200475583398181016040528101906200003c919062000479565b6200006e62000059620000f7640100000000026401000000009004565b620000ff640100000000026401000000009004565b33600560006101000a81548173ffffffffffffffffffffffffffffffffffffffff021916908373ffffffffffffffffffffffffffffffffffffffff160217905550620000ce83620001c36401000000000262002a1a176401000000009004565b816002819055508060019080519060200190620000ed9291906200031d565b5050505062000805565b600033905090565b60008060009054906101000a900473ffffffffffffffffffffffffffffffffffffffff169050816000806101000a81548173ffffffffffffffffffffffffffffffffffffffff021916908373ffffffffffffffffffffffffffffffffffffffff1602179055508173ffffffffffffffffffffffffffffffffffffffff168173ffffffffffffffffffffffffffffffffffffffff167f8be0079c531659141344cd1fd0a4f28419497f9722a3daafe3b4186f6b6457e060405160405180910390a35050565b620001dc620000f7640100000000026401000000009004565b73ffffffffffffffffffffffffffffffffffffffff166200020b620002f4640100000000026401000000009004565b73ffffffffffffffffffffffffffffffffffffffff161462000264576040517f08c379a00000000000000000000000000000000000000000000000000000000081526004016200025b9062000564565b60405180910390fd5b600073ffffffffffffffffffffffffffffffffffffffff168173ffffffffffffffffffffffffffffffffffffffff161415620002d7576040517f08c379a0000000000000000000000000000000000000000000000000000000008152600401620002ce9062000542565b60405180910390fd5b620002f181620000ff640100000000026401000000009004565b50565b60008060009054906101000a900473ffffffffffffffffffffffffffffffffffffffff16905090565b8280546200032b906200066a565b90600052602060002090601f0160209004810192826200034f57600085556200039b565b82601f106200036a57805160ff19168380011785556200039b565b828001600101855582156200039b579182015b828111156200039a5782518255916020019190600101906200037d565b5b509050620003aa9190620003ae565b5090565b5b80821115620003c9576000816000905550600101620003af565b5090565b6000620003e4620003de84620005af565b62000586565b90508281526020810184848401111562000403576200040262000739565b5b6200041084828562000634565b509392505050565b6000815190506200042981620007d1565b92915050565b600082601f83011262000447576200044662000734565b5b815162000459848260208601620003cd565b91505092915050565b6000815190506200047381620007eb565b92915050565b60008060006060848603121562000495576200049462000743565b5b6000620004a58682870162000418565b9350506020620004b88682870162000462565b925050604084015167ffffffffffffffff811115620004dc57620004db6200073e565b5b620004ea868287016200042f565b9150509250925092565b600062000503602683620005e5565b9150620005108262000759565b604082019050919050565b60006200052a602083620005e5565b91506200053782620007a8565b602082019050919050565b600060208201905081810360008301526200055d81620004f4565b9050919050565b600060208201905081810360008301526200057f816200051b565b9050919050565b600062000592620005a5565b9050620005a08282620006a0565b919050565b6000604051905090565b600067ffffffffffffffff821115620005cd57620005cc62000705565b5b620005d88262000748565b9050602081019050919050565b600082825260208201905092915050565b600062000603826200060a565b9050919050565b600073ffffffffffffffffffffffffffffffffffffffff82169050919050565b6000819050919050565b60005b838110156200065457808201518184015260208101905062000637565b8381111562000664576000848401525b50505050565b600060028204905060018216806200068357607f821691505b602082108114156200069a5762000699620006d6565b5b50919050565b620006ab8262000748565b810181811067ffffffffffffffff82111715620006cd57620006cc62000705565b5b80604052505050565b7f4e487b7100000000000000000000000000000000000000000000000000000000600052602260045260246000fd5b7f4e487b7100000000000000000000000000000000000000000000000000000000600052604160045260246000fd5b600080fd5b600080fd5b600080fd5b600080fd5b6000601f19601f8301169050919050565b7f4f776e61626c653a206e6577206f776e657220697320746865207a65726f206160008201527f6464726573730000000000000000000000000000000000000000000000000000602082015250565b7f4f776e61626c653a2063616c6c6572206973206e6f7420746865206f776e6572600082015250565b620007dc81620005f6565b8114620007e857600080fd5b50565b620007f6816200062a565b81146200080257600080fd5b50565b613f4080620008156000396000f3fe6080604052600436106101d4576000357c010000000000000000000000000000000000000000000000000000000090048063893d20e811610109578063b357e23d116100a7578063c621277a11610081578063c621277a1461061d578063d067894714610646578063f2e8048314610688578063f2fde38b1461069f576101d4565b8063b357e23d14610589578063bbe46dfd146105b2578063c3b2d07a146105db576101d4565b806399fc451f116100e357806399fc451f146104bb5780639ec74878146104e45780639f14d7c214610521578063aa678f141461054c576101d4565b8063893d20e8146104285780638da5cb5b1461045357806396c7c9ac1461047e576101d4565b80636d146a5211610176578063715018a611610150578063715018a61461039257806372ec774b146103a9578063744bfe61146103d45780637b103999146103fd576101d4565b80636d146a52146103035780636e7c4ab11461032c5780636f5be0d614610355576101d4565b80632353c2fc116101b25780632353c2fc1461025657806323d954ca1461029357806343cfbd65146102af5780635738054e146102da576101d4565b806306fdde03146101d95780630d7129e8146102045780631f50ad161461022d575b600080fd5b3480156101e557600080fd5b506101ee6106c8565b6040516101fb9190613799565b60405180910390f35b34801561021057600080fd5b5061022b600480360381019061022691906132ec565b610756565b005b34801561023957600080fd5b50610254600480360381019061024f9190613265565b610a70565b005b34801561026257600080fd5b5061027d60048036038101906102789190613265565b610f58565b60405161028a91906138db565b60405180910390f35b6102ad60048036038101906102a891906133ed565b610fa4565b005b3480156102bb57600080fd5b506102c4611108565b6040516102d19190613799565b60405180910390f35b3480156102e657600080fd5b5061030160048036038101906102fc9190613353565b61119a565b005b34801561030f57600080fd5b5061032a60048036038101906103259190613353565b6112a4565b005b34801561033857600080fd5b50610353600480360381019061034e9190613265565b6113ae565b005b34801561036157600080fd5b5061037c60048036038101906103779190613265565b61155e565b60405161038991906138db565b60405180910390f35b34801561039e57600080fd5b506103a76115aa565b005b3480156103b557600080fd5b506103be611632565b6040516103cb9190613777565b60405180910390f35b3480156103e057600080fd5b506103fb60048036038101906103f691906133ed565b611744565b005b34801561040957600080fd5b506104126118a8565b60405161041f919061369b565b60405180910390f35b34801561043457600080fd5b5061043d6118ce565b60405161044a919061369b565b60405180910390f35b34801561045f57600080fd5b506104686118dd565b604051610475919061369b565b60405180910390f35b34801561048a57600080fd5b506104a560048036038101906104a091906132bf565b611906565b6040516104b291906138db565b60405180910390f35b3480156104c757600080fd5b506104e260048036038101906104dd9190613265565b611952565b005b3480156104f057600080fd5b5061050b60048036038101906105069190613265565b61195e565b60405161051891906138db565b60405180910390f35b34801561052d57600080fd5b506105366119a7565b60405161054391906138db565b60405180910390f35b34801561055857600080fd5b50610573600480360381019061056e9190613265565b6119b1565b604051610580919061369b565b60405180910390f35b34801561059557600080fd5b506105b060048036038101906105ab9190613353565b611a1d565b005b3480156105be57600080fd5b506105d960048036038101906105d49190613265565b611ccd565b005b3480156105e757600080fd5b5061060260048036038101906105fd91906133c0565b612269565b604051610614969594939291906136b6565b60405180910390f35b34801561062957600080fd5b50610644600480360381019061063f91906133ed565b6122f5565b005b34801561065257600080fd5b5061066d60048036038101906106689190613265565b61244d565b60405161067f969594939291906136b6565b60405180910390f35b34801561069457600080fd5b5061069d6124c9565b005b3480156106ab57600080fd5b506106c660048036038101906106c19190613265565b612a1a565b005b600180546106d590613b03565b80601f016020809104026020016040519081016040528092919081815260200182805461070190613b03565b801561074e5780601f106107235761010080835404028352916020019161074e565b820191906000526020600020905b81548152906001019060200180831161073157829003601f168201915b505050505081565b61075e612b12565b73ffffffffffffffffffffffffffffffffffffffff1661077c6118dd565b73ffffffffffffffffffffffffffffffffffffffff16146107d2576040517f08c379a00000000000000000000000000000000000000000000000000000000081526004016107c99061383b565b60405180910390fd5b60006040518060c001604052808673ffffffffffffffffffffffffffffffffffffffff1681526020018573ffffffffffffffffffffffffffffffffffffffff168152602001848152602001838152602001600081526020016000815250905080600760008773ffffffffffffffffffffffffffffffffffffffff1673ffffffffffffffffffffffffffffffffffffffff16815260200190815260200160002060008201518160000160006101000a81548173ffffffffffffffffffffffffffffffffffffffff021916908373ffffffffffffffffffffffffffffffffffffffff16021790555060208201518160010160006101000a81548173ffffffffffffffffffffffffffffffffffffffff021916908373ffffffffffffffffffffffffffffffffffffffff16021790555060408201518160020155606082015181600301556080820151816004015560a08201518160050155905050600881908060018154018082558091505060019003906000526020600020906006020160009091909190915060008201518160000160006101000a81548173ffffffffffffffffffffffffffffffffffffffff021916908373ffffffffffffffffffffffffffffffffffffffff16021790555060208201518160010160006101000a81548173ffffffffffffffffffffffffffffffffffffffff021916908373ffffffffffffffffffffffffffffffffffffffff16021790555060408201518160020155606082015181600301556080820151816004015560a082015181600501555050818473ffffffffffffffffffffffffffffffffffffffff168673ffffffffffffffffffffffffffffffffffffffff167f8299eb8267d570c486958c8ae09c384854d17cd9174fd1cb8dc8e355d062e2fe60405160405180910390a45050505050565b610a78612b12565b73ffffffffffffffffffffffffffffffffffffffff16610a966118dd565b73ffffffffffffffffffffffffffffffffffffffff1614610aec576040517f08c379a0000000000000000000000000000000000000000000000000000000008152600401610ae39061383b565b60405180910390fd5b6000610b3c600760008473ffffffffffffffffffffffffffffffffffffffff1673ffffffffffffffffffffffffffffffffffffffff1681526020019081526020016000206003015461016d612b1a565b9050600062015180600760008573ffffffffffffffffffffffffffffffffffffffff1673ffffffffffffffffffffffffffffffffffffffff16815260200190815260200160002060030154610b9191906139e8565b905080600760008573ffffffffffffffffffffffffffffffffffffffff1673ffffffffffffffffffffffffffffffffffffffff16815260200190815260200160002060040154610be19190613961565b421015610bed57600080fd5b6000600760008573ffffffffffffffffffffffffffffffffffffffff1673ffffffffffffffffffffffffffffffffffffffff16815260200190815260200160002060010160009054906101000a900473ffffffffffffffffffffffffffffffffffffffff16905060008190506000806003541115610d6b57600080610cb4600760008a73ffffffffffffffffffffffffffffffffffffffff1673ffffffffffffffffffffffffffffffffffffffff1681526020019081526020016000206002015488612b37565b9050610cc260035482612b37565b9150610d19610d13600760008b73ffffffffffffffffffffffffffffffffffffffff1673ffffffffffffffffffffffffffffffffffffffff1681526020019081526020016000206002015489612b37565b83612b4b565b9250610d68600460009054906101000a900473ffffffffffffffffffffffffffffffffffffffff16838673ffffffffffffffffffffffffffffffffffffffff16612b619092919063ffffffff16565b50505b60006003541415610dc557610dc2600760008873ffffffffffffffffffffffffffffffffffffffff1673ffffffffffffffffffffffffffffffffffffffff1681526020019081526020016000206002015486612b37565b90505b6000600760008873ffffffffffffffffffffffffffffffffffffffff1673ffffffffffffffffffffffffffffffffffffffff16815260200190815260200160002060000160009054906101000a900473ffffffffffffffffffffffffffffffffffffffff16905081600660008673ffffffffffffffffffffffffffffffffffffffff1673ffffffffffffffffffffffffffffffffffffffff1681526020019081526020016000206000828254610e7b9190613a42565b9250508190555042600760008973ffffffffffffffffffffffffffffffffffffffff1673ffffffffffffffffffffffffffffffffffffffff16815260200190815260200160002060040181905550610ef481838573ffffffffffffffffffffffffffffffffffffffff16612b619092919063ffffffff16565b818473ffffffffffffffffffffffffffffffffffffffff168873ffffffffffffffffffffffffffffffffffffffff167f8932c4c89ad779d7d0ca58f0cef653239a672137bd89097d4ec99eff9e88428260405160405180910390a450505050505050565b6000600760008373ffffffffffffffffffffffffffffffffffffffff1673ffffffffffffffffffffffffffffffffffffffff168152602001908152602001600020600401549050919050565b610fac612b12565b73ffffffffffffffffffffffffffffffffffffffff16610fca6118dd565b73ffffffffffffffffffffffffffffffffffffffff1614611020576040517f08c379a00000000000000000000000000000000000000000000000000000000081526004016110179061383b565b60405180910390fd5b60008190506110523330858473ffffffffffffffffffffffffffffffffffffffff16612c03909392919063ffffffff16565b82600660008473ffffffffffffffffffffffffffffffffffffffff1673ffffffffffffffffffffffffffffffffffffffff16815260200190815260200160002060008282546110a19190613961565b92505081905550828273ffffffffffffffffffffffffffffffffffffffff163073ffffffffffffffffffffffffffffffffffffffff167f2b3a72294226d67c14ef039ea7ff97706ea2cb96eb55e8f99996198ac053c79060405160405180910390a4505050565b60606001805461111790613b03565b80601f016020809104026020016040519081016040528092919081815260200182805461114390613b03565b80156111905780601f1061116557610100808354040283529160200191611190565b820191906000526020600020905b81548152906001019060200180831161117357829003601f168201915b5050505050905090565b6111a2612b12565b73ffffffffffffffffffffffffffffffffffffffff166111c06118dd565b73ffffffffffffffffffffffffffffffffffffffff1614611216576040517f08c379a000000000000000000000000000000000000000000000000000000000815260040161120d9061383b565b60405180910390fd5b60008111611259576040517f08c379a00000000000000000000000000000000000000000000000000000000081526004016112509061385b565b60405180910390fd5b80600760008473ffffffffffffffffffffffffffffffffffffffff1673ffffffffffffffffffffffffffffffffffffffff168152602001908152602001600020600301819055505050565b6112ac612b12565b73ffffffffffffffffffffffffffffffffffffffff166112ca6118dd565b73ffffffffffffffffffffffffffffffffffffffff1614611320576040517f08c379a00000000000000000000000000000000000000000000000000000000081526004016113179061383b565b60405180910390fd5b60008111611363576040517f08c379a000000000000000000000000000000000000000000000000000000000815260040161135a906137bb565b60405180910390fd5b80600760008473ffffffffffffffffffffffffffffffffffffffff1673ffffffffffffffffffffffffffffffffffffffff168152602001908152602001600020600201819055505050565b6113b6612b12565b73ffffffffffffffffffffffffffffffffffffffff166113d46118dd565b73ffffffffffffffffffffffffffffffffffffffff161461142a576040517f08c379a00000000000000000000000000000000000000000000000000000000081526004016114219061383b565b60405180910390fd5b60005b60088054905081101561155a578173ffffffffffffffffffffffffffffffffffffffff166008828154811061146557611464613c0b565b5b906000526020600020906006020160000160009054906101000a900473ffffffffffffffffffffffffffffffffffffffff1673ffffffffffffffffffffffffffffffffffffffff16141561154757600881815481106114c7576114c6613c0b565b5b9060005260206000209060060201600080820160006101000a81549073ffffffffffffffffffffffffffffffffffffffff02191690556001820160006101000a81549073ffffffffffffffffffffffffffffffffffffffff0219169055600282016000905560038201600090556004820160009055600582016000905550505b808061155290613b35565b91505061142d565b5050565b6000600760008373ffffffffffffffffffffffffffffffffffffffff1673ffffffffffffffffffffffffffffffffffffffff168152602001908152602001600020600201549050919050565b6115b2612b12565b73ffffffffffffffffffffffffffffffffffffffff166115d06118dd565b73ffffffffffffffffffffffffffffffffffffffff1614611626576040517f08c379a000000000000000000000000000000000000000000000000000000000815260040161161d9061383b565b60405180910390fd5b6116306000612ca8565b565b6060600060088054905067ffffffffffffffff81111561165557611654613c3a565b5b6040519080825280602002602001820160405280156116835781602001602082028036833780820191505090505b50905060005b60088054905081101561173c57600881815481106116aa576116a9613c0b565b5b906000526020600020906006020160000160009054906101000a900473ffffffffffffffffffffffffffffffffffffffff168282815181106116ef576116ee613c0b565b5b602002602001019073ffffffffffffffffffffffffffffffffffffffff16908173ffffffffffffffffffffffffffffffffffffffff1681525050808061173490613b35565b915050611689565b508091505090565b61174c612b12565b73ffffffffffffffffffffffffffffffffffffffff1661176a6118dd565b73ffffffffffffffffffffffffffffffffffffffff16146117c0576040517f08c379a00000000000000000000000000000000000000000000000000000000081526004016117b79061383b565b60405180910390fd5b600081905082600660008473ffffffffffffffffffffffffffffffffffffffff1673ffffffffffffffffffffffffffffffffffffffff16815260200190815260200160002060008282546118149190613a42565b9250508190555060006118256118dd565b905061185281858473ffffffffffffffffffffffffffffffffffffffff16612b619092919063ffffffff16565b3073ffffffffffffffffffffffffffffffffffffffff167fce7b627b3830179bde4b610048f5cffbed187ff14e09e83edfad43cead2b1747848660405161189a92919061374e565b60405180910390a250505050565b600560009054906101000a900473ffffffffffffffffffffffffffffffffffffffff1681565b60006118d86118dd565b905090565b60008060009054906101000a900473ffffffffffffffffffffffffffffffffffffffff16905090565b6000600760008373ffffffffffffffffffffffffffffffffffffffff1673ffffffffffffffffffffffffffffffffffffffff168152602001908152602001600020600301549050919050565b61195b81612a1a565b50565b6000600660008373ffffffffffffffffffffffffffffffffffffffff1673ffffffffffffffffffffffffffffffffffffffff168152602001908152602001600020549050919050565b6000600254905090565b6000600760008373ffffffffffffffffffffffffffffffffffffffff1673ffffffffffffffffffffffffffffffffffffffff16815260200190815260200160002060010160009054906101000a900473ffffffffffffffffffffffffffffffffffffffff169050919050565b611a25612b12565b73ffffffffffffffffffffffffffffffffffffffff16611a436118dd565b73ffffffffffffffffffffffffffffffffffffffff1614611a99576040517f08c379a0000000000000000000000000000000000000000000000000000000008152600401611a909061383b565b60405180910390fd5b6000600760008473ffffffffffffffffffffffffffffffffffffffff1673ffffffffffffffffffffffffffffffffffffffff16815260200190815260200160002060010160009054906101000a900473ffffffffffffffffffffffffffffffffffffffff16905060008190506000806003541115611b735760006003549050611b228582612b4b565b9150611b71600460009054906101000a900473ffffffffffffffffffffffffffffffffffffffff16828573ffffffffffffffffffffffffffffffffffffffff16612b619092919063ffffffff16565b505b60006003541415611b82578390505b6000600760008773ffffffffffffffffffffffffffffffffffffffff1673ffffffffffffffffffffffffffffffffffffffff16815260200190815260200160002060000160009054906101000a900473ffffffffffffffffffffffffffffffffffffffff16905081600660008673ffffffffffffffffffffffffffffffffffffffff1673ffffffffffffffffffffffffffffffffffffffff1681526020019081526020016000206000828254611c389190613a42565b92505081905550611c6a81838573ffffffffffffffffffffffffffffffffffffffff16612b619092919063ffffffff16565b818473ffffffffffffffffffffffffffffffffffffffff168773ffffffffffffffffffffffffffffffffffffffff167f8932c4c89ad779d7d0ca58f0cef653239a672137bd89097d4ec99eff9e88428260405160405180910390a4505050505050565b3373ffffffffffffffffffffffffffffffffffffffff168173ffffffffffffffffffffffffffffffffffffffff1614611d3b576040517f08c379a0000000000000000000000000000000000000000000000000000000008152600401611d32906137fb565b60405180910390fd5b6000611d8b600760008473ffffffffffffffffffffffffffffffffffffffff1673ffffffffffffffffffffffffffffffffffffffff1681526020019081526020016000206003015461016d612b1a565b9050600062015180600760008573ffffffffffffffffffffffffffffffffffffffff1673ffffffffffffffffffffffffffffffffffffffff16815260200190815260200160002060030154611de091906139e8565b905080600760008573ffffffffffffffffffffffffffffffffffffffff1673ffffffffffffffffffffffffffffffffffffffff16815260200190815260200160002060050154611e309190613961565b421015611e72576040517f08c379a0000000000000000000000000000000000000000000000000000000008152600401611e69906138bb565b60405180910390fd5b6000600760008573ffffffffffffffffffffffffffffffffffffffff1673ffffffffffffffffffffffffffffffffffffffff16815260200190815260200160002060010160009054906101000a900473ffffffffffffffffffffffffffffffffffffffff16905060008190506000806003541115611fd257600080611f39600760008a73ffffffffffffffffffffffffffffffffffffffff1673ffffffffffffffffffffffffffffffffffffffff1681526020019081526020016000206002015488612b37565b905060006064600183611f4c91906139e8565b611f5691906139b7565b90506000611f6660035484612b37565b9050611f728183612d6c565b9350611f7e8385612b4b565b9450611fcd600460009054906101000a900473ffffffffffffffffffffffffffffffffffffffff16858873ffffffffffffffffffffffffffffffffffffffff16612b619092919063ffffffff16565b505050505b6000600354141561208f57600061202b600760008973ffffffffffffffffffffffffffffffffffffffff1673ffffffffffffffffffffffffffffffffffffffff1681526020019081526020016000206002015487612b37565b90506000606460018361203e91906139e8565b61204891906139b7565b905061208a82826040518060400160405280600d81526020017f6572726f72202d20726574727900000000000000000000000000000000000000815250612d82565b925050505b6000600760008873ffffffffffffffffffffffffffffffffffffffff1673ffffffffffffffffffffffffffffffffffffffff16815260200190815260200160002060000160009054906101000a900473ffffffffffffffffffffffffffffffffffffffff16905081600660008673ffffffffffffffffffffffffffffffffffffffff1673ffffffffffffffffffffffffffffffffffffffff16815260200190815260200160002060008282546121459190613a42565b9250508190555042600760008973ffffffffffffffffffffffffffffffffffffffff1673ffffffffffffffffffffffffffffffffffffffff1681526020019081526020016000206004018190555042600760008973ffffffffffffffffffffffffffffffffffffffff1673ffffffffffffffffffffffffffffffffffffffff1681526020019081526020016000206005018190555061220581838573ffffffffffffffffffffffffffffffffffffffff16612b619092919063ffffffff16565b818473ffffffffffffffffffffffffffffffffffffffff168873ffffffffffffffffffffffffffffffffffffffff167f8932c4c89ad779d7d0ca58f0cef653239a672137bd89097d4ec99eff9e88428260405160405180910390a450505050505050565b6008818154811061227957600080fd5b90600052602060002090600602016000915090508060000160009054906101000a900473ffffffffffffffffffffffffffffffffffffffff16908060010160009054906101000a900473ffffffffffffffffffffffffffffffffffffffff16908060020154908060030154908060040154908060050154905086565b6000600560009054906101000a900473ffffffffffffffffffffffffffffffffffffffff16905060008173ffffffffffffffffffffffffffffffffffffffff1663f4aa13026040518163ffffffff167c010000000000000000000000000000000000000000000000000000000002815260040160206040518083038186803b15801561238057600080fd5b505afa158015612394573d6000803e3d6000fd5b505050506040513d601f19601f820116820180604052508101906123b89190613292565b90508073ffffffffffffffffffffffffffffffffffffffff163373ffffffffffffffffffffffffffffffffffffffff16146123f257600080fd5b6127108461240091906139b7565b60038190555082600460006101000a81548173ffffffffffffffffffffffffffffffffffffffff021916908373ffffffffffffffffffffffffffffffffffffffff16021790555050505050565b60076020528060005260406000206000915090508060000160009054906101000a900473ffffffffffffffffffffffffffffffffffffffff16908060010160009054906101000a900473ffffffffffffffffffffffffffffffffffffffff16908060020154908060030154908060040154908060050154905086565b6124d1612b12565b73ffffffffffffffffffffffffffffffffffffffff166124ef6118dd565b73ffffffffffffffffffffffffffffffffffffffff1614612545576040517f08c379a000000000000000000000000000000000000000000000000000000000815260040161253c9061383b565b60405180910390fd5b60005b600880549050811015612a175760006008828154811061256b5761256a613c0b565b5b906000526020600020906006020160000160009054906101000a900473ffffffffffffffffffffffffffffffffffffffff16905060006125ef600760008473ffffffffffffffffffffffffffffffffffffffff1673ffffffffffffffffffffffffffffffffffffffff1681526020019081526020016000206003015461016d612b1a565b9050600062015180600760008573ffffffffffffffffffffffffffffffffffffffff1673ffffffffffffffffffffffffffffffffffffffff1681526020019081526020016000206003015461264491906139e8565b905080600760008573ffffffffffffffffffffffffffffffffffffffff1673ffffffffffffffffffffffffffffffffffffffff168152602001908152602001600020600401546126949190613961565b4210612a01576000600760008573ffffffffffffffffffffffffffffffffffffffff1673ffffffffffffffffffffffffffffffffffffffff16815260200190815260200160002060010160009054906101000a900473ffffffffffffffffffffffffffffffffffffffff1690506000819050600080600354111561281857600080612761600760008a73ffffffffffffffffffffffffffffffffffffffff1673ffffffffffffffffffffffffffffffffffffffff1681526020019081526020016000206002015488612b37565b905061276f60035482612b37565b91506127c66127c0600760008b73ffffffffffffffffffffffffffffffffffffffff1673ffffffffffffffffffffffffffffffffffffffff1681526020019081526020016000206002015489612b37565b83612b4b565b9250612815600460009054906101000a900473ffffffffffffffffffffffffffffffffffffffff16838673ffffffffffffffffffffffffffffffffffffffff16612b619092919063ffffffff16565b50505b600060035414156128725761286f600760008873ffffffffffffffffffffffffffffffffffffffff1673ffffffffffffffffffffffffffffffffffffffff1681526020019081526020016000206002015486612b37565b90505b6000600760008873ffffffffffffffffffffffffffffffffffffffff1673ffffffffffffffffffffffffffffffffffffffff16815260200190815260200160002060000160009054906101000a900473ffffffffffffffffffffffffffffffffffffffff16905081600660008673ffffffffffffffffffffffffffffffffffffffff1673ffffffffffffffffffffffffffffffffffffffff16815260200190815260200160002060008282546129289190613a42565b9250508190555042600760008973ffffffffffffffffffffffffffffffffffffffff1673ffffffffffffffffffffffffffffffffffffffff168152602001908152602001600020600401819055506129a181838573ffffffffffffffffffffffffffffffffffffffff16612b619092919063ffffffff16565b818473ffffffffffffffffffffffffffffffffffffffff168873ffffffffffffffffffffffffffffffffffffffff167f8932c4c89ad779d7d0ca58f0cef653239a672137bd89097d4ec99eff9e88428260405160405180910390a4505050505b5050508080612a0f90613b35565b915050612548565b50565b612a22612b12565b73ffffffffffffffffffffffffffffffffffffffff16612a406118dd565b73ffffffffffffffffffffffffffffffffffffffff1614612a96576040517f08c379a0000000000000000000000000000000000000000000000000000000008152600401612a8d9061383b565b60405180910390fd5b600073ffffffffffffffffffffffffffffffffffffffff168173ffffffffffffffffffffffffffffffffffffffff161415612b06576040517f08c379a0000000000000000000000000000000000000000000000000000000008152600401612afd906137db565b60405180910390fd5b612b0f81612ca8565b50565b600033905090565b6000612b2f83670de0b6b3a764000084612dd7565b905092915050565b6000612b438383612eb2565b905092915050565b60008183612b599190613a42565b905092915050565b612bfe8363a9059cbb7c0100000000000000000000000000000000000000000000000000000000028484604051602401612b9c92919061374e565b604051602081830303815290604052907bffffffffffffffffffffffffffffffffffffffffffffffffffffffff19166020820180517bffffffffffffffffffffffffffffffffffffffffffffffffffffffff8381831617835250505050612f78565b505050565b612ca2846323b872dd7c010000000000000000000000000000000000000000000000000000000002858585604051602401612c4093929190613717565b604051602081830303815290604052907bffffffffffffffffffffffffffffffffffffffffffffffffffffffff19166020820180517bffffffffffffffffffffffffffffffffffffffffffffffffffffffff8381831617835250505050612f78565b50505050565b60008060009054906101000a900473ffffffffffffffffffffffffffffffffffffffff169050816000806101000a81548173ffffffffffffffffffffffffffffffffffffffff021916908373ffffffffffffffffffffffffffffffffffffffff1602179055508173ffffffffffffffffffffffffffffffffffffffff168173ffffffffffffffffffffffffffffffffffffffff167f8be0079c531659141344cd1fd0a4f28419497f9722a3daafe3b4186f6b6457e060405160405180910390a35050565b60008183612d7a9190613961565b905092915050565b6000838311158290612dca576040517f08c379a0000000000000000000000000000000000000000000000000000000008152600401612dc19190613799565b60405180910390fd5b5082840390509392505050565b600080600080198587098587029250828110838203039150506000811415612e125760008411612e0657600080fd5b83820492505050612eab565b808411612e1e57600080fd5b60008486880990508281118203915080830392506000600186190186169050808604955080840493506001818260000304019050808302841793506000600287600302189050808702600203810290508087026002038102905080870260020381029050808702600203810290508087026002038102905080870260020381029050808502955050505050505b9392505050565b60008060008019848609848602925082811083820303915050600080670de0b6b3a764000086880991506706f05b59d3b1ffff821190506000831415612f185780670de0b6b3a76400008581612f0b57612f0a613bad565b5b0401945050505050612f72565b82670de0b6b3a764000011612f2c57600080fd5b807faccb18165bd6fe31ae1cf318dc5b51eee0e1ba569b88cd74c1773b91fac1066960016204000080600003040186851186030262040000858803041702019450505050505b92915050565b6000612fda826040518060400160405280602081526020017f5361666545524332303a206c6f772d6c6576656c2063616c6c206661696c65648152508573ffffffffffffffffffffffffffffffffffffffff1661303f9092919063ffffffff16565b905060008151111561303a5780806020019051810190612ffa9190613393565b613039576040517f08c379a00000000000000000000000000000000000000000000000000000000081526004016130309061389b565b60405180910390fd5b5b505050565b606061304e8484600085613057565b90509392505050565b6060823073ffffffffffffffffffffffffffffffffffffffff163110156130b3576040517f08c379a00000000000000000000000000000000000000000000000000000000081526004016130aa9061381b565b60405180910390fd5b6130bc85613182565b6130fb576040517f08c379a00000000000000000000000000000000000000000000000000000000081526004016130f29061387b565b60405180910390fd5b6000808673ffffffffffffffffffffffffffffffffffffffff1685876040516131249190613684565b60006040518083038185875af1925050503d8060008114613161576040519150601f19603f3d011682016040523d82523d6000602084013e613166565b606091505b5091509150613176828286613195565b92505050949350505050565b600080823b905060008111915050919050565b606083156131a5578290506131f5565b6000835111156131b85782518084602001fd5b816040517f08c379a00000000000000000000000000000000000000000000000000000000081526004016131ec9190613799565b60405180910390fd5b9392505050565b60008135905061320b81613eae565b92915050565b60008151905061322081613eae565b92915050565b60008135905061323581613ec5565b92915050565b60008151905061324a81613edc565b92915050565b60008135905061325f81613ef3565b92915050565b60006020828403121561327b5761327a613c69565b5b6000613289848285016131fc565b91505092915050565b6000602082840312156132a8576132a7613c69565b5b60006132b684828501613211565b91505092915050565b6000602082840312156132d5576132d4613c69565b5b60006132e384828501613226565b91505092915050565b6000806000806080858703121561330657613305613c69565b5b600061331487828801613226565b9450506020613325878288016131fc565b935050604061333687828801613250565b925050606061334787828801613250565b91505092959194509250565b6000806040838503121561336a57613369613c69565b5b6000613378858286016131fc565b925050602061338985828601613250565b9150509250929050565b6000602082840312156133a9576133a8613c69565b5b60006133b78482850161323b565b91505092915050565b6000602082840312156133d6576133d5613c69565b5b60006133e484828501613250565b91505092915050565b6000806040838503121561340457613403613c69565b5b600061341285828601613250565b9250506020613423858286016131fc565b9150509250929050565b60006134398383613454565b60208301905092915050565b61344e81613a88565b82525050565b61345d81613a76565b82525050565b61346c81613a76565b82525050565b600061347d82613906565b6134878185613934565b9350613492836138f6565b8060005b838110156134c35781516134aa888261342d565b97506134b583613927565b925050600181019050613496565b5085935050505092915050565b60006134db82613911565b6134e58185613945565b93506134f5818560208601613ad0565b80840191505092915050565b600061350c8261391c565b6135168185613950565b9350613526818560208601613ad0565b61352f81613c6e565b840191505092915050565b6000613547601d83613950565b915061355282613c7f565b602082019050919050565b600061356a602683613950565b915061357582613ca8565b604082019050919050565b600061358d603b83613950565b915061359882613cf7565b604082019050919050565b60006135b0602683613950565b91506135bb82613d46565b604082019050919050565b60006135d3602083613950565b91506135de82613d95565b602082019050919050565b60006135f6601f83613950565b915061360182613dbe565b602082019050919050565b6000613619601d83613950565b915061362482613de7565b602082019050919050565b600061363c602a83613950565b915061364782613e10565b604082019050919050565b600061365f602f83613950565b915061366a82613e5f565b604082019050919050565b61367e81613ac6565b82525050565b600061369082846134d0565b915081905092915050565b60006020820190506136b06000830184613463565b92915050565b600060c0820190506136cb6000830189613445565b6136d86020830188613463565b6136e56040830187613675565b6136f26060830186613675565b6136ff6080830185613675565b61370c60a0830184613675565b979650505050505050565b600060608201905061372c6000830186613463565b6137396020830185613463565b6137466040830184613675565b949350505050565b60006040820190506137636000830185613463565b6137706020830184613675565b9392505050565b600060208201905081810360008301526137918184613472565b905092915050565b600060208201905081810360008301526137b38184613501565b905092915050565b600060208201905081810360008301526137d48161353a565b9050919050565b600060208201905081810360008301526137f48161355d565b9050919050565b6000602082019050818103600083015261381481613580565b9050919050565b60006020820190508181036000830152613834816135a3565b9050919050565b60006020820190508181036000830152613854816135c6565b9050919050565b60006020820190508181036000830152613874816135e9565b9050919050565b600060208201905081810360008301526138948161360c565b9050919050565b600060208201905081810360008301526138b48161362f565b9050919050565b600060208201905081810360008301526138d481613652565b9050919050565b60006020820190506138f06000830184613675565b92915050565b6000819050602082019050919050565b600081519050919050565b600081519050919050565b600081519050919050565b6000602082019050919050565b600082825260208201905092915050565b600081905092915050565b600082825260208201905092915050565b600061396c82613ac6565b915061397783613ac6565b9250827fffffffffffffffffffffffffffffffffffffffffffffffffffffffffffffffff038211156139ac576139ab613b7e565b5b828201905092915050565b60006139c282613ac6565b91506139cd83613ac6565b9250826139dd576139dc613bad565b5b828204905092915050565b60006139f382613ac6565b91506139fe83613ac6565b9250817fffffffffffffffffffffffffffffffffffffffffffffffffffffffffffffffff0483118215151615613a3757613a36613b7e565b5b828202905092915050565b6000613a4d82613ac6565b9150613a5883613ac6565b925082821015613a6b57613a6a613b7e565b5b828203905092915050565b6000613a8182613aa6565b9050919050565b6000613a9382613aa6565b9050919050565b60008115159050919050565b600073ffffffffffffffffffffffffffffffffffffffff82169050919050565b6000819050919050565b60005b83811015613aee578082015181840152602081019050613ad3565b83811115613afd576000848401525b50505050565b60006002820490506001821680613b1b57607f821691505b60208210811415613b2f57613b2e613bdc565b5b50919050565b6000613b4082613ac6565b91507fffffffffffffffffffffffffffffffffffffffffffffffffffffffffffffffff821415613b7357613b72613b7e565b5b600182019050919050565b7f4e487b7100000000000000000000000000000000000000000000000000000000600052601160045260246000fd5b7f4e487b7100000000000000000000000000000000000000000000000000000000600052601260045260246000fd5b7f4e487b7100000000000000000000000000000000000000000000000000000000600052602260045260246000fd5b7f4e487b7100000000000000000000000000000000000000000000000000000000600052603260045260246000fd5b7f4e487b7100000000000000000000000000000000000000000000000000000000600052604160045260246000fd5b600080fd5b6000601f19601f8301169050919050565b7f53616c617279206d7573742062652067726561746572207468616e2030000000600082015250565b7f4f776e61626c653a206e6577206f776e657220697320746865207a65726f206160008201527f6464726573730000000000000000000000000000000000000000000000000000602082015250565b7f746869732066756e6374696f6e206d6179206f6e6c792062652063616c6c656460008201527f20627920746865207265737065637469766520656d706c6f7965650000000000602082015250565b7f416464726573733a20696e73756666696369656e742062616c616e636520666f60008201527f722063616c6c0000000000000000000000000000000000000000000000000000602082015250565b7f4f776e61626c653a2063616c6c6572206973206e6f7420746865206f776e6572600082015250565b7f496e74657276616c206d7573742062652067726561746572207468616e203000600082015250565b7f416464726573733a2063616c6c20746f206e6f6e2d636f6e7472616374000000600082015250565b7f5361666545524332303a204552433230206f7065726174696f6e20646964206e60008201527f6f74207375636365656400000000000000000000000000000000000000000000602082015250565b7f656d706c6f7965652063616e206f6e6c79206765742070616964206f6e20736560008201527f742074696d6520696e74657276616c0000000000000000000000000000000000602082015250565b613eb781613a76565b8114613ec257600080fd5b50565b613ece81613a88565b8114613ed957600080fd5b50565b613ee581613a9a565b8114613ef057600080fd5b50565b613efc81613ac6565b8114613f0757600080fd5b5056fea2646970667358221220227fb3382e49b16c3a1a12632e3bfebd53da2eec056e222f306cdd0cdddfabc464736f6c63430008060033a2646970667358221220824f1cb182eca4b2bdc4b0edb12bd132d15b62db1da1266b80213f91d7aad4e764736f6c63430008060033",
  "immutableReferences": {},
  "source": "// SPDX-License-Identifier: GPL-3.0\n\npragma solidity ^0.8.0;\n\nimport \"./Company.sol\";\nimport \"./utils/Ownable.sol\";\n\ncontract CompanyRegistry is Ownable{\n\n    address public feeTo;\n    address public feeToSetter;\n\n    constructor(address _feeToSetter) {\n        feeToSetter = _feeToSetter;\n    }\n\n    //map owner address to company address\n    mapping (address => address) companies;\n    // mapping (uint => address) idToOwner;\n    //creating this array to make it possible to turn on protocol fee\n    Company[] public companyList;\n    // address[] public companyAddresses;\n    uint256 public idCounter = 0;\n    \n    event companyCreated(address indexed _owner, address indexed _companyAddress, string indexed _companyName);\n    event newCompanyOwner(address indexed _newOwner, address indexed _companyAddress);\n\n    function getFeeToSetter() public view returns (address) {\n        return feeToSetter;\n    }\n\n    function createCompany(string memory _name) public {\n        //should prob prevent an owner from owning more than one company at a time\n        Company newCompany = new Company(msg.sender, idCounter, _name);\n        // newCompany.initialize(msg.sender, idCounter, _name);\n        companies[msg.sender] = address(newCompany);\n        //prob inefficient, rework\n        companyList.push(newCompany);\n        // companyAddresses.push(address(newCompany));\n        idCounter++;\n        //for some reason - this looks like it might be creating a new company registry contract, instead of a company contract\n        // address newCompanyAddress = address(newCompany);\n        emit companyCreated(msg.sender, companies[msg.sender], _name);\n    }\n\n    function getCompanyAddress(address _owner) public view returns (address) {\n        return address(companies[_owner]);\n    }\n\n    function getAllCompanies() public view returns (address[] memory) {\n        address[] memory list = new address[](companyList.length);\n        for (uint i; i < companyList.length; i++) {\n            //return the company address\n            list[i] = (address(companyList[i]));\n        }\n        return list;\n    }\n\n    function setFeeTo(address _feeTo) external {\n        require(msg.sender == feeToSetter, 'OpenPay: FORBIDDEN');\n        feeTo = _feeTo;\n    }\n\n    function setFeeToSetter(address _feeToSetter) external {\n        require(msg.sender == feeToSetter, 'OpenPay: FORBIDDEN');\n        feeToSetter = _feeToSetter;\n    }\n\n\n//ensure that we're able to make this require statement work properly\n//this is very important\n//     function changeOwner(address _newOwner, uint _companyId) public {\n//         //this isn't working because the msg.sender is the contract, not the owner when calling _changeOwner \n//         require(companies[_companyId].owner() == msg.sender);\n//         companies[_companyId]._changeOwner(msg.sender, _newOwner);\n//         address companyAddress = address(companies[_companyId]);\n//         emit newCompanyOwner(_newOwner, companyAddress);\n       \n//     }\n}",
  "sourcePath": "/Users/sam_flamini/devPortfolio/payrollApp/payrollApp/contracts/CompanyRegistry.sol",
  "compiler": {
    "name": "solc",
    "version": "0.8.6+commit.11564f7e.Emscripten.clang"
  },
  "schemaVersion": "3.4.1",
  "updatedAt": "2021-08-05T16:44:38.662Z",
  "networkType": "ethereum",
  "devdoc": {
    "kind": "dev",
    "methods": {
      "owner()": {
        "details": "Returns the address of the current owner."
      },
      "renounceOwnership()": {
        "details": "Leaves the contract without owner. It will not be possible to call `onlyOwner` functions anymore. Can only be called by the current owner. NOTE: Renouncing ownership will leave the contract without an owner, thereby removing any functionality that is only available to the owner."
      },
      "transferOwnership(address)": {
        "details": "Transfers ownership of the contract to a new account (`newOwner`). Can only be called by the current owner."
      }
    },
    "version": 1
  },
  "userdoc": {
    "kind": "user",
    "methods": {},
    "version": 1
  }
}