{
  "contractName": "Payroll",
  "abi": [
    {
      "inputs": [
        {
          "internalType": "address",
          "name": "",
          "type": "address"
        }
      ],
      "name": "employees",
      "outputs": [
        {
          "internalType": "bool",
          "name": "flag",
          "type": "bool"
        },
        {
          "internalType": "address payable",
          "name": "employeeAddress",
          "type": "address"
        },
        {
          "internalType": "uint256",
          "name": "salary",
          "type": "uint256"
        },
        {
          "internalType": "uint256",
          "name": "interval",
          "type": "uint256"
        },
        {
          "internalType": "uint256",
          "name": "earnings",
          "type": "uint256"
        }
      ],
      "stateMutability": "view",
      "type": "function",
      "constant": true
    },
    {
      "inputs": [
        {
          "internalType": "address payable",
          "name": "_address",
          "type": "address"
        },
        {
          "internalType": "uint256",
          "name": "_salary",
          "type": "uint256"
        },
        {
          "internalType": "uint256",
          "name": "_interval",
          "type": "uint256"
        }
      ],
      "name": "createEmployee",
      "outputs": [],
      "stateMutability": "nonpayable",
      "type": "function"
    },
    {
      "inputs": [
        {
          "internalType": "address",
          "name": "_address",
          "type": "address"
        },
        {
          "internalType": "uint256",
          "name": "_salary",
          "type": "uint256"
        }
      ],
      "name": "editEmployeeSalary",
      "outputs": [],
      "stateMutability": "nonpayable",
      "type": "function"
    },
    {
      "inputs": [
        {
          "internalType": "address",
          "name": "_address",
          "type": "address"
        },
        {
          "internalType": "uint256",
          "name": "_interval",
          "type": "uint256"
        }
      ],
      "name": "editEmployeeInterval",
      "outputs": [],
      "stateMutability": "nonpayable",
      "type": "function"
    },
    {
      "inputs": [
        {
          "internalType": "address",
          "name": "_address",
          "type": "address"
        }
      ],
      "name": "deleteEmployee",
      "outputs": [],
      "stateMutability": "nonpayable",
      "type": "function"
    },
    {
      "inputs": [
        {
          "internalType": "address payable",
          "name": "_address",
          "type": "address"
        }
      ],
      "name": "getEmployeeInterval",
      "outputs": [
        {
          "internalType": "uint256",
          "name": "",
          "type": "uint256"
        }
      ],
      "stateMutability": "view",
      "type": "function",
      "constant": true
    },
    {
      "inputs": [
        {
          "internalType": "address",
          "name": "_address",
          "type": "address"
        }
      ],
      "name": "getEmployeeSalary",
      "outputs": [
        {
          "internalType": "uint256",
          "name": "",
          "type": "uint256"
        }
      ],
      "stateMutability": "view",
      "type": "function",
      "constant": true
    },
    {
      "inputs": [
        {
          "internalType": "address",
          "name": "_address",
          "type": "address"
        }
      ],
      "name": "getEmployeeBalance",
      "outputs": [
        {
          "internalType": "uint256",
          "name": "",
          "type": "uint256"
        }
      ],
      "stateMutability": "view",
      "type": "function",
      "constant": true
    },
    {
      "inputs": [],
      "name": "fundPayroll",
      "outputs": [],
      "stateMutability": "payable",
      "type": "function",
      "payable": true
    },
    {
      "inputs": [
        {
          "internalType": "address",
          "name": "_address",
          "type": "address"
        }
      ],
      "name": "payEmployee",
      "outputs": [],
      "stateMutability": "nonpayable",
      "type": "function"
    }
  ],
  "bytecode": "0x608060405234801561001057600080fd5b50610eb4806100206000396000f3fe6080604052600436106100ae576000357c0100000000000000000000000000000000000000000000000000000000900480636f5be0d6116100765780636f5be0d6146101945780638da00a12146101d157806396c7c9ac146101fa578063a21943ca14610237578063d067894714610241576100ae565b80631f50ad16146100b3578063212fd6f2146100dc5780635738054e146101195780636d146a52146101425780636e7c4ab11461016b575b600080fd5b3480156100bf57600080fd5b506100da60048036038101906100d59190610be2565b610282565b005b3480156100e857600080fd5b5061010360048036038101906100fe9190610be2565b61048f565b6040516101109190610d3f565b60405180910390f35b34801561012557600080fd5b50610140600480360381019061013b9190610c83565b6104da565b005b34801561014e57600080fd5b5061016960048036038101906101649190610c83565b610593565b005b34801561017757600080fd5b50610192600480360381019061018d9190610be2565b61064c565b005b3480156101a057600080fd5b506101bb60048036038101906101b69190610be2565b610745565b6040516101c89190610d3f565b60405180910390f35b3480156101dd57600080fd5b506101f860048036038101906101f39190610c34565b610790565b005b34801561020657600080fd5b50610221600480360381019061021c9190610c0b565b6108fb565b60405161022e9190610d3f565b60405180910390f35b61023f610946565b005b34801561024d57600080fd5b5061026860048036038101906102639190610be2565b610948565b604051610279959493929190610cec565b60405180910390f35b60016000808373ffffffffffffffffffffffffffffffffffffffff1673ffffffffffffffffffffffffffffffffffffffff16815260200190815260200160002060000160006101000a81548160ff02191690831515021790556102e457600080fd5b60006103336000808473ffffffffffffffffffffffffffffffffffffffff1673ffffffffffffffffffffffffffffffffffffffff1681526020019081526020016000206002015461016d6109ab565b905060006103826000808573ffffffffffffffffffffffffffffffffffffffff1673ffffffffffffffffffffffffffffffffffffffff16815260200190815260200160002060010154836109c8565b905060008060008573ffffffffffffffffffffffffffffffffffffffff1673ffffffffffffffffffffffffffffffffffffffff16815260200190815260200160002060000160019054906101000a900473ffffffffffffffffffffffffffffffffffffffff1690508073ffffffffffffffffffffffffffffffffffffffff166108fc839081150290604051600060405180830381858888f19350505050158015610430573d6000803e3d6000fd5b50816000808673ffffffffffffffffffffffffffffffffffffffff1673ffffffffffffffffffffffffffffffffffffffff16815260200190815260200160002060030160008282546104829190610d5a565b9250508190555050505050565b60008060008373ffffffffffffffffffffffffffffffffffffffff1673ffffffffffffffffffffffffffffffffffffffff168152602001908152602001600020600301549050919050565b600081116104e757600080fd5b60016000808473ffffffffffffffffffffffffffffffffffffffff1673ffffffffffffffffffffffffffffffffffffffff16815260200190815260200160002060000160006101000a81548160ff021916908315150217905561054957600080fd5b806000808473ffffffffffffffffffffffffffffffffffffffff1673ffffffffffffffffffffffffffffffffffffffff168152602001908152602001600020600201819055505050565b600081116105a057600080fd5b60016000808473ffffffffffffffffffffffffffffffffffffffff1673ffffffffffffffffffffffffffffffffffffffff16815260200190815260200160002060000160006101000a81548160ff021916908315150217905561060257600080fd5b806000808473ffffffffffffffffffffffffffffffffffffffff1673ffffffffffffffffffffffffffffffffffffffff168152602001908152602001600020600101819055505050565b60016000808373ffffffffffffffffffffffffffffffffffffffff1673ffffffffffffffffffffffffffffffffffffffff16815260200190815260200160002060000160006101000a81548160ff02191690831515021790556106ae57600080fd5b6000808273ffffffffffffffffffffffffffffffffffffffff1673ffffffffffffffffffffffffffffffffffffffff168152602001908152602001600020600080820160006101000a81549060ff02191690556000820160016101000a81549073ffffffffffffffffffffffffffffffffffffffff0219169055600182016000905560028201600090556003820160009055505050565b60008060008373ffffffffffffffffffffffffffffffffffffffff1673ffffffffffffffffffffffffffffffffffffffff168152602001908152602001600020600101549050919050565b600015156000808573ffffffffffffffffffffffffffffffffffffffff1673ffffffffffffffffffffffffffffffffffffffff16815260200190815260200160002060000160009054906101000a900460ff161515146107ef57600080fd5b6040518060a001604052806001151581526020018473ffffffffffffffffffffffffffffffffffffffff16815260200183815260200182815260200160008152506000808573ffffffffffffffffffffffffffffffffffffffff1673ffffffffffffffffffffffffffffffffffffffff16815260200190815260200160002060008201518160000160006101000a81548160ff02191690831515021790555060208201518160000160016101000a81548173ffffffffffffffffffffffffffffffffffffffff021916908373ffffffffffffffffffffffffffffffffffffffff160217905550604082015181600101556060820151816002015560808201518160030155905050505050565b60008060008373ffffffffffffffffffffffffffffffffffffffff1673ffffffffffffffffffffffffffffffffffffffff168152602001908152602001600020600201549050919050565b565b60006020528060005260406000206000915090508060000160009054906101000a900460ff16908060000160019054906101000a900473ffffffffffffffffffffffffffffffffffffffff16908060010154908060020154908060030154905085565b60006109c083670de0b6b3a7640000846109dc565b905092915050565b60006109d48383610ab7565b905092915050565b600080600080198587098587029250828110838203039150506000811415610a175760008411610a0b57600080fd5b83820492505050610ab0565b808411610a2357600080fd5b60008486880990508281118203915080830392506000600186190186169050808604955080840493506001818260000304019050808302841793506000600287600302189050808702600203810290508087026002038102905080870260020381029050808702600203810290508087026002038102905080870260020381029050808502955050505050505b9392505050565b60008060008019848609848602925082811083820303915050600080670de0b6b3a764000086880991506706f05b59d3b1ffff821190506000831415610b435780670de0b6b3a76400008581610b36577f4e487b7100000000000000000000000000000000000000000000000000000000600052601260045260246000fd5b0401945050505050610b9d565b82670de0b6b3a764000011610b5757600080fd5b807faccb18165bd6fe31ae1cf318dc5b51eee0e1ba569b88cd74c1773b91fac1066960016204000080600003040186851186030262040000858803041702019450505050505b92915050565b600081359050610bb281610e39565b92915050565b600081359050610bc781610e50565b92915050565b600081359050610bdc81610e67565b92915050565b600060208284031215610bf457600080fd5b6000610c0284828501610ba3565b91505092915050565b600060208284031215610c1d57600080fd5b6000610c2b84828501610bb8565b91505092915050565b600080600060608486031215610c4957600080fd5b6000610c5786828701610bb8565b9350506020610c6886828701610bcd565b9250506040610c7986828701610bcd565b9150509250925092565b60008060408385031215610c9657600080fd5b6000610ca485828601610ba3565b9250506020610cb585828601610bcd565b9150509250929050565b610cc881610dc2565b82525050565b610cd781610dd4565b82525050565b610ce681610e00565b82525050565b600060a082019050610d016000830188610cce565b610d0e6020830187610cbf565b610d1b6040830186610cdd565b610d286060830185610cdd565b610d356080830184610cdd565b9695505050505050565b6000602082019050610d546000830184610cdd565b92915050565b6000610d6582610e00565b9150610d7083610e00565b9250827fffffffffffffffffffffffffffffffffffffffffffffffffffffffffffffffff03821115610da557610da4610e0a565b5b828201905092915050565b6000610dbb82610de0565b9050919050565b6000610dcd82610de0565b9050919050565b60008115159050919050565b600073ffffffffffffffffffffffffffffffffffffffff82169050919050565b6000819050919050565b7f4e487b7100000000000000000000000000000000000000000000000000000000600052601160045260246000fd5b610e4281610db0565b8114610e4d57600080fd5b50565b610e5981610dc2565b8114610e6457600080fd5b50565b610e7081610e00565b8114610e7b57600080fd5b5056fea2646970667358221220816c7887def1700eb2e9fdc991fd61f224fcd65b3a89b7d395a3fcd7947ad13f64736f6c63430008040033",
  "immutableReferences": {},
  "source": "// SPDX-License-Identifier: GPL-3.0\n\npragma solidity ^0.8.0;\n\n// this contract lets us create employees that we can then pay based on initial parameters we provide the contract\n//we will use web3 js to call functions within this contract\n//to begin, we'll make the time interval a centralized input \n//(after all, this would be trusted, the benefit is tx on chain and crypto payment rails as the back end if ETH scales)\n\n//let's do the following:\n//refactor code so that we are not storing balances or earnings on chain\n//create a getEmployee function that allows us to query the employee list\n//can remove the 'balance' variable\n//make sure that payEmployee is executing properly, and uses an address vs an id for payment\n\n//UPDATE 5/12/21 - need the best way to call employee information & update employee information from this contract\nimport \"/prb-math/contracts/PRBMathUD60x18.sol\";\n\ncontract Payroll {\n    \n    using PRBMathUD60x18 for uint;\n    //setup section: defining data & storage types\n\n    //struct that will allow us to create employees\n    struct Employee {\n        bool flag;\n        address payable employeeAddress;\n        uint salary;\n        uint interval;\n        uint earnings;\n    }\n\n    //The below code will help get us to CRUD functionality on back end.\n\n    //new pattern here as an option\n    mapping (address => Employee) public employees;\n    // address[] public staff - consider using this code to build array of all employees in case we want to get all at once \n\n\n    \n\n    //Create, edit, delete employee functions\n\n    // function that will allow us to create a new employee using the employee struct\n    function createEmployee(address payable _address, uint _salary, uint _interval) public {\n        //employee must not yet exist\n        require (employees[_address].flag == false);\n        employees[_address] = Employee(true, _address, _salary, _interval, 0);\n    }\n\n    //need ability to edit current employee info\n    //should probably split into two separate functions\n    function editEmployeeSalary(address _address, uint _salary) public {\n        require (_salary > 0);\n        require (employees[_address].flag = true);\n        employees[_address].salary = _salary;\n    }\n\n    function editEmployeeInterval(address _address, uint _interval) public {\n        require (_interval > 0);\n        require (employees[_address].flag = true);\n        employees[_address].interval = _interval;\n    }\n\n    function deleteEmployee(address _address) public {\n        require (employees[_address].flag = true);\n        delete employees[_address];\n    }\n    \n    \n    //getting data section\n\n    function getEmployeeInterval(address payable _address) public view returns (uint) {\n        // require (employees[_address].flag = true);\n        return employees[_address].interval;\n    }\n     \n    function getEmployeeSalary(address _address) public view returns (uint) {\n        // require (employees[_address].flag = true);\n        return employees[_address].salary;\n    }\n    \n    function getEmployeeBalance(address _address) public view returns (uint) {\n        // require (employees[_address].flag = true);\n        return employees[_address].earnings;\n    }\n    \n    //do we really need this getter function?\n    //can't we just store employee addresses on front end and read them from the contract at will?\n    //can't we store our own front end copy of the smart contract data to use for looping & displaying this data?\n    // function getEmployees() public view returns (address[] memory, uint[] memory, uint[] memory) {\n    //     //this function allows us to get all employees by calling it - in the form of an array\n    //     address[] memory employeeAddresses = new address[](employees.length);\n    //     uint[] memory employeeSalaries = new uint[](employees.length);\n    //     uint[] memory employeeIntervals = new uint[](employees.length);\n    //     for (uint i = 0; i < employees.length; i++) {\n    //         employeeAddresses[i] = employees[i].employeeAddress;\n    //         employeeSalaries[i] = employees[i].salary;\n    //         employeeIntervals[i] = employees[i].interval;\n    //     }\n    //     return (employeeAddresses, employeeSalaries, employeeIntervals);\n    // }\n    \n\n\n    //key action section\n\n    // function that allows us to fund the contract\n    function fundPayroll() public payable {\n    }\n    \n    \n    //we are there, with the exception of handling the payment amount...solidity doesn't handle decimals well\n    //need a way to work w decimals to create accurate payment amount\n    //if we call this function, we pay the employee based on interval and salary\n    //use a library for floating points\n    function payEmployee(address _address) public {\n    require (employees[_address].flag = true);\n    //these payment intervals and amounts will be very important for our whole application.\n    //technical challenges here - will want to support stablecoins eventuall\n    //will also want to include decentralized price feeds that can convert $ to ETH easily\n    //attempting to use library here - not working. For some reason the functions aren't working\n        uint paymentInterval;\n        //use library to create a payment interval to multiply by\n        paymentInterval = PRBMathUD60x18.div(employees[_address].interval, 365);\n        uint payment;\n        //use library to multiply by fraction\n        payment = PRBMathUD60x18.mul(employees[_address].salary, paymentInterval);\n        address payable payee = employees[_address].employeeAddress;\n        payee.transfer(payment);\n        //add the payment amount to total earnings of the employee\n        employees[_address].earnings += payment;\n    }\n    \n    \n}",
  "sourcePath": "/Users/samflamini/appPractice/payrollApp/contracts/payroll.sol",
  "compiler": {
    "name": "solc",
    "version": "0.8.4+commit.c7e474f2.Emscripten.clang"
  },
  "schemaVersion": "3.4.1",
  "updatedAt": "2021-05-15T15:10:24.113Z",
  "networkType": "ethereum",
  "devdoc": {
    "kind": "dev",
    "methods": {},
    "version": 1
  },
  "userdoc": {
    "kind": "user",
    "methods": {},
    "version": 1
  }
}