{
  "contractName": "Payroll",
  "abi": [
    {
      "anonymous": false,
      "inputs": [
        {
          "indexed": true,
          "internalType": "address",
          "name": "_address",
          "type": "address"
        },
        {
          "indexed": false,
          "internalType": "uint256",
          "name": "_id",
          "type": "uint256"
        },
        {
          "indexed": true,
          "internalType": "string",
          "name": "_name",
          "type": "string"
        }
      ],
      "name": "companyCreated",
      "type": "event"
    },
    {
      "anonymous": false,
      "inputs": [
        {
          "indexed": true,
          "internalType": "address",
          "name": "_address",
          "type": "address"
        },
        {
          "indexed": true,
          "internalType": "uint256",
          "name": "_companyId",
          "type": "uint256"
        },
        {
          "indexed": true,
          "internalType": "uint256",
          "name": "_salary",
          "type": "uint256"
        },
        {
          "indexed": false,
          "internalType": "uint256",
          "name": "_interval",
          "type": "uint256"
        }
      ],
      "name": "employeeCreated",
      "type": "event"
    },
    {
      "anonymous": false,
      "inputs": [
        {
          "indexed": true,
          "internalType": "address",
          "name": "_address",
          "type": "address"
        },
        {
          "indexed": true,
          "internalType": "uint256",
          "name": "_amount",
          "type": "uint256"
        },
        {
          "indexed": true,
          "internalType": "uint256",
          "name": "_companyId",
          "type": "uint256"
        }
      ],
      "name": "employeePaid",
      "type": "event"
    },
    {
      "anonymous": false,
      "inputs": [
        {
          "indexed": true,
          "internalType": "uint256",
          "name": "_id",
          "type": "uint256"
        },
        {
          "indexed": true,
          "internalType": "address",
          "name": "_address",
          "type": "address"
        },
        {
          "indexed": true,
          "internalType": "uint256",
          "name": "_amount",
          "type": "uint256"
        }
      ],
      "name": "payrollFunded",
      "type": "event"
    },
    {
      "inputs": [
        {
          "internalType": "address",
          "name": "",
          "type": "address"
        }
      ],
      "name": "companies",
      "outputs": [
        {
          "internalType": "string",
          "name": "name",
          "type": "string"
        },
        {
          "internalType": "uint256",
          "name": "_id",
          "type": "uint256"
        }
      ],
      "stateMutability": "view",
      "type": "function",
      "constant": true
    },
    {
      "inputs": [
        {
          "internalType": "uint256",
          "name": "",
          "type": "uint256"
        }
      ],
      "name": "companiesToOwner",
      "outputs": [
        {
          "internalType": "address",
          "name": "",
          "type": "address"
        }
      ],
      "stateMutability": "view",
      "type": "function",
      "constant": true
    },
    {
      "inputs": [
        {
          "internalType": "address",
          "name": "",
          "type": "address"
        }
      ],
      "name": "companyBalances",
      "outputs": [
        {
          "internalType": "uint256",
          "name": "",
          "type": "uint256"
        }
      ],
      "stateMutability": "view",
      "type": "function",
      "constant": true
    },
    {
      "inputs": [
        {
          "internalType": "address",
          "name": "",
          "type": "address"
        }
      ],
      "name": "employees",
      "outputs": [
        {
          "internalType": "address payable",
          "name": "employeeAddress",
          "type": "address"
        },
        {
          "internalType": "uint256",
          "name": "salary",
          "type": "uint256"
        },
        {
          "internalType": "uint256",
          "name": "interval",
          "type": "uint256"
        },
        {
          "internalType": "uint256",
          "name": "companyId",
          "type": "uint256"
        }
      ],
      "stateMutability": "view",
      "type": "function",
      "constant": true
    },
    {
      "inputs": [
        {
          "internalType": "string",
          "name": "_name",
          "type": "string"
        }
      ],
      "name": "createCompany",
      "outputs": [],
      "stateMutability": "nonpayable",
      "type": "function"
    },
    {
      "inputs": [
        {
          "internalType": "address payable",
          "name": "_address",
          "type": "address"
        },
        {
          "internalType": "uint256",
          "name": "_salary",
          "type": "uint256"
        },
        {
          "internalType": "uint256",
          "name": "_interval",
          "type": "uint256"
        },
        {
          "internalType": "uint256",
          "name": "_companyId",
          "type": "uint256"
        }
      ],
      "name": "createEmployee",
      "outputs": [],
      "stateMutability": "nonpayable",
      "type": "function"
    },
    {
      "inputs": [
        {
          "internalType": "address",
          "name": "_address",
          "type": "address"
        },
        {
          "internalType": "uint256",
          "name": "_salary",
          "type": "uint256"
        }
      ],
      "name": "editEmployeeSalary",
      "outputs": [],
      "stateMutability": "nonpayable",
      "type": "function"
    },
    {
      "inputs": [
        {
          "internalType": "address",
          "name": "_address",
          "type": "address"
        },
        {
          "internalType": "uint256",
          "name": "_interval",
          "type": "uint256"
        }
      ],
      "name": "editEmployeeInterval",
      "outputs": [],
      "stateMutability": "nonpayable",
      "type": "function"
    },
    {
      "inputs": [
        {
          "internalType": "address",
          "name": "_address",
          "type": "address"
        }
      ],
      "name": "deleteEmployee",
      "outputs": [],
      "stateMutability": "nonpayable",
      "type": "function"
    },
    {
      "inputs": [
        {
          "internalType": "address payable",
          "name": "_address",
          "type": "address"
        }
      ],
      "name": "getEmployeeInterval",
      "outputs": [
        {
          "internalType": "uint256",
          "name": "",
          "type": "uint256"
        }
      ],
      "stateMutability": "view",
      "type": "function",
      "constant": true
    },
    {
      "inputs": [
        {
          "internalType": "address",
          "name": "_address",
          "type": "address"
        }
      ],
      "name": "getEmployeeSalary",
      "outputs": [
        {
          "internalType": "uint256",
          "name": "",
          "type": "uint256"
        }
      ],
      "stateMutability": "view",
      "type": "function",
      "constant": true
    },
    {
      "inputs": [
        {
          "internalType": "address",
          "name": "_address",
          "type": "address"
        }
      ],
      "name": "getCompany",
      "outputs": [
        {
          "internalType": "string",
          "name": "",
          "type": "string"
        }
      ],
      "stateMutability": "view",
      "type": "function",
      "constant": true
    },
    {
      "inputs": [
        {
          "internalType": "address",
          "name": "_address",
          "type": "address"
        }
      ],
      "name": "getCompanyId",
      "outputs": [
        {
          "internalType": "uint256",
          "name": "",
          "type": "uint256"
        }
      ],
      "stateMutability": "view",
      "type": "function",
      "constant": true
    },
    {
      "inputs": [
        {
          "internalType": "address",
          "name": "_address",
          "type": "address"
        }
      ],
      "name": "getCompanyBalance",
      "outputs": [
        {
          "internalType": "uint256",
          "name": "",
          "type": "uint256"
        }
      ],
      "stateMutability": "view",
      "type": "function",
      "constant": true
    },
    {
      "inputs": [
        {
          "internalType": "uint256",
          "name": "_id",
          "type": "uint256"
        }
      ],
      "name": "fundPayroll",
      "outputs": [],
      "stateMutability": "payable",
      "type": "function",
      "payable": true
    },
    {
      "inputs": [
        {
          "internalType": "address",
          "name": "_address",
          "type": "address"
        }
      ],
      "name": "payEmployee",
      "outputs": [],
      "stateMutability": "nonpayable",
      "type": "function"
    }
  ],
  "bytecode": "0x60806040526000805534801561001457600080fd5b50611bd8806100246000396000f3fe608060405260043610610110576000357c0100000000000000000000000000000000000000000000000000000000900480636d146a52116100a75780639ec74878116100765780639ec748781461036d578063d0678947146103aa578063d6f343c5146103ea578063fd7f611e1461042757610110565b80636d146a52146102a15780636e7c4ab1146102ca5780636f5be0d6146102f357806396c7c9ac1461033057610110565b8063355e6ce8116100e3578063355e6ce8146101e157806340928e821461021f5780635738054e1461023b57806362bc56e61461026457610110565b8063074b6c14146101155780631f50ad16146101525780632c726f341461017b578063325f1f4d146101a4575b600080fd5b34801561012157600080fd5b5061013c60048036038101906101379190611547565b610450565b604051610149919061181e565b60405180910390f35b34801561015e57600080fd5b5061017960048036038101906101749190611547565b610468565b005b34801561018757600080fd5b506101a2600480360381019061019d91906115a1565b610748565b005b3480156101b057600080fd5b506101cb60048036038101906101c69190611691565b6108e7565b6040516101d8919061176c565b60405180910390f35b3480156101ed57600080fd5b5061020860048036038101906102039190611547565b61091a565b6040516102169291906117ee565b60405180910390f35b61023960048036038101906102349190611691565b6109c6565b005b34801561024757600080fd5b50610262600480360381019061025d9190611608565b610acf565b005b34801561027057600080fd5b5061028b60048036038101906102869190611547565b610bc7565b60405161029891906117cc565b60405180910390f35b3480156102ad57600080fd5b506102c860048036038101906102c39190611608565b610c9b565b005b3480156102d657600080fd5b506102f160048036038101906102ec9190611547565b610d93565b005b3480156102ff57600080fd5b5061031a60048036038101906103159190611547565b610ec4565b604051610327919061181e565b60405180910390f35b34801561033c57600080fd5b5061035760048036038101906103529190611574565b610f10565b604051610364919061181e565b60405180910390f35b34801561037957600080fd5b50610394600480360381019061038f9190611547565b610f5c565b6040516103a1919061181e565b60405180910390f35b3480156103b657600080fd5b506103d160048036038101906103cc9190611547565b610fa5565b6040516103e19493929190611787565b60405180910390f35b3480156103f657600080fd5b50610411600480360381019061040c9190611547565b610ff5565b60405161041e919061181e565b60405180910390f35b34801561043357600080fd5b5061044e60048036038101906104499190611648565b611041565b005b60046020528060005260406000206000915090505481565b3373ffffffffffffffffffffffffffffffffffffffff1660036000600160008573ffffffffffffffffffffffffffffffffffffffff1673ffffffffffffffffffffffffffffffffffffffff16815260200190815260200160002060030154815260200190815260200160002060009054906101000a900473ffffffffffffffffffffffffffffffffffffffff1673ffffffffffffffffffffffffffffffffffffffff161461051557600080fd5b6000610565600160008473ffffffffffffffffffffffffffffffffffffffff1673ffffffffffffffffffffffffffffffffffffffff1681526020019081526020016000206002015461016d611223565b905060006105b5600160008573ffffffffffffffffffffffffffffffffffffffff1673ffffffffffffffffffffffffffffffffffffffff1681526020019081526020016000206001015483611240565b90506000600160008573ffffffffffffffffffffffffffffffffffffffff1673ffffffffffffffffffffffffffffffffffffffff16815260200190815260200160002060000160009054906101000a900473ffffffffffffffffffffffffffffffffffffffff16905081600460003373ffffffffffffffffffffffffffffffffffffffff1673ffffffffffffffffffffffffffffffffffffffff168152602001908152602001600020600082825461066d919061190c565b925050819055508073ffffffffffffffffffffffffffffffffffffffff166108fc839081150290604051600060405180830381858888f193505050501580156106ba573d6000803e3d6000fd5b50600160008573ffffffffffffffffffffffffffffffffffffffff1673ffffffffffffffffffffffffffffffffffffffff16815260200190815260200160002060030154828573ffffffffffffffffffffffffffffffffffffffff167fb581fc7f16ffdcffa92cd6fb31b2e1c8f0c5954a0417ddd1f5be520ab63a00c160405160405180910390a450505050565b3373ffffffffffffffffffffffffffffffffffffffff166003600083815260200190815260200160002060009054906101000a900473ffffffffffffffffffffffffffffffffffffffff1673ffffffffffffffffffffffffffffffffffffffff16146107b357600080fd5b60405180608001604052808573ffffffffffffffffffffffffffffffffffffffff16815260200184815260200183815260200182815250600160008673ffffffffffffffffffffffffffffffffffffffff1673ffffffffffffffffffffffffffffffffffffffff16815260200190815260200160002060008201518160000160006101000a81548173ffffffffffffffffffffffffffffffffffffffff021916908373ffffffffffffffffffffffffffffffffffffffff16021790555060208201518160010155604082015181600201556060820151816003015590505082818573ffffffffffffffffffffffffffffffffffffffff167f0b68397dc8fe556878180e0350a4a658953ac44e1f4c2738def55e7efe72f486856040516108d9919061181e565b60405180910390a450505050565b60036020528060005260406000206000915054906101000a900473ffffffffffffffffffffffffffffffffffffffff1681565b600260205280600052604060002060009150905080600001805461093d906119d0565b80601f0160208091040260200160405190810160405280929190818152602001828054610969906119d0565b80156109b65780601f1061098b576101008083540402835291602001916109b6565b820191906000526020600020905b81548152906001019060200180831161099957829003601f168201915b5050505050908060010154905082565b3373ffffffffffffffffffffffffffffffffffffffff166003600083815260200190815260200160002060009054906101000a900473ffffffffffffffffffffffffffffffffffffffff1673ffffffffffffffffffffffffffffffffffffffff1614610a3157600080fd5b34600460003373ffffffffffffffffffffffffffffffffffffffff1673ffffffffffffffffffffffffffffffffffffffff1681526020019081526020016000206000828254610a8091906118b6565b92505081905550343373ffffffffffffffffffffffffffffffffffffffff16827fbf233c8416f23879765d76dcefa417b1820427af6dc088a33329b7f341ef7c7360405160405180910390a450565b3373ffffffffffffffffffffffffffffffffffffffff1660036000600160008673ffffffffffffffffffffffffffffffffffffffff1673ffffffffffffffffffffffffffffffffffffffff16815260200190815260200160002060030154815260200190815260200160002060009054906101000a900473ffffffffffffffffffffffffffffffffffffffff1673ffffffffffffffffffffffffffffffffffffffff1614610b7c57600080fd5b80600160008473ffffffffffffffffffffffffffffffffffffffff1673ffffffffffffffffffffffffffffffffffffffff168152602001908152602001600020600201819055505050565b6060600260008373ffffffffffffffffffffffffffffffffffffffff1673ffffffffffffffffffffffffffffffffffffffff1681526020019081526020016000206000018054610c16906119d0565b80601f0160208091040260200160405190810160405280929190818152602001828054610c42906119d0565b8015610c8f5780601f10610c6457610100808354040283529160200191610c8f565b820191906000526020600020905b815481529060010190602001808311610c7257829003601f168201915b50505050509050919050565b3373ffffffffffffffffffffffffffffffffffffffff1660036000600160008673ffffffffffffffffffffffffffffffffffffffff1673ffffffffffffffffffffffffffffffffffffffff16815260200190815260200160002060030154815260200190815260200160002060009054906101000a900473ffffffffffffffffffffffffffffffffffffffff1673ffffffffffffffffffffffffffffffffffffffff1614610d4857600080fd5b80600160008473ffffffffffffffffffffffffffffffffffffffff1673ffffffffffffffffffffffffffffffffffffffff168152602001908152602001600020600101819055505050565b3373ffffffffffffffffffffffffffffffffffffffff1660036000600160008573ffffffffffffffffffffffffffffffffffffffff1673ffffffffffffffffffffffffffffffffffffffff16815260200190815260200160002060030154815260200190815260200160002060009054906101000a900473ffffffffffffffffffffffffffffffffffffffff1673ffffffffffffffffffffffffffffffffffffffff1614610e4057600080fd5b600160008273ffffffffffffffffffffffffffffffffffffffff1673ffffffffffffffffffffffffffffffffffffffff168152602001908152602001600020600080820160006101000a81549073ffffffffffffffffffffffffffffffffffffffff0219169055600182016000905560028201600090556003820160009055505050565b6000600160008373ffffffffffffffffffffffffffffffffffffffff1673ffffffffffffffffffffffffffffffffffffffff168152602001908152602001600020600101549050919050565b6000600160008373ffffffffffffffffffffffffffffffffffffffff1673ffffffffffffffffffffffffffffffffffffffff168152602001908152602001600020600201549050919050565b6000600460008373ffffffffffffffffffffffffffffffffffffffff1673ffffffffffffffffffffffffffffffffffffffff168152602001908152602001600020549050919050565b60016020528060005260406000206000915090508060000160009054906101000a900473ffffffffffffffffffffffffffffffffffffffff16908060010154908060020154908060030154905084565b6000600260008373ffffffffffffffffffffffffffffffffffffffff1673ffffffffffffffffffffffffffffffffffffffff168152602001908152602001600020600101549050919050565b60008054905060008081548092919061105990611a33565b91905055506000604051806040016040528084815260200183815250905080600260003373ffffffffffffffffffffffffffffffffffffffff1673ffffffffffffffffffffffffffffffffffffffff16815260200190815260200160002060008201518160000190805190602001906110d39291906113f5565b50602082015181600101559050503360036000600260003373ffffffffffffffffffffffffffffffffffffffff1673ffffffffffffffffffffffffffffffffffffffff16815260200190815260200160002060010154815260200190815260200160002060006101000a81548173ffffffffffffffffffffffffffffffffffffffff021916908373ffffffffffffffffffffffffffffffffffffffff1602179055506000600460003373ffffffffffffffffffffffffffffffffffffffff1673ffffffffffffffffffffffffffffffffffffffff16815260200190815260200160002081905550826040516111c89190611755565b60405180910390203373ffffffffffffffffffffffffffffffffffffffff167f713e5ba51618617b988e0d2f707cd981bd8559bddea1696a67bb1dadb178161184604051611216919061181e565b60405180910390a3505050565b600061123883670de0b6b3a764000084611254565b905092915050565b600061124c838361132f565b905092915050565b60008060008019858709858702925082811083820303915050600081141561128f576000841161128357600080fd5b83820492505050611328565b80841161129b57600080fd5b60008486880990508281118203915080830392506000600186190186169050808604955080840493506001818260000304019050808302841793506000600287600302189050808702600203810290508087026002038102905080870260020381029050808702600203810290508087026002038102905080870260020381029050808502955050505050505b9392505050565b60008060008019848609848602925082811083820303915050600080670de0b6b3a764000086880991506706f05b59d3b1ffff8211905060008314156113955780670de0b6b3a7640000858161138857611387611aab565b5b04019450505050506113ef565b82670de0b6b3a7640000116113a957600080fd5b807faccb18165bd6fe31ae1cf318dc5b51eee0e1ba569b88cd74c1773b91fac1066960016204000080600003040186851186030262040000858803041702019450505050505b92915050565b828054611401906119d0565b90600052602060002090601f016020900481019282611423576000855561146a565b82601f1061143c57805160ff191683800117855561146a565b8280016001018555821561146a579182015b8281111561146957825182559160200191906001019061144e565b5b509050611477919061147b565b5090565b5b8082111561149457600081600090555060010161147c565b5090565b60006114ab6114a68461185e565b611839565b9050828152602081018484840111156114c7576114c6611b3d565b5b6114d284828561198e565b509392505050565b6000813590506114e981611b5d565b92915050565b6000813590506114fe81611b74565b92915050565b600082601f83011261151957611518611b38565b5b8135611529848260208601611498565b91505092915050565b60008135905061154181611b8b565b92915050565b60006020828403121561155d5761155c611b47565b5b600061156b848285016114da565b91505092915050565b60006020828403121561158a57611589611b47565b5b6000611598848285016114ef565b91505092915050565b600080600080608085870312156115bb576115ba611b47565b5b60006115c9878288016114ef565b94505060206115da87828801611532565b93505060406115eb87828801611532565b92505060606115fc87828801611532565b91505092959194509250565b6000806040838503121561161f5761161e611b47565b5b600061162d858286016114da565b925050602061163e85828601611532565b9150509250929050565b60006020828403121561165e5761165d611b47565b5b600082013567ffffffffffffffff81111561167c5761167b611b42565b5b61168884828501611504565b91505092915050565b6000602082840312156116a7576116a6611b47565b5b60006116b584828501611532565b91505092915050565b6116c781611952565b82525050565b6116d681611940565b82525050565b60006116e78261188f565b6116f1818561189a565b935061170181856020860161199d565b61170a81611b4c565b840191505092915050565b60006117208261188f565b61172a81856118ab565b935061173a81856020860161199d565b80840191505092915050565b61174f81611984565b82525050565b60006117618284611715565b915081905092915050565b600060208201905061178160008301846116cd565b92915050565b600060808201905061179c60008301876116be565b6117a96020830186611746565b6117b66040830185611746565b6117c36060830184611746565b95945050505050565b600060208201905081810360008301526117e681846116dc565b905092915050565b6000604082019050818103600083015261180881856116dc565b90506118176020830184611746565b9392505050565b60006020820190506118336000830184611746565b92915050565b6000611843611854565b905061184f8282611a02565b919050565b6000604051905090565b600067ffffffffffffffff82111561187957611878611b09565b5b61188282611b4c565b9050602081019050919050565b600081519050919050565b600082825260208201905092915050565b600081905092915050565b60006118c182611984565b91506118cc83611984565b9250827fffffffffffffffffffffffffffffffffffffffffffffffffffffffffffffffff0382111561190157611900611a7c565b5b828201905092915050565b600061191782611984565b915061192283611984565b92508282101561193557611934611a7c565b5b828203905092915050565b600061194b82611964565b9050919050565b600061195d82611964565b9050919050565b600073ffffffffffffffffffffffffffffffffffffffff82169050919050565b6000819050919050565b82818337600083830152505050565b60005b838110156119bb5780820151818401526020810190506119a0565b838111156119ca576000848401525b50505050565b600060028204905060018216806119e857607f821691505b602082108114156119fc576119fb611ada565b5b50919050565b611a0b82611b4c565b810181811067ffffffffffffffff82111715611a2a57611a29611b09565b5b80604052505050565b6000611a3e82611984565b91507fffffffffffffffffffffffffffffffffffffffffffffffffffffffffffffffff821415611a7157611a70611a7c565b5b600182019050919050565b7f4e487b7100000000000000000000000000000000000000000000000000000000600052601160045260246000fd5b7f4e487b7100000000000000000000000000000000000000000000000000000000600052601260045260246000fd5b7f4e487b7100000000000000000000000000000000000000000000000000000000600052602260045260246000fd5b7f4e487b7100000000000000000000000000000000000000000000000000000000600052604160045260246000fd5b600080fd5b600080fd5b600080fd5b600080fd5b6000601f19601f8301169050919050565b611b6681611940565b8114611b7157600080fd5b50565b611b7d81611952565b8114611b8857600080fd5b50565b611b9481611984565b8114611b9f57600080fd5b5056fea2646970667358221220b592180b962b82c6ece040637f7c9c1431c5caa8c7fdb46634b260a4ebfe633664736f6c63430008060033",
  "immutableReferences": {},
  "source": "// SPDX-License-Identifier: GPL-3.0\n\npragma solidity ^0.8.0;\n\n// this contract lets us create employees that we can then pay based on initial parameters we provide the contract\n//we will use web3 js to call functions within this contract\n//to begin, we'll make the time interval a centralized input \n//(after all, this would be trusted, the benefit is tx on chain and crypto payment rails as the back end if ETH scales)\n\n//let's do the following:\n//refactor code so that we are not storing balances or earnings on chain\n//create a getEmployee function that allows us to query the employee list\n//can remove the 'balance' variable\n//make sure that payEmployee is executing properly, and uses an address vs an id for payment\n\n//massive security holes:\n//anyone can create an employee\n// if anyone can create an employee, anyone can drain this contract\n//if anyone can call pay employee, anyone can drain this contract\n\n//UPDATE 5/12/21 - need the best way to call employee information & update employee information from this contract\nimport \"/prb-math/contracts/PRBMathUD60x18.sol\";\n\ncontract Payroll {\n    \n    using PRBMathUD60x18 for uint;\n    //setup section: defining data & storage types\n\n    //struct that will allow us to create employees\n    struct Employee {\n        //don't think flag is needed, should be able to find another way to require that an employee exists\n        //it also doesn't cost anything for an employee to be added 2x, no? can't we error handle this somewhere else?\n        // bool flag;\n        address payable employeeAddress;\n        uint salary;\n        uint interval;\n        uint companyId;\n        //earnings not needed, can use events and queries to calculate them\n        // uint earnings;\n    }\n    \n    struct Company {\n        string name;\n        uint _id;\n    }\n\n    uint idGenerator = 0;\n    //The below code will help get us to CRUD functionality on back end.\n\n    //new pattern here as an option\n    // mapping (address => Employee) public employees;\n    // address[] public staff - consider using this code to build array of all employees in case we want to get all at once \n    \n    //attempting to use this pattern instead\n    //uint will be hash of co address and address\n    mapping (address => Employee) public employees;\n    //map address to co\n    mapping (address => Company) public companies;\n    //map co id to address\n    mapping (uint => address) public companiesToOwner;\n    //map co balances\n    mapping (address => uint) public companyBalances;\n    \n    //need an only owner 'withdraw' function and event\n    event payrollFunded(uint indexed _id, address indexed _address, uint indexed _amount);\n    event employeePaid(address indexed _address, uint indexed _amount, uint indexed _companyId);\n    // event employeeCreated(uint indexed _companyId, address indexed _address);\n    event employeeCreated(address indexed _address, uint indexed _companyId, uint indexed _salary, uint _interval);\n    event companyCreated(address indexed _address, uint _id, string indexed _name);\n\n    //Create, edit, delete employee functions\n\n    // function that will allow us to create a new company using the company struct\n    //should we return the ID? probably\n    function createCompany(string memory _name) public {\n        uint coId = idGenerator;\n        idGenerator++;\n        Company memory company = Company(_name, coId);\n        companies[msg.sender] = company;\n        companiesToOwner[companies[msg.sender]._id] = msg.sender;\n        companyBalances[msg.sender] = 0;\n        emit companyCreated(msg.sender, coId, _name);\n    }\n\n   \n    \n    // function that will allow us to create a new employee using the employee struct\n    function createEmployee(address payable _address, uint _salary, uint _interval, uint _companyId) public {\n        require (companiesToOwner[_companyId] == msg.sender);\n        employees[_address] = Employee(_address, _salary, _interval, _companyId);\n        emit employeeCreated(_address, _companyId, _salary, _interval);\n        // emit employeeInfo(_address, _salary, _interval);\n    }\n    \n\n    // need ability to edit current employee info\n    // should probably split into two separate functions\n    function editEmployeeSalary(address _address, uint _salary) public {\n        require(companiesToOwner[employees[_address].companyId] == msg.sender);\n        employees[_address].salary = _salary;\n        // require (_salary > 0);\n        // require (employees[_address].flag = true);\n    }\n    \n    function editEmployeeInterval(address _address, uint _interval) public {\n        require(companiesToOwner[employees[_address].companyId] == msg.sender);\n        employees[_address].interval = _interval;\n    }\n\n    // function editEmployeeInterval(address _address, uint _interval) public {\n    //     require (_interval > 0);\n    //     require (employees[_address].flag = true);\n    //     employees[_address].interval = _interval;\n    // }\n\n    function deleteEmployee(address _address) public {\n        require(companiesToOwner[employees[_address].companyId] == msg.sender);\n        delete employees[_address];\n    }\n    \n    \n    //getting data section\n\n    function getEmployeeInterval(address payable _address) public view returns (uint) {\n        // require (employees[_address].flag = true);\n        return employees[_address].interval;\n    }\n     \n    function getEmployeeSalary(address _address) public view returns (uint) {\n        // require (employees[_address].flag = true);\n        return employees[_address].salary;\n    }\n\n     function getCompany(address _address) public view returns (string memory) {\n        return companies[_address].name;\n    }\n\n    function getCompanyId(address _address) public view returns (uint) {\n        return companies[_address]._id;\n    }\n\n    function getCompanyBalance(address _address) public view returns (uint) {\n        return companyBalances[_address];\n    }\n    \n    // function getEmployeeBalance(address _address) public view returns (uint) {\n    //     // require (employees[_address].flag = true);\n    //     return employees[_address].earnings;\n    // }\n    \n    //do we really need this getter function?\n    //can't we just store employee addresses on front end and read them from the contract at will?\n    //can't we store our own front end copy of the smart contract data to use for looping & displaying this data?\n    // function getEmployees() public view returns (address[] memory, uint[] memory, uint[] memory) {\n    //     //this function allows us to get all employees by calling it - in the form of an array\n    //     address[] memory employeeAddresses = new address[](employees.length);\n    //     uint[] memory employeeSalaries = new uint[](employees.length);\n    //     uint[] memory employeeIntervals = new uint[](employees.length);\n    //     for (uint i = 0; i < employees.length; i++) {\n    //         employeeAddresses[i] = employees[i].employeeAddress;\n    //         employeeSalaries[i] = employees[i].salary;\n    //         employeeIntervals[i] = employees[i].interval;\n    //     }\n    //     return (employeeAddresses, employeeSalaries, employeeIntervals);\n    // }\n    \n\n\n    //key action section\n\n    // function that allows us to fund the contract\n    function fundPayroll(uint _id) public payable {\n        require(companiesToOwner[_id] == msg.sender);\n        companyBalances[msg.sender] += msg.value;\n        emit payrollFunded(_id, msg.sender, msg.value);\n    }\n    \n    \n    //we are there, with the exception of handling the payment amount...solidity doesn't handle decimals well\n    //need a way to work w decimals to create accurate payment amount\n    //if we call this function, we pay the employee based on interval and salary\n    //use a library for floating points\n    function payEmployee(address _address) public {\n    require(companiesToOwner[employees[_address].companyId] == msg.sender);\n    //these payment intervals and amounts will be very important for our whole application.\n    //technical challenges here - will want to support stablecoins eventuall\n    //will also want to include decentralized price feeds that can convert $ to ETH easily\n    //attempting to use library here - not working. For some reason the functions aren't working\n        uint paymentInterval;\n        //use library to create a payment interval to multiply by\n        paymentInterval = PRBMathUD60x18.div(employees[_address].interval, 365);\n        uint payment;\n        //use library to multiply by fraction\n        payment = PRBMathUD60x18.mul(employees[_address].salary, paymentInterval);\n        address payable payee = employees[_address].employeeAddress;\n        companyBalances[msg.sender] -= payment;\n        payee.transfer(payment);\n        //add the payment amount to total earnings of the employee\n        emit employeePaid(_address, payment, employees[_address].companyId);\n    }\n\n}\n\n",
  "sourcePath": "/Users/sam_flamini/devPortfolio/payrollApp/payrollApp/contracts/payroll.sol",
  "compiler": {
    "name": "solc",
    "version": "0.8.6+commit.11564f7e.Emscripten.clang"
  },
  "schemaVersion": "3.4.1",
  "updatedAt": "2021-06-25T20:00:20.909Z",
  "networkType": "ethereum",
  "devdoc": {
    "kind": "dev",
    "methods": {},
    "version": 1
  },
  "userdoc": {
    "kind": "user",
    "methods": {},
    "version": 1
  }
}