{
  "contractName": "Payroll",
  "abi": [
    {
      "inputs": [
        {
          "internalType": "address",
          "name": "",
          "type": "address"
        }
      ],
      "name": "companies",
      "outputs": [
        {
          "internalType": "string",
          "name": "name",
          "type": "string"
        },
        {
          "internalType": "uint256",
          "name": "_id",
          "type": "uint256"
        }
      ],
      "stateMutability": "view",
      "type": "function",
      "constant": true
    },
    {
      "inputs": [
        {
          "internalType": "uint256",
          "name": "",
          "type": "uint256"
        }
      ],
      "name": "companiesToOwner",
      "outputs": [
        {
          "internalType": "address",
          "name": "",
          "type": "address"
        }
      ],
      "stateMutability": "view",
      "type": "function",
      "constant": true
    },
    {
      "inputs": [
        {
          "internalType": "address",
          "name": "",
          "type": "address"
        }
      ],
      "name": "companyBalances",
      "outputs": [
        {
          "internalType": "uint256",
          "name": "",
          "type": "uint256"
        }
      ],
      "stateMutability": "view",
      "type": "function",
      "constant": true
    },
    {
      "inputs": [
        {
          "internalType": "address",
          "name": "",
          "type": "address"
        }
      ],
      "name": "employees",
      "outputs": [
        {
          "internalType": "address payable",
          "name": "employeeAddress",
          "type": "address"
        },
        {
          "internalType": "uint256",
          "name": "salary",
          "type": "uint256"
        },
        {
          "internalType": "uint256",
          "name": "interval",
          "type": "uint256"
        },
        {
          "internalType": "uint256",
          "name": "companyId",
          "type": "uint256"
        }
      ],
      "stateMutability": "view",
      "type": "function",
      "constant": true
    },
    {
      "inputs": [
        {
          "internalType": "string",
          "name": "_name",
          "type": "string"
        }
      ],
      "name": "createCompany",
      "outputs": [],
      "stateMutability": "nonpayable",
      "type": "function"
    },
    {
      "inputs": [
        {
          "internalType": "address payable",
          "name": "_address",
          "type": "address"
        },
        {
          "internalType": "uint256",
          "name": "_salary",
          "type": "uint256"
        },
        {
          "internalType": "uint256",
          "name": "_interval",
          "type": "uint256"
        },
        {
          "internalType": "uint256",
          "name": "_companyId",
          "type": "uint256"
        }
      ],
      "name": "createEmployee",
      "outputs": [],
      "stateMutability": "nonpayable",
      "type": "function"
    },
    {
      "inputs": [
        {
          "internalType": "address",
          "name": "_address",
          "type": "address"
        },
        {
          "internalType": "uint256",
          "name": "_salary",
          "type": "uint256"
        }
      ],
      "name": "editEmployeeSalary",
      "outputs": [],
      "stateMutability": "nonpayable",
      "type": "function"
    },
    {
      "inputs": [
        {
          "internalType": "address",
          "name": "_address",
          "type": "address"
        },
        {
          "internalType": "uint256",
          "name": "_interval",
          "type": "uint256"
        }
      ],
      "name": "editEmployeeInterval",
      "outputs": [],
      "stateMutability": "nonpayable",
      "type": "function"
    },
    {
      "inputs": [
        {
          "internalType": "address",
          "name": "_address",
          "type": "address"
        }
      ],
      "name": "deleteEmployee",
      "outputs": [],
      "stateMutability": "nonpayable",
      "type": "function"
    },
    {
      "inputs": [
        {
          "internalType": "address payable",
          "name": "_address",
          "type": "address"
        }
      ],
      "name": "getEmployeeInterval",
      "outputs": [
        {
          "internalType": "uint256",
          "name": "",
          "type": "uint256"
        }
      ],
      "stateMutability": "view",
      "type": "function",
      "constant": true
    },
    {
      "inputs": [
        {
          "internalType": "address",
          "name": "_address",
          "type": "address"
        }
      ],
      "name": "getEmployeeSalary",
      "outputs": [
        {
          "internalType": "uint256",
          "name": "",
          "type": "uint256"
        }
      ],
      "stateMutability": "view",
      "type": "function",
      "constant": true
    },
    {
      "inputs": [
        {
          "internalType": "address",
          "name": "_address",
          "type": "address"
        }
      ],
      "name": "getCompany",
      "outputs": [
        {
          "internalType": "string",
          "name": "",
          "type": "string"
        }
      ],
      "stateMutability": "view",
      "type": "function",
      "constant": true
    },
    {
      "inputs": [
        {
          "internalType": "address",
          "name": "_address",
          "type": "address"
        }
      ],
      "name": "getCompanyBalance",
      "outputs": [
        {
          "internalType": "uint256",
          "name": "",
          "type": "uint256"
        }
      ],
      "stateMutability": "view",
      "type": "function",
      "constant": true
    },
    {
      "inputs": [
        {
          "internalType": "uint256",
          "name": "_id",
          "type": "uint256"
        }
      ],
      "name": "fundPayroll",
      "outputs": [],
      "stateMutability": "payable",
      "type": "function",
      "payable": true
    },
    {
      "inputs": [
        {
          "internalType": "address",
          "name": "_address",
          "type": "address"
        }
      ],
      "name": "payEmployee",
      "outputs": [],
      "stateMutability": "nonpayable",
      "type": "function"
    }
  ],
  "bytecode": "0x60806040526000805534801561001457600080fd5b5061196b806100246000396000f3fe608060405260043610610105576000357c01000000000000000000000000000000000000000000000000000000009004806362bc56e6116100a757806396c7c9ac1161007657806396c7c9ac146103255780639ec7487814610362578063d06789471461039f578063fd7f611e146103df57610105565b806362bc56e6146102595780636d146a52146102965780636e7c4ab1146102bf5780636f5be0d6146102e857610105565b8063325f1f4d116100e3578063325f1f4d14610199578063355e6ce8146101d657806340928e82146102145780635738054e1461023057610105565b8063074b6c141461010a5780631f50ad16146101475780632c726f3414610170575b600080fd5b34801561011657600080fd5b50610131600480360381019061012c919061132d565b610408565b60405161013e91906115bc565b60405180910390f35b34801561015357600080fd5b5061016e6004803603810190610169919061132d565b610420565b005b34801561017c57600080fd5b5061019760048036038101906101929190611387565b610679565b005b3480156101a557600080fd5b506101c060048036038101906101bb9190611477565b6107c8565b6040516101cd919061150a565b60405180910390f35b3480156101e257600080fd5b506101fd60048036038101906101f8919061132d565b6107fb565b60405161020b92919061158c565b60405180910390f35b61022e60048036038101906102299190611477565b6108a7565b005b34801561023c57600080fd5b50610257600480360381019061025291906113ee565b61096b565b005b34801561026557600080fd5b50610280600480360381019061027b919061132d565b610a63565b60405161028d919061156a565b60405180910390f35b3480156102a257600080fd5b506102bd60048036038101906102b891906113ee565b610b37565b005b3480156102cb57600080fd5b506102e660048036038101906102e1919061132d565b610c2f565b005b3480156102f457600080fd5b5061030f600480360381019061030a919061132d565b610d60565b60405161031c91906115bc565b60405180910390f35b34801561033157600080fd5b5061034c6004803603810190610347919061135a565b610dac565b60405161035991906115bc565b60405180910390f35b34801561036e57600080fd5b506103896004803603810190610384919061132d565b610df8565b60405161039691906115bc565b60405180910390f35b3480156103ab57600080fd5b506103c660048036038101906103c1919061132d565b610e41565b6040516103d69493929190611525565b60405180910390f35b3480156103eb57600080fd5b506104066004803603810190610401919061142e565b610e91565b005b60046020528060005260406000206000915090505481565b3373ffffffffffffffffffffffffffffffffffffffff1660036000600160008573ffffffffffffffffffffffffffffffffffffffff1673ffffffffffffffffffffffffffffffffffffffff16815260200190815260200160002060030154815260200190815260200160002060009054906101000a900473ffffffffffffffffffffffffffffffffffffffff1673ffffffffffffffffffffffffffffffffffffffff16146104cd57600080fd5b600061051d600160008473ffffffffffffffffffffffffffffffffffffffff1673ffffffffffffffffffffffffffffffffffffffff1681526020019081526020016000206002015461016d611009565b9050600061056d600160008573ffffffffffffffffffffffffffffffffffffffff1673ffffffffffffffffffffffffffffffffffffffff1681526020019081526020016000206001015483611026565b90506000600160008573ffffffffffffffffffffffffffffffffffffffff1673ffffffffffffffffffffffffffffffffffffffff16815260200190815260200160002060000160009054906101000a900473ffffffffffffffffffffffffffffffffffffffff16905081600460003373ffffffffffffffffffffffffffffffffffffffff1673ffffffffffffffffffffffffffffffffffffffff1681526020019081526020016000206000828254610625919061169f565b925050819055508073ffffffffffffffffffffffffffffffffffffffff166108fc839081150290604051600060405180830381858888f19350505050158015610672573d6000803e3d6000fd5b5050505050565b3373ffffffffffffffffffffffffffffffffffffffff166003600083815260200190815260200160002060009054906101000a900473ffffffffffffffffffffffffffffffffffffffff1673ffffffffffffffffffffffffffffffffffffffff16146106e457600080fd5b60405180608001604052808573ffffffffffffffffffffffffffffffffffffffff16815260200184815260200183815260200182815250600160008673ffffffffffffffffffffffffffffffffffffffff1673ffffffffffffffffffffffffffffffffffffffff16815260200190815260200160002060008201518160000160006101000a81548173ffffffffffffffffffffffffffffffffffffffff021916908373ffffffffffffffffffffffffffffffffffffffff16021790555060208201518160010155604082015181600201556060820151816003015590505050505050565b60036020528060005260406000206000915054906101000a900473ffffffffffffffffffffffffffffffffffffffff1681565b600260205280600052604060002060009150905080600001805461081e90611763565b80601f016020809104026020016040519081016040528092919081815260200182805461084a90611763565b80156108975780601f1061086c57610100808354040283529160200191610897565b820191906000526020600020905b81548152906001019060200180831161087a57829003601f168201915b5050505050908060010154905082565b3373ffffffffffffffffffffffffffffffffffffffff166003600083815260200190815260200160002060009054906101000a900473ffffffffffffffffffffffffffffffffffffffff1673ffffffffffffffffffffffffffffffffffffffff161461091257600080fd5b34600460003373ffffffffffffffffffffffffffffffffffffffff1673ffffffffffffffffffffffffffffffffffffffff16815260200190815260200160002060008282546109619190611649565b9250508190555050565b3373ffffffffffffffffffffffffffffffffffffffff1660036000600160008673ffffffffffffffffffffffffffffffffffffffff1673ffffffffffffffffffffffffffffffffffffffff16815260200190815260200160002060030154815260200190815260200160002060009054906101000a900473ffffffffffffffffffffffffffffffffffffffff1673ffffffffffffffffffffffffffffffffffffffff1614610a1857600080fd5b80600160008473ffffffffffffffffffffffffffffffffffffffff1673ffffffffffffffffffffffffffffffffffffffff168152602001908152602001600020600201819055505050565b6060600260008373ffffffffffffffffffffffffffffffffffffffff1673ffffffffffffffffffffffffffffffffffffffff1681526020019081526020016000206000018054610ab290611763565b80601f0160208091040260200160405190810160405280929190818152602001828054610ade90611763565b8015610b2b5780601f10610b0057610100808354040283529160200191610b2b565b820191906000526020600020905b815481529060010190602001808311610b0e57829003601f168201915b50505050509050919050565b3373ffffffffffffffffffffffffffffffffffffffff1660036000600160008673ffffffffffffffffffffffffffffffffffffffff1673ffffffffffffffffffffffffffffffffffffffff16815260200190815260200160002060030154815260200190815260200160002060009054906101000a900473ffffffffffffffffffffffffffffffffffffffff1673ffffffffffffffffffffffffffffffffffffffff1614610be457600080fd5b80600160008473ffffffffffffffffffffffffffffffffffffffff1673ffffffffffffffffffffffffffffffffffffffff168152602001908152602001600020600101819055505050565b3373ffffffffffffffffffffffffffffffffffffffff1660036000600160008573ffffffffffffffffffffffffffffffffffffffff1673ffffffffffffffffffffffffffffffffffffffff16815260200190815260200160002060030154815260200190815260200160002060009054906101000a900473ffffffffffffffffffffffffffffffffffffffff1673ffffffffffffffffffffffffffffffffffffffff1614610cdc57600080fd5b600160008273ffffffffffffffffffffffffffffffffffffffff1673ffffffffffffffffffffffffffffffffffffffff168152602001908152602001600020600080820160006101000a81549073ffffffffffffffffffffffffffffffffffffffff0219169055600182016000905560028201600090556003820160009055505050565b6000600160008373ffffffffffffffffffffffffffffffffffffffff1673ffffffffffffffffffffffffffffffffffffffff168152602001908152602001600020600101549050919050565b6000600160008373ffffffffffffffffffffffffffffffffffffffff1673ffffffffffffffffffffffffffffffffffffffff168152602001908152602001600020600201549050919050565b6000600460008373ffffffffffffffffffffffffffffffffffffffff1673ffffffffffffffffffffffffffffffffffffffff168152602001908152602001600020549050919050565b60016020528060005260406000206000915090508060000160009054906101000a900473ffffffffffffffffffffffffffffffffffffffff16908060010154908060020154908060030154905084565b600080549050600080815480929190610ea9906117c6565b9190505550604051806040016040528083815260200182815250600260003373ffffffffffffffffffffffffffffffffffffffff1673ffffffffffffffffffffffffffffffffffffffff1681526020019081526020016000206000820151816000019080519060200190610f1e9291906111db565b50602082015181600101559050503360036000600260003373ffffffffffffffffffffffffffffffffffffffff1673ffffffffffffffffffffffffffffffffffffffff16815260200190815260200160002060010154815260200190815260200160002060006101000a81548173ffffffffffffffffffffffffffffffffffffffff021916908373ffffffffffffffffffffffffffffffffffffffff1602179055506000600460003373ffffffffffffffffffffffffffffffffffffffff1673ffffffffffffffffffffffffffffffffffffffff168152602001908152602001600020819055505050565b600061101e83670de0b6b3a76400008461103a565b905092915050565b60006110328383611115565b905092915050565b600080600080198587098587029250828110838203039150506000811415611075576000841161106957600080fd5b8382049250505061110e565b80841161108157600080fd5b60008486880990508281118203915080830392506000600186190186169050808604955080840493506001818260000304019050808302841793506000600287600302189050808702600203810290508087026002038102905080870260020381029050808702600203810290508087026002038102905080870260020381029050808502955050505050505b9392505050565b60008060008019848609848602925082811083820303915050600080670de0b6b3a764000086880991506706f05b59d3b1ffff82119050600083141561117b5780670de0b6b3a7640000858161116e5761116d61183e565b5b04019450505050506111d5565b82670de0b6b3a76400001161118f57600080fd5b807faccb18165bd6fe31ae1cf318dc5b51eee0e1ba569b88cd74c1773b91fac1066960016204000080600003040186851186030262040000858803041702019450505050505b92915050565b8280546111e790611763565b90600052602060002090601f0160209004810192826112095760008555611250565b82601f1061122257805160ff1916838001178555611250565b82800160010185558215611250579182015b8281111561124f578251825591602001919060010190611234565b5b50905061125d9190611261565b5090565b5b8082111561127a576000816000905550600101611262565b5090565b600061129161128c846115fc565b6115d7565b9050828152602081018484840111156112ad576112ac6118d0565b5b6112b8848285611721565b509392505050565b6000813590506112cf816118f0565b92915050565b6000813590506112e481611907565b92915050565b600082601f8301126112ff576112fe6118cb565b5b813561130f84826020860161127e565b91505092915050565b6000813590506113278161191e565b92915050565b600060208284031215611343576113426118da565b5b6000611351848285016112c0565b91505092915050565b6000602082840312156113705761136f6118da565b5b600061137e848285016112d5565b91505092915050565b600080600080608085870312156113a1576113a06118da565b5b60006113af878288016112d5565b94505060206113c087828801611318565b93505060406113d187828801611318565b92505060606113e287828801611318565b91505092959194509250565b60008060408385031215611405576114046118da565b5b6000611413858286016112c0565b925050602061142485828601611318565b9150509250929050565b600060208284031215611444576114436118da565b5b600082013567ffffffffffffffff811115611462576114616118d5565b5b61146e848285016112ea565b91505092915050565b60006020828403121561148d5761148c6118da565b5b600061149b84828501611318565b91505092915050565b6114ad816116e5565b82525050565b6114bc816116d3565b82525050565b60006114cd8261162d565b6114d78185611638565b93506114e7818560208601611730565b6114f0816118df565b840191505092915050565b61150481611717565b82525050565b600060208201905061151f60008301846114b3565b92915050565b600060808201905061153a60008301876114a4565b61154760208301866114fb565b61155460408301856114fb565b61156160608301846114fb565b95945050505050565b6000602082019050818103600083015261158481846114c2565b905092915050565b600060408201905081810360008301526115a681856114c2565b90506115b560208301846114fb565b9392505050565b60006020820190506115d160008301846114fb565b92915050565b60006115e16115f2565b90506115ed8282611795565b919050565b6000604051905090565b600067ffffffffffffffff8211156116175761161661189c565b5b611620826118df565b9050602081019050919050565b600081519050919050565b600082825260208201905092915050565b600061165482611717565b915061165f83611717565b9250827fffffffffffffffffffffffffffffffffffffffffffffffffffffffffffffffff038211156116945761169361180f565b5b828201905092915050565b60006116aa82611717565b91506116b583611717565b9250828210156116c8576116c761180f565b5b828203905092915050565b60006116de826116f7565b9050919050565b60006116f0826116f7565b9050919050565b600073ffffffffffffffffffffffffffffffffffffffff82169050919050565b6000819050919050565b82818337600083830152505050565b60005b8381101561174e578082015181840152602081019050611733565b8381111561175d576000848401525b50505050565b6000600282049050600182168061177b57607f821691505b6020821081141561178f5761178e61186d565b5b50919050565b61179e826118df565b810181811067ffffffffffffffff821117156117bd576117bc61189c565b5b80604052505050565b60006117d182611717565b91507fffffffffffffffffffffffffffffffffffffffffffffffffffffffffffffffff8214156118045761180361180f565b5b600182019050919050565b7f4e487b7100000000000000000000000000000000000000000000000000000000600052601160045260246000fd5b7f4e487b7100000000000000000000000000000000000000000000000000000000600052601260045260246000fd5b7f4e487b7100000000000000000000000000000000000000000000000000000000600052602260045260246000fd5b7f4e487b7100000000000000000000000000000000000000000000000000000000600052604160045260246000fd5b600080fd5b600080fd5b600080fd5b600080fd5b6000601f19601f8301169050919050565b6118f9816116d3565b811461190457600080fd5b50565b611910816116e5565b811461191b57600080fd5b50565b61192781611717565b811461193257600080fd5b5056fea264697066735822122039948887fb3ade3a8bab092780c1df920dd4bdd0b4a4b13397e3cace98d1e83c64736f6c63430008050033",
  "immutableReferences": {},
  "source": "// SPDX-License-Identifier: GPL-3.0\n\npragma solidity ^0.8.0;\n\n// this contract lets us create employees that we can then pay based on initial parameters we provide the contract\n//we will use web3 js to call functions within this contract\n//to begin, we'll make the time interval a centralized input \n//(after all, this would be trusted, the benefit is tx on chain and crypto payment rails as the back end if ETH scales)\n\n//let's do the following:\n//refactor code so that we are not storing balances or earnings on chain\n//create a getEmployee function that allows us to query the employee list\n//can remove the 'balance' variable\n//make sure that payEmployee is executing properly, and uses an address vs an id for payment\n\n//massive security holes:\n//anyone can create an employee\n// if anyone can create an employee, anyone can drain this contract\n//if anyone can call pay employee, anyone can drain this contract\n\n//UPDATE 5/12/21 - need the best way to call employee information & update employee information from this contract\nimport \"/prb-math/contracts/PRBMathUD60x18.sol\";\n\ncontract Payroll {\n    \n    using PRBMathUD60x18 for uint;\n    //setup section: defining data & storage types\n\n    //struct that will allow us to create employees\n    struct Employee {\n        //don't think flag is needed, should be able to find another way to require that an employee exists\n        //it also doesn't cost anything for an employee to be added 2x, no? can't we error handle this somewhere else?\n        // bool flag;\n        address payable employeeAddress;\n        uint salary;\n        uint interval;\n        uint companyId;\n        //earnings not needed, can use events and queries to calculate them\n        // uint earnings;\n    }\n    \n    struct Company {\n        string name;\n        uint _id;\n    }\n\n    uint idGenerator = 0;\n    //The below code will help get us to CRUD functionality on back end.\n\n    //new pattern here as an option\n    // mapping (address => Employee) public employees;\n    // address[] public staff - consider using this code to build array of all employees in case we want to get all at once \n    \n    //attempting to use this pattern instead\n    //uint will be hash of co address and address\n    mapping (address => Employee) public employees;\n    //map address to co\n    mapping (address => Company) public companies;\n    //map co id to address\n    mapping (uint => address) public companiesToOwner;\n    //map co balances\n    mapping (address => uint) public companyBalances;\n    \n    \n    //Create, edit, delete employee functions\n\n    // function that will allow us to create a new company using the company struct\n    function createCompany(string memory _name) public {\n        uint coId = idGenerator;\n        idGenerator++;\n        companies[msg.sender] = Company(_name, coId);\n        companiesToOwner[companies[msg.sender]._id] = msg.sender;\n        companyBalances[msg.sender] = 0;\n    }\n\n   \n    \n    // function that will allow us to create a new employee using the employee struct\n    function createEmployee(address payable _address, uint _salary, uint _interval, uint _companyId) public {\n        require (companiesToOwner[_companyId] == msg.sender);\n        employees[_address] = Employee(_address, _salary, _interval, _companyId);\n    }\n    \n\n    // need ability to edit current employee info\n    // should probably split into two separate functions\n    function editEmployeeSalary(address _address, uint _salary) public {\n        require(companiesToOwner[employees[_address].companyId] == msg.sender);\n        employees[_address].salary = _salary;\n        // require (_salary > 0);\n        // require (employees[_address].flag = true);\n    }\n    \n    function editEmployeeInterval(address _address, uint _interval) public {\n        require(companiesToOwner[employees[_address].companyId] == msg.sender);\n        employees[_address].interval = _interval;\n    }\n\n    // function editEmployeeInterval(address _address, uint _interval) public {\n    //     require (_interval > 0);\n    //     require (employees[_address].flag = true);\n    //     employees[_address].interval = _interval;\n    // }\n\n    function deleteEmployee(address _address) public {\n        require(companiesToOwner[employees[_address].companyId] == msg.sender);\n        delete employees[_address];\n    }\n    \n    \n    //getting data section\n\n    function getEmployeeInterval(address payable _address) public view returns (uint) {\n        // require (employees[_address].flag = true);\n        return employees[_address].interval;\n    }\n     \n    function getEmployeeSalary(address _address) public view returns (uint) {\n        // require (employees[_address].flag = true);\n        return employees[_address].salary;\n    }\n\n     function getCompany(address _address) public view returns (string memory) {\n        return companies[_address].name;\n    }\n\n    function getCompanyBalance(address _address) public view returns (uint) {\n        return companyBalances[_address];\n    }\n    \n    // function getEmployeeBalance(address _address) public view returns (uint) {\n    //     // require (employees[_address].flag = true);\n    //     return employees[_address].earnings;\n    // }\n    \n    //do we really need this getter function?\n    //can't we just store employee addresses on front end and read them from the contract at will?\n    //can't we store our own front end copy of the smart contract data to use for looping & displaying this data?\n    // function getEmployees() public view returns (address[] memory, uint[] memory, uint[] memory) {\n    //     //this function allows us to get all employees by calling it - in the form of an array\n    //     address[] memory employeeAddresses = new address[](employees.length);\n    //     uint[] memory employeeSalaries = new uint[](employees.length);\n    //     uint[] memory employeeIntervals = new uint[](employees.length);\n    //     for (uint i = 0; i < employees.length; i++) {\n    //         employeeAddresses[i] = employees[i].employeeAddress;\n    //         employeeSalaries[i] = employees[i].salary;\n    //         employeeIntervals[i] = employees[i].interval;\n    //     }\n    //     return (employeeAddresses, employeeSalaries, employeeIntervals);\n    // }\n    \n\n\n    //key action section\n\n    // function that allows us to fund the contract\n    function fundPayroll(uint _id) public payable {\n        require(companiesToOwner[_id] == msg.sender);\n        companyBalances[msg.sender] += msg.value;\n    }\n    \n    \n    //we are there, with the exception of handling the payment amount...solidity doesn't handle decimals well\n    //need a way to work w decimals to create accurate payment amount\n    //if we call this function, we pay the employee based on interval and salary\n    //use a library for floating points\n    function payEmployee(address _address) public {\n    require(companiesToOwner[employees[_address].companyId] == msg.sender);\n    //these payment intervals and amounts will be very important for our whole application.\n    //technical challenges here - will want to support stablecoins eventuall\n    //will also want to include decentralized price feeds that can convert $ to ETH easily\n    //attempting to use library here - not working. For some reason the functions aren't working\n        uint paymentInterval;\n        //use library to create a payment interval to multiply by\n        paymentInterval = PRBMathUD60x18.div(employees[_address].interval, 365);\n        uint payment;\n        //use library to multiply by fraction\n        payment = PRBMathUD60x18.mul(employees[_address].salary, paymentInterval);\n        address payable payee = employees[_address].employeeAddress;\n        companyBalances[msg.sender] -= payment;\n        payee.transfer(payment);\n        //add the payment amount to total earnings of the employee\n    }\n\n}",
  "sourcePath": "/Users/sam_flamini/devPortfolio/payrollApp/payrollApp/contracts/payroll.sol",
  "compiler": {
    "name": "solc",
    "version": "0.8.5+commit.a4f2e591.Emscripten.clang"
  },
  "schemaVersion": "3.4.1",
  "updatedAt": "2021-06-16T18:18:25.605Z",
  "networkType": "ethereum",
  "devdoc": {
    "kind": "dev",
    "methods": {},
    "version": 1
  },
  "userdoc": {
    "kind": "user",
    "methods": {},
    "version": 1
  }
}