{
  "contractName": "Payroll",
  "abi": [
    {
      "anonymous": false,
      "inputs": [
        {
          "indexed": true,
          "internalType": "address",
          "name": "_address",
          "type": "address"
        },
        {
          "indexed": false,
          "internalType": "uint256",
          "name": "_id",
          "type": "uint256"
        },
        {
          "indexed": true,
          "internalType": "string",
          "name": "_name",
          "type": "string"
        }
      ],
      "name": "companyCreated",
      "type": "event"
    },
    {
      "anonymous": false,
      "inputs": [
        {
          "indexed": true,
          "internalType": "address",
          "name": "_address",
          "type": "address"
        },
        {
          "indexed": false,
          "internalType": "uint256",
          "name": "_id",
          "type": "uint256"
        },
        {
          "indexed": false,
          "internalType": "uint256",
          "name": "_amount",
          "type": "uint256"
        }
      ],
      "name": "companyWithdrawal",
      "type": "event"
    },
    {
      "anonymous": false,
      "inputs": [
        {
          "indexed": true,
          "internalType": "address",
          "name": "_address",
          "type": "address"
        },
        {
          "indexed": true,
          "internalType": "uint256",
          "name": "_companyId",
          "type": "uint256"
        },
        {
          "indexed": true,
          "internalType": "uint256",
          "name": "_salary",
          "type": "uint256"
        },
        {
          "indexed": false,
          "internalType": "uint256",
          "name": "_interval",
          "type": "uint256"
        }
      ],
      "name": "employeeCreated",
      "type": "event"
    },
    {
      "anonymous": false,
      "inputs": [
        {
          "indexed": true,
          "internalType": "address",
          "name": "_address",
          "type": "address"
        },
        {
          "indexed": true,
          "internalType": "uint256",
          "name": "_amount",
          "type": "uint256"
        },
        {
          "indexed": true,
          "internalType": "uint256",
          "name": "_companyId",
          "type": "uint256"
        }
      ],
      "name": "employeePaid",
      "type": "event"
    },
    {
      "anonymous": false,
      "inputs": [
        {
          "indexed": true,
          "internalType": "uint256",
          "name": "_id",
          "type": "uint256"
        },
        {
          "indexed": true,
          "internalType": "address",
          "name": "_address",
          "type": "address"
        },
        {
          "indexed": true,
          "internalType": "uint256",
          "name": "_amount",
          "type": "uint256"
        }
      ],
      "name": "payrollFunded",
      "type": "event"
    },
    {
      "inputs": [
        {
          "internalType": "address",
          "name": "",
          "type": "address"
        }
      ],
      "name": "companies",
      "outputs": [
        {
          "internalType": "string",
          "name": "name",
          "type": "string"
        },
        {
          "internalType": "uint256",
          "name": "_id",
          "type": "uint256"
        }
      ],
      "stateMutability": "view",
      "type": "function",
      "constant": true
    },
    {
      "inputs": [
        {
          "internalType": "uint256",
          "name": "",
          "type": "uint256"
        }
      ],
      "name": "companiesToOwner",
      "outputs": [
        {
          "internalType": "address",
          "name": "",
          "type": "address"
        }
      ],
      "stateMutability": "view",
      "type": "function",
      "constant": true
    },
    {
      "inputs": [
        {
          "internalType": "address",
          "name": "",
          "type": "address"
        }
      ],
      "name": "companyBalances",
      "outputs": [
        {
          "internalType": "uint256",
          "name": "",
          "type": "uint256"
        }
      ],
      "stateMutability": "view",
      "type": "function",
      "constant": true
    },
    {
      "inputs": [
        {
          "internalType": "bytes32",
          "name": "",
          "type": "bytes32"
        }
      ],
      "name": "employees",
      "outputs": [
        {
          "internalType": "address payable",
          "name": "employeeAddress",
          "type": "address"
        },
        {
          "internalType": "uint256",
          "name": "salary",
          "type": "uint256"
        },
        {
          "internalType": "uint256",
          "name": "interval",
          "type": "uint256"
        },
        {
          "internalType": "uint256",
          "name": "companyId",
          "type": "uint256"
        }
      ],
      "stateMutability": "view",
      "type": "function",
      "constant": true
    },
    {
      "inputs": [
        {
          "internalType": "string",
          "name": "_name",
          "type": "string"
        }
      ],
      "name": "createCompany",
      "outputs": [],
      "stateMutability": "nonpayable",
      "type": "function"
    },
    {
      "inputs": [
        {
          "internalType": "address payable",
          "name": "_address",
          "type": "address"
        },
        {
          "internalType": "uint256",
          "name": "_salary",
          "type": "uint256"
        },
        {
          "internalType": "uint256",
          "name": "_interval",
          "type": "uint256"
        },
        {
          "internalType": "uint256",
          "name": "_coId",
          "type": "uint256"
        }
      ],
      "name": "createEmployee",
      "outputs": [],
      "stateMutability": "nonpayable",
      "type": "function"
    },
    {
      "inputs": [
        {
          "internalType": "address",
          "name": "_address",
          "type": "address"
        },
        {
          "internalType": "uint256",
          "name": "_coId",
          "type": "uint256"
        },
        {
          "internalType": "uint256",
          "name": "_salary",
          "type": "uint256"
        }
      ],
      "name": "editEmployeeSalary",
      "outputs": [],
      "stateMutability": "nonpayable",
      "type": "function"
    },
    {
      "inputs": [
        {
          "internalType": "address",
          "name": "_address",
          "type": "address"
        },
        {
          "internalType": "uint256",
          "name": "_coId",
          "type": "uint256"
        },
        {
          "internalType": "uint256",
          "name": "_interval",
          "type": "uint256"
        }
      ],
      "name": "editEmployeeInterval",
      "outputs": [],
      "stateMutability": "nonpayable",
      "type": "function"
    },
    {
      "inputs": [
        {
          "internalType": "address",
          "name": "_address",
          "type": "address"
        },
        {
          "internalType": "uint256",
          "name": "_coId",
          "type": "uint256"
        }
      ],
      "name": "deleteEmployee",
      "outputs": [],
      "stateMutability": "nonpayable",
      "type": "function"
    },
    {
      "inputs": [
        {
          "internalType": "address payable",
          "name": "_address",
          "type": "address"
        },
        {
          "internalType": "uint256",
          "name": "_coId",
          "type": "uint256"
        }
      ],
      "name": "getEmployeeInterval",
      "outputs": [
        {
          "internalType": "uint256",
          "name": "",
          "type": "uint256"
        }
      ],
      "stateMutability": "view",
      "type": "function",
      "constant": true
    },
    {
      "inputs": [
        {
          "internalType": "address",
          "name": "_address",
          "type": "address"
        },
        {
          "internalType": "uint256",
          "name": "_coId",
          "type": "uint256"
        }
      ],
      "name": "getEmployeeSalary",
      "outputs": [
        {
          "internalType": "uint256",
          "name": "",
          "type": "uint256"
        }
      ],
      "stateMutability": "view",
      "type": "function",
      "constant": true
    },
    {
      "inputs": [
        {
          "internalType": "address",
          "name": "_address",
          "type": "address"
        }
      ],
      "name": "getCompany",
      "outputs": [
        {
          "internalType": "string",
          "name": "",
          "type": "string"
        }
      ],
      "stateMutability": "view",
      "type": "function",
      "constant": true
    },
    {
      "inputs": [
        {
          "internalType": "address",
          "name": "_address",
          "type": "address"
        }
      ],
      "name": "getCompanyId",
      "outputs": [
        {
          "internalType": "uint256",
          "name": "",
          "type": "uint256"
        }
      ],
      "stateMutability": "view",
      "type": "function",
      "constant": true
    },
    {
      "inputs": [
        {
          "internalType": "address",
          "name": "_address",
          "type": "address"
        }
      ],
      "name": "getCompanyBalance",
      "outputs": [
        {
          "internalType": "uint256",
          "name": "",
          "type": "uint256"
        }
      ],
      "stateMutability": "view",
      "type": "function",
      "constant": true
    },
    {
      "inputs": [
        {
          "internalType": "address",
          "name": "_address",
          "type": "address"
        }
      ],
      "name": "getEmployeesByCompany",
      "outputs": [
        {
          "internalType": "address[]",
          "name": "",
          "type": "address[]"
        }
      ],
      "stateMutability": "view",
      "type": "function",
      "constant": true
    },
    {
      "inputs": [
        {
          "internalType": "uint256",
          "name": "_id",
          "type": "uint256"
        }
      ],
      "name": "fundPayroll",
      "outputs": [],
      "stateMutability": "payable",
      "type": "function",
      "payable": true
    },
    {
      "inputs": [
        {
          "internalType": "uint256",
          "name": "_amount",
          "type": "uint256"
        },
        {
          "internalType": "uint256",
          "name": "_id",
          "type": "uint256"
        }
      ],
      "name": "withdrawFunds",
      "outputs": [],
      "stateMutability": "nonpayable",
      "type": "function"
    },
    {
      "inputs": [
        {
          "internalType": "address",
          "name": "_address",
          "type": "address"
        },
        {
          "internalType": "uint256",
          "name": "_coId",
          "type": "uint256"
        }
      ],
      "name": "payEmployee",
      "outputs": [],
      "stateMutability": "nonpayable",
      "type": "function"
    }
  ],
  "bytecode": "0x60806040526000805534801561001457600080fd5b506125a9806100246000396000f3fe608060405260043610610126576000357c01000000000000000000000000000000000000000000000000000000009004806362bc56e6116100b2578063cc79c13911610081578063cc79c139146103eb578063d42c43cd14610414578063d6f343c51461043d578063e52531051461047a578063fd7f611e146104a357610126565b806362bc56e6146102f45780639ec7487814610331578063af1ab2971461036e578063b4e8699c146103ae57610126565b806330df3e63116100f957806330df3e63146101e3578063325f1f4d14610220578063355e6ce81461025d57806340928e821461029b57806350371ee2146102b757610126565b8063074b6c141461012b57806319e6d95a146101685780631b4027b8146101915780632c726f34146101ba575b600080fd5b34801561013757600080fd5b50610152600480360381019061014d9190611bf6565b6104cc565b60405161015f91906120e4565b60405180910390f35b34801561017457600080fd5b5061018f600480360381019061018a9190611d0a565b6104e4565b005b34801561019d57600080fd5b506101b860048036038101906101b39190611cca565b6105b3565b005b3480156101c657600080fd5b506101e160048036038101906101dc9190611c63565b6107e6565b005b3480156101ef57600080fd5b5061020a60048036038101906102059190611c23565b610a30565b60405161021791906120e4565b60405180910390f35b34801561022c57600080fd5b5061024760048036038101906102429190611dd3565b610acd565b6040516102549190612010565b60405180910390f35b34801561026957600080fd5b50610284600480360381019061027f9190611bf6565b610b00565b6040516102929291906120b4565b60405180910390f35b6102b560048036038101906102b09190611dd3565b610bac565b005b3480156102c357600080fd5b506102de60048036038101906102d99190611bf6565b610cb5565b6040516102eb9190612070565b60405180910390f35b34801561030057600080fd5b5061031b60048036038101906103169190611bf6565b610e82565b6040516103289190612092565b60405180910390f35b34801561033d57600080fd5b5061035860048036038101906103539190611bf6565b610f56565b60405161036591906120e4565b60405180910390f35b34801561037a57600080fd5b5061039560048036038101906103909190611d5d565b610f9f565b6040516103a5949392919061202b565b60405180910390f35b3480156103ba57600080fd5b506103d560048036038101906103d09190611cca565b610fef565b6040516103e291906120e4565b60405180910390f35b3480156103f757600080fd5b50610412600480360381019061040d9190611cca565b61108c565b005b34801561042057600080fd5b5061043b60048036038101906104369190611d0a565b61132c565b005b34801561044957600080fd5b50610464600480360381019061045f9190611bf6565b6113fb565b60405161047191906120e4565b60405180910390f35b34801561048657600080fd5b506104a1600480360381019061049c9190611e00565b611447565b005b3480156104af57600080fd5b506104ca60048036038101906104c59190611d8a565b6115e5565b005b60046020528060005260406000206000915090505481565b600083836040516020016104f9929190611fcd565b6040516020818303038152906040528051906020012090503373ffffffffffffffffffffffffffffffffffffffff16600360006001600085815260200190815260200160002060030154815260200190815260200160002060009054906101000a900473ffffffffffffffffffffffffffffffffffffffff1673ffffffffffffffffffffffffffffffffffffffff161461059257600080fd5b81600160008381526020019081526020016000206001018190555050505050565b600082826040516020016105c8929190611fcd565b6040516020818303038152906040528051906020012090503373ffffffffffffffffffffffffffffffffffffffff16600360006001600085815260200190815260200160002060030154815260200190815260200160002060009054906101000a900473ffffffffffffffffffffffffffffffffffffffff1673ffffffffffffffffffffffffffffffffffffffff161461066157600080fd5b6000610685600160008481526020019081526020016000206002015461016d611833565b905060006106a9600160008581526020019081526020016000206001015483611850565b905060006001600085815260200190815260200160002060000160009054906101000a900473ffffffffffffffffffffffffffffffffffffffff16905081600460003373ffffffffffffffffffffffffffffffffffffffff1673ffffffffffffffffffffffffffffffffffffffff16815260200190815260200160002060008282546107359190612234565b925050819055508073ffffffffffffffffffffffffffffffffffffffff166108fc839081150290604051600060405180830381858888f19350505050158015610782573d6000803e3d6000fd5b506001600085815260200190815260200160002060030154828773ffffffffffffffffffffffffffffffffffffffff167fb581fc7f16ffdcffa92cd6fb31b2e1c8f0c5954a0417ddd1f5be520ab63a00c160405160405180910390a4505050505050565b3373ffffffffffffffffffffffffffffffffffffffff166003600083815260200190815260200160002060009054906101000a900473ffffffffffffffffffffffffffffffffffffffff1673ffffffffffffffffffffffffffffffffffffffff161461085157600080fd5b600060405180608001604052808673ffffffffffffffffffffffffffffffffffffffff168152602001858152602001848152602001838152509050600085836040516020016108a1929190611fa1565b604051602081830303815290604052805190602001209050816001600083815260200190815260200160002060008201518160000160006101000a81548173ffffffffffffffffffffffffffffffffffffffff021916908373ffffffffffffffffffffffffffffffffffffffff160217905550602082015181600101556040820151816002015560608201518160030155905050600260003373ffffffffffffffffffffffffffffffffffffffff1673ffffffffffffffffffffffffffffffffffffffff168152602001908152602001600020600201869080600181540180825580915050600190039060005260206000200160009091909190916101000a81548173ffffffffffffffffffffffffffffffffffffffff021916908373ffffffffffffffffffffffffffffffffffffffff16021790555084838773ffffffffffffffffffffffffffffffffffffffff167f0b68397dc8fe556878180e0350a4a658953ac44e1f4c2738def55e7efe72f48687604051610a2091906120e4565b60405180910390a4505050505050565b6000600260003373ffffffffffffffffffffffffffffffffffffffff1673ffffffffffffffffffffffffffffffffffffffff168152602001908152602001600020600101548214610a8057600080fd5b60008383604051602001610a95929190611fa1565b604051602081830303815290604052805190602001209050600160008281526020019081526020016000206002015491505092915050565b60036020528060005260406000206000915054906101000a900473ffffffffffffffffffffffffffffffffffffffff1681565b6002602052806000526040600020600091509050806000018054610b2390612302565b80601f0160208091040260200160405190810160405280929190818152602001828054610b4f90612302565b8015610b9c5780601f10610b7157610100808354040283529160200191610b9c565b820191906000526020600020905b815481529060010190602001808311610b7f57829003601f168201915b5050505050908060010154905082565b3373ffffffffffffffffffffffffffffffffffffffff166003600083815260200190815260200160002060009054906101000a900473ffffffffffffffffffffffffffffffffffffffff1673ffffffffffffffffffffffffffffffffffffffff1614610c1757600080fd5b34600460003373ffffffffffffffffffffffffffffffffffffffff1673ffffffffffffffffffffffffffffffffffffffff1681526020019081526020016000206000828254610c6691906121de565b92505081905550343373ffffffffffffffffffffffffffffffffffffffff16827fbf233c8416f23879765d76dcefa417b1820427af6dc088a33329b7f341ef7c7360405160405180910390a450565b60606000600260003373ffffffffffffffffffffffffffffffffffffffff1673ffffffffffffffffffffffffffffffffffffffff1681526020019081526020016000206002018054905067ffffffffffffffff811115610d1857610d176124aa565b5b604051908082528060200260200182016040528015610d465781602001602082028036833780820191505090505b50905060005b600260008573ffffffffffffffffffffffffffffffffffffffff1673ffffffffffffffffffffffffffffffffffffffff16815260200190815260200160002060020180549050811015610e7857600260008573ffffffffffffffffffffffffffffffffffffffff1673ffffffffffffffffffffffffffffffffffffffff1681526020019081526020016000206002018181548110610ded57610dec61247b565b5b9060005260206000200160009054906101000a900473ffffffffffffffffffffffffffffffffffffffff16828281518110610e2b57610e2a61247b565b5b602002602001019073ffffffffffffffffffffffffffffffffffffffff16908173ffffffffffffffffffffffffffffffffffffffff16815250508080610e7090612365565b915050610d4c565b5080915050919050565b6060600260008373ffffffffffffffffffffffffffffffffffffffff1673ffffffffffffffffffffffffffffffffffffffff1681526020019081526020016000206000018054610ed190612302565b80601f0160208091040260200160405190810160405280929190818152602001828054610efd90612302565b8015610f4a5780601f10610f1f57610100808354040283529160200191610f4a565b820191906000526020600020905b815481529060010190602001808311610f2d57829003601f168201915b50505050509050919050565b6000600460008373ffffffffffffffffffffffffffffffffffffffff1673ffffffffffffffffffffffffffffffffffffffff168152602001908152602001600020549050919050565b60016020528060005260406000206000915090508060000160009054906101000a900473ffffffffffffffffffffffffffffffffffffffff16908060010154908060020154908060030154905084565b6000600260003373ffffffffffffffffffffffffffffffffffffffff1673ffffffffffffffffffffffffffffffffffffffff16815260200190815260200160002060010154821461103f57600080fd5b60008383604051602001611054929190611fcd565b604051602081830303815290604052805190602001209050600160008281526020019081526020016000206001015491505092915050565b600082826040516020016110a1929190611fcd565b6040516020818303038152906040528051906020012090503373ffffffffffffffffffffffffffffffffffffffff16600360006001600085815260200190815260200160002060030154815260200190815260200160002060009054906101000a900473ffffffffffffffffffffffffffffffffffffffff1673ffffffffffffffffffffffffffffffffffffffff161461113a57600080fd5b60005b600260003373ffffffffffffffffffffffffffffffffffffffff1673ffffffffffffffffffffffffffffffffffffffff168152602001908152602001600020600201805490508110156112d1578373ffffffffffffffffffffffffffffffffffffffff16600260003373ffffffffffffffffffffffffffffffffffffffff1673ffffffffffffffffffffffffffffffffffffffff16815260200190815260200160002060020182815481106111f5576111f461247b565b5b9060005260206000200160009054906101000a900473ffffffffffffffffffffffffffffffffffffffff1673ffffffffffffffffffffffffffffffffffffffff1614156112be57600260003373ffffffffffffffffffffffffffffffffffffffff1673ffffffffffffffffffffffffffffffffffffffff16815260200190815260200160002060020181815481106112905761128f61247b565b5b9060005260206000200160006101000a81549073ffffffffffffffffffffffffffffffffffffffff02191690555b80806112c990612365565b91505061113d565b5060016000828152602001908152602001600020600080820160006101000a81549073ffffffffffffffffffffffffffffffffffffffff02191690556001820160009055600282016000905560038201600090555050505050565b60008383604051602001611341929190611fcd565b6040516020818303038152906040528051906020012090503373ffffffffffffffffffffffffffffffffffffffff16600360006001600085815260200190815260200160002060030154815260200190815260200160002060009054906101000a900473ffffffffffffffffffffffffffffffffffffffff1673ffffffffffffffffffffffffffffffffffffffff16146113da57600080fd5b81600160008381526020019081526020016000206002018190555050505050565b6000600260008373ffffffffffffffffffffffffffffffffffffffff1673ffffffffffffffffffffffffffffffffffffffff168152602001908152602001600020600101549050919050565b3373ffffffffffffffffffffffffffffffffffffffff166003600083815260200190815260200160002060009054906101000a900473ffffffffffffffffffffffffffffffffffffffff1673ffffffffffffffffffffffffffffffffffffffff16146114b257600080fd5b81600460003373ffffffffffffffffffffffffffffffffffffffff1673ffffffffffffffffffffffffffffffffffffffff16815260200190815260200160002060008282546115019190612234565b925050819055503373ffffffffffffffffffffffffffffffffffffffff166108fc839081150290604051600060405180830381858888f1935050505015801561154e573d6000803e3d6000fd5b503373ffffffffffffffffffffffffffffffffffffffff167f3e6a35412a4d7ee8b7c52f95f988b2dd531bea1a32729c52d2beb2b12988bdf6600260003373ffffffffffffffffffffffffffffffffffffffff1673ffffffffffffffffffffffffffffffffffffffff16815260200190815260200160002060010154846040516115d99291906120ff565b60405180910390a25050565b6000805490506000808154809291906115fd90612365565b919050555060006040518060600160405280848152602001838152602001600067ffffffffffffffff811115611636576116356124aa565b5b6040519080825280602002602001820160405280156116645781602001602082028036833780820191505090505b50815250905080600260003373ffffffffffffffffffffffffffffffffffffffff1673ffffffffffffffffffffffffffffffffffffffff16815260200190815260200160002060008201518160000190805190602001906116c6929190611a05565b506020820151816001015560408201518160020190805190602001906116ed929190611a8b565b509050503360036000600260003373ffffffffffffffffffffffffffffffffffffffff1673ffffffffffffffffffffffffffffffffffffffff16815260200190815260200160002060010154815260200190815260200160002060006101000a81548173ffffffffffffffffffffffffffffffffffffffff021916908373ffffffffffffffffffffffffffffffffffffffff1602179055506000600460003373ffffffffffffffffffffffffffffffffffffffff1673ffffffffffffffffffffffffffffffffffffffff16815260200190815260200160002081905550826040516117d89190611ff9565b60405180910390203373ffffffffffffffffffffffffffffffffffffffff167f713e5ba51618617b988e0d2f707cd981bd8559bddea1696a67bb1dadb17816118460405161182691906120e4565b60405180910390a3505050565b600061184883670de0b6b3a764000084611864565b905092915050565b600061185c838361193f565b905092915050565b60008060008019858709858702925082811083820303915050600081141561189f576000841161189357600080fd5b83820492505050611938565b8084116118ab57600080fd5b60008486880990508281118203915080830392506000600186190186169050808604955080840493506001818260000304019050808302841793506000600287600302189050808702600203810290508087026002038102905080870260020381029050808702600203810290508087026002038102905080870260020381029050808502955050505050505b9392505050565b60008060008019848609848602925082811083820303915050600080670de0b6b3a764000086880991506706f05b59d3b1ffff8211905060008314156119a55780670de0b6b3a764000085816119985761199761241d565b5b04019450505050506119ff565b82670de0b6b3a7640000116119b957600080fd5b807faccb18165bd6fe31ae1cf318dc5b51eee0e1ba569b88cd74c1773b91fac1066960016204000080600003040186851186030262040000858803041702019450505050505b92915050565b828054611a1190612302565b90600052602060002090601f016020900481019282611a335760008555611a7a565b82601f10611a4c57805160ff1916838001178555611a7a565b82800160010185558215611a7a579182015b82811115611a79578251825591602001919060010190611a5e565b5b509050611a879190611b15565b5090565b828054828255906000526020600020908101928215611b04579160200282015b82811115611b035782518260006101000a81548173ffffffffffffffffffffffffffffffffffffffff021916908373ffffffffffffffffffffffffffffffffffffffff16021790555091602001919060010190611aab565b5b509050611b119190611b15565b5090565b5b80821115611b2e576000816000905550600101611b16565b5090565b6000611b45611b408461214d565b612128565b905082815260208101848484011115611b6157611b606124de565b5b611b6c8482856122c0565b509392505050565b600081359050611b8381612517565b92915050565b600081359050611b988161252e565b92915050565b600081359050611bad81612545565b92915050565b600082601f830112611bc857611bc76124d9565b5b8135611bd8848260208601611b32565b91505092915050565b600081359050611bf08161255c565b92915050565b600060208284031215611c0c57611c0b6124e8565b5b6000611c1a84828501611b74565b91505092915050565b60008060408385031215611c3a57611c396124e8565b5b6000611c4885828601611b89565b9250506020611c5985828601611be1565b9150509250929050565b60008060008060808587031215611c7d57611c7c6124e8565b5b6000611c8b87828801611b89565b9450506020611c9c87828801611be1565b9350506040611cad87828801611be1565b9250506060611cbe87828801611be1565b91505092959194509250565b60008060408385031215611ce157611ce06124e8565b5b6000611cef85828601611b74565b9250506020611d0085828601611be1565b9150509250929050565b600080600060608486031215611d2357611d226124e8565b5b6000611d3186828701611b74565b9350506020611d4286828701611be1565b9250506040611d5386828701611be1565b9150509250925092565b600060208284031215611d7357611d726124e8565b5b6000611d8184828501611b9e565b91505092915050565b600060208284031215611da057611d9f6124e8565b5b600082013567ffffffffffffffff811115611dbe57611dbd6124e3565b5b611dca84828501611bb3565b91505092915050565b600060208284031215611de957611de86124e8565b5b6000611df784828501611be1565b91505092915050565b60008060408385031215611e1757611e166124e8565b5b6000611e2585828601611be1565b9250506020611e3685828601611be1565b9150509250929050565b6000611e4c8383611e7e565b60208301905092915050565b611e618161227a565b82525050565b611e78611e738261227a565b6123c0565b82525050565b611e8781612268565b82525050565b611e9681612268565b82525050565b611ead611ea882612268565b6123ae565b82525050565b6000611ebe8261218e565b611ec881856121b1565b9350611ed38361217e565b8060005b83811015611f04578151611eeb8882611e40565b9750611ef6836121a4565b925050600181019050611ed7565b5085935050505092915050565b6000611f1c82612199565b611f2681856121c2565b9350611f368185602086016122cf565b611f3f816124ed565b840191505092915050565b6000611f5582612199565b611f5f81856121d3565b9350611f6f8185602086016122cf565b80840191505092915050565b611f84816122b6565b82525050565b611f9b611f96826122b6565b6123e4565b82525050565b6000611fad8285611e67565b601482019150611fbd8284611f8a565b6020820191508190509392505050565b6000611fd98285611e9c565b601482019150611fe98284611f8a565b6020820191508190509392505050565b60006120058284611f4a565b915081905092915050565b60006020820190506120256000830184611e8d565b92915050565b60006080820190506120406000830187611e58565b61204d6020830186611f7b565b61205a6040830185611f7b565b6120676060830184611f7b565b95945050505050565b6000602082019050818103600083015261208a8184611eb3565b905092915050565b600060208201905081810360008301526120ac8184611f11565b905092915050565b600060408201905081810360008301526120ce8185611f11565b90506120dd6020830184611f7b565b9392505050565b60006020820190506120f96000830184611f7b565b92915050565b60006040820190506121146000830185611f7b565b6121216020830184611f7b565b9392505050565b6000612132612143565b905061213e8282612334565b919050565b6000604051905090565b600067ffffffffffffffff821115612168576121676124aa565b5b612171826124ed565b9050602081019050919050565b6000819050602082019050919050565b600081519050919050565b600081519050919050565b6000602082019050919050565b600082825260208201905092915050565b600082825260208201905092915050565b600081905092915050565b60006121e9826122b6565b91506121f4836122b6565b9250827fffffffffffffffffffffffffffffffffffffffffffffffffffffffffffffffff03821115612229576122286123ee565b5b828201905092915050565b600061223f826122b6565b915061224a836122b6565b92508282101561225d5761225c6123ee565b5b828203905092915050565b600061227382612296565b9050919050565b600061228582612296565b9050919050565b6000819050919050565b600073ffffffffffffffffffffffffffffffffffffffff82169050919050565b6000819050919050565b82818337600083830152505050565b60005b838110156122ed5780820151818401526020810190506122d2565b838111156122fc576000848401525b50505050565b6000600282049050600182168061231a57607f821691505b6020821081141561232e5761232d61244c565b5b50919050565b61233d826124ed565b810181811067ffffffffffffffff8211171561235c5761235b6124aa565b5b80604052505050565b6000612370826122b6565b91507fffffffffffffffffffffffffffffffffffffffffffffffffffffffffffffffff8214156123a3576123a26123ee565b5b600182019050919050565b60006123b9826123d2565b9050919050565b60006123cb826123d2565b9050919050565b60006123dd826124fe565b9050919050565b6000819050919050565b7f4e487b7100000000000000000000000000000000000000000000000000000000600052601160045260246000fd5b7f4e487b7100000000000000000000000000000000000000000000000000000000600052601260045260246000fd5b7f4e487b7100000000000000000000000000000000000000000000000000000000600052602260045260246000fd5b7f4e487b7100000000000000000000000000000000000000000000000000000000600052603260045260246000fd5b7f4e487b7100000000000000000000000000000000000000000000000000000000600052604160045260246000fd5b600080fd5b600080fd5b600080fd5b600080fd5b6000601f19601f8301169050919050565b60006c0100000000000000000000000082029050919050565b61252081612268565b811461252b57600080fd5b50565b6125378161227a565b811461254257600080fd5b50565b61254e8161228c565b811461255957600080fd5b50565b612565816122b6565b811461257057600080fd5b5056fea264697066735822122001d0b6327868243a281dc4c8ad2f88054b295a7c240761ae1a419c3ce764932264736f6c63430008060033",
  "immutableReferences": {},
  "source": "// SPDX-License-Identifier: GPL-3.0\n\npragma solidity ^0.8.0;\n\n// this contract lets us create employees that we can then pay based on initial parameters we provide the contract\n//we will use web3 js to call functions within this contract\n//to begin, we'll make the time interval a centralized input \n//(after all, this would be trusted, the benefit is tx on chain and crypto payment rails as the back end if ETH scales)\n\n//let's do the following:\n//refactor code so that we are not storing balances or earnings on chain\n//create a getEmployee function that allows us to query the employee list\n//can remove the 'balance' variable\n//make sure that payEmployee is executing properly, and uses an address vs an id for payment\n\n//massive security holes:\n//anyone can create an employee\n// if anyone can create an employee, anyone can drain this contract\n//if anyone can call pay employee, anyone can drain this contract\n\n//UPDATE 5/12/21 - need the best way to call employee information & update employee information from this contract\nimport \"/prb-math/contracts/PRBMathUD60x18.sol\";\n\ncontract Payroll {\n    \n    using PRBMathUD60x18 for uint;\n    //setup section: defining data & storage types\n\n    //struct that will allow us to create employees\n    struct Employee {\n        //don't think flag is needed, should be able to find another way to require that an employee exists\n        //it also doesn't cost anything for an employee to be added 2x, no? can't we error handle this somewhere else?\n        // bool flag;\n        address payable employeeAddress;\n        uint salary;\n        uint interval;\n        uint companyId;\n        //earnings not needed, can use events and queries to calculate them\n        // uint earnings;\n    }\n    \n    struct Company {\n        string name;\n        uint _id;\n        address[] roster;\n    }\n\n    uint idGenerator = 0;\n    //The below code will help get us to CRUD functionality on back end.\n\n    //new pattern here as an option\n    // mapping (address => Employee) public employees;\n    // address[] public staff - consider using this code to build array of all employees in case we want to get all at once \n    \n    //attempting to use this pattern instead\n    //uint will be hash of co address and address\n    mapping (bytes32 => Employee) public employees;\n    //map address to co\n    mapping (address => Company) public companies;\n    //map co id to address\n    mapping (uint => address) public companiesToOwner;\n    //map co balances\n    mapping (address => uint) public companyBalances;\n\n    \n\n    //need an only owner 'withdraw' function and event\n    event payrollFunded(uint indexed _id, address indexed _address, uint indexed _amount);\n    event employeePaid(address indexed _address, uint indexed _amount, uint indexed _companyId);\n    // event employeeCreated(uint indexed _companyId, address indexed _address);\n    event employeeCreated(address indexed _address, uint indexed _companyId, uint indexed _salary, uint _interval);\n    event companyCreated(address indexed _address, uint _id, string indexed _name);\n    event companyWithdrawal(address indexed _address, uint _id, uint _amount);\n\n    //Create, edit, delete employee functions\n\n    // function that will allow us to create a new company using the company struct\n    //should we return the ID? probably\n    function createCompany(string memory _name) public {\n        uint coId = idGenerator;\n        idGenerator++;\n        Company memory company = Company(_name, coId, new address[](0));\n        companies[msg.sender] = company;\n        companiesToOwner[companies[msg.sender]._id] = msg.sender;\n        companyBalances[msg.sender] = 0;\n        emit companyCreated(msg.sender, coId, _name);\n    }\n\n   \n    \n    // function that will allow us to create a new employee using the employee struct\n    function createEmployee(address payable _address, uint _salary, uint _interval, uint _coId) public {\n        require (companiesToOwner[_coId] == msg.sender);\n        Employee memory newEmployee = Employee(_address, _salary, _interval, _coId);\n        bytes32 hashedEmployee = keccak256(abi.encodePacked(_address, _coId));\n        employees[hashedEmployee] = newEmployee;\n        companies[msg.sender].roster.push(_address);\n        emit employeeCreated(_address, _coId, _salary, _interval);\n        // emit employeeInfo(_address, _salary, _interval);\n    }\n    \n    //needs to be edited to account for recent changes w hashed employee and co Id requirements\n    function editEmployeeSalary(address _address, uint _coId, uint _salary) public {\n        bytes32 hashedEmployee = keccak256(abi.encodePacked(_address, _coId));\n        require(companiesToOwner[employees[hashedEmployee].companyId] == msg.sender);\n        employees[hashedEmployee].salary = _salary;\n        // require (_salary > 0);\n        // require (employees[_address].flag = true);\n    }\n    \n    //needs same edits as employee sal edit\n    function editEmployeeInterval(address _address, uint _coId, uint _interval) public {\n        bytes32 hashedEmployee = keccak256(abi.encodePacked(_address, _coId));\n        require(companiesToOwner[employees[hashedEmployee].companyId] == msg.sender);\n        employees[hashedEmployee].interval = _interval;\n    }\n\n    // function editEmployeeInterval(address _address, uint _interval) public {\n    //     require (_interval > 0);\n    //     require (employees[_address].flag = true);\n    //     employees[_address].interval = _interval;\n    // }\n    //check\n    function deleteEmployee(address _address, uint _coId) public {\n        bytes32 hashedEmployee = keccak256(abi.encodePacked(_address, _coId));\n        require(companiesToOwner[employees[hashedEmployee].companyId] == msg.sender);\n        for (uint i; i < companies[msg.sender].roster.length; i++) {\n            if (companies[msg.sender].roster[i] == _address) {\n                delete companies[msg.sender].roster[i];\n            }\n        }\n        delete employees[hashedEmployee];\n    }\n    \n    \n    //getting data section\n\n    function getEmployeeInterval(address payable _address, uint _coId) public view returns (uint) {\n        // require (employees[_address].flag = true);\n        require(_coId == companies[msg.sender]._id);\n        // require (employees[_address].companyId == companies[msg.sender]._id);\n        bytes32 hashedEmployee = keccak256(abi.encodePacked(_address, _coId));\n        return employees[hashedEmployee].interval;\n    }\n     \n    function getEmployeeSalary(address _address, uint _coId) public view returns (uint) {\n        // require (employees[_address].flag = true);\n        require(_coId == companies[msg.sender]._id);\n        // require (employees[_address].companyId == companies[msg.sender]._id);\n        bytes32 hashedEmployee = keccak256(abi.encodePacked(_address, _coId));\n        return employees[hashedEmployee].salary;\n    }\n\n     function getCompany(address _address) public view returns (string memory) {\n        return companies[_address].name;\n    }\n\n    function getCompanyId(address _address) public view returns (uint) {\n        return companies[_address]._id;\n    }\n\n    function getCompanyBalance(address _address) public view returns (uint) {\n        return companyBalances[_address];\n    }\n\n    // function getEmployeesByCompany(uint _coId) public view returns (address[] memory) {\n    //     address[] memory result = new address[](employeeList.length);\n    //     for (uint i; i < employeeList.length; i++) {\n    //         if (employeeList[i].companyId == _coId) {\n    //             result.push(employeeList[i].employeeAddress);\n    //         }\n    //     }\n\n    //     return result;\n    // }\n    \n    //holy shit, I think that this worked. Try it again in app, then use getemployeeSal and getEmployeeInterval to return up to date salaries and intervals, and render them on front end.\n    function getEmployeesByCompany(address _address) public view returns (address[] memory) {\n        address[] memory employeeRoster = new address[](companies[msg.sender].roster.length);\n        for (uint i; i < companies[_address].roster.length; i++) {\n            employeeRoster[i] = companies[_address].roster[i];\n        }\n        return employeeRoster;\n    }\n    \n    // function getEmployeeBalance(address _address) public view returns (uint) {\n    //     // require (employees[_address].flag = true);\n    //     return employees[_address].earnings;\n    // }\n    \n    //do we really need this getter function?\n    //can't we just store employee addresses on front end and read them from the contract at will?\n    //can't we store our own front end copy of the smart contract data to use for looping & displaying this data?\n    // function getEmployees() public view returns (address[] memory, uint[] memory, uint[] memory) {\n    //     //this function allows us to get all employees by calling it - in the form of an array\n    //     address[] memory employeeAddresses = new address[](employees.length);\n    //     uint[] memory employeeSalaries = new uint[](employees.length);\n    //     uint[] memory employeeIntervals = new uint[](employees.length);\n    //     for (uint i = 0; i < employees.length; i++) {\n    //         employeeAddresses[i] = employees[i].employeeAddress;\n    //         employeeSalaries[i] = employees[i].salary;\n    //         employeeIntervals[i] = employees[i].interval;\n    //     }\n    //     return (employeeAddresses, employeeSalaries, employeeIntervals);\n    // }\n    \n\n\n    //key action section\n\n    // function that allows us to fund the contract\n    function fundPayroll(uint _id) public payable {\n        require(companiesToOwner[_id] == msg.sender);\n        companyBalances[msg.sender] += msg.value;\n        emit payrollFunded(_id, msg.sender, msg.value);\n    }\n\n    function withdrawFunds(uint _amount, uint _id) public {\n        require(companiesToOwner[_id] == msg.sender);\n        companyBalances[msg.sender] -= _amount;\n        payable(msg.sender).transfer(_amount);\n        emit companyWithdrawal(msg.sender, companies[msg.sender]._id, _amount);\n    }\n    \n    \n    //we are there, with the exception of handling the payment amount...solidity doesn't handle decimals well\n    //need a way to work w decimals to create accurate payment amount\n    //if we call this function, we pay the employee based on interval and salary\n    //use a library for floating points\n    function payEmployee(address _address, uint _coId) public {\n    bytes32 hashedEmployee = keccak256(abi.encodePacked(_address, _coId));\n    require(companiesToOwner[employees[hashedEmployee].companyId] == msg.sender);\n    //these payment intervals and amounts will be very important for our whole application.\n    //technical challenges here - will want to support stablecoins eventuall\n    //will also want to include decentralized price feeds that can convert $ to ETH easily\n    //attempting to use library here - not working. For some reason the functions aren't working\n        uint paymentInterval;\n        //use library to create a payment interval to multiply by\n        paymentInterval = PRBMathUD60x18.div(employees[hashedEmployee].interval, 365);\n        uint payment;\n        //use library to multiply by fraction\n        payment = PRBMathUD60x18.mul(employees[hashedEmployee].salary, paymentInterval);\n        address payable payee = employees[hashedEmployee].employeeAddress;\n        companyBalances[msg.sender] -= payment;\n        payee.transfer(payment);\n        //add the payment amount to total earnings of the employee\n        emit employeePaid(_address, payment, employees[hashedEmployee].companyId);\n    }\n\n}\n\n\n",
  "sourcePath": "/Users/sam_flamini/devPortfolio/payrollApp/payrollApp/contracts/payroll.sol",
  "compiler": {
    "name": "solc",
    "version": "0.8.6+commit.11564f7e.Emscripten.clang"
  },
  "schemaVersion": "3.4.1",
  "updatedAt": "2021-06-30T17:14:01.939Z",
  "networkType": "ethereum",
  "devdoc": {
    "kind": "dev",
    "methods": {},
    "version": 1
  },
  "userdoc": {
    "kind": "user",
    "methods": {},
    "version": 1
  }
}