{
  "contractName": "Payroll",
  "abi": [
    {
      "anonymous": false,
      "inputs": [
        {
          "indexed": true,
          "internalType": "address",
          "name": "_address",
          "type": "address"
        },
        {
          "indexed": false,
          "internalType": "uint256",
          "name": "_id",
          "type": "uint256"
        },
        {
          "indexed": true,
          "internalType": "string",
          "name": "_name",
          "type": "string"
        }
      ],
      "name": "companyCreated",
      "type": "event"
    },
    {
      "anonymous": false,
      "inputs": [
        {
          "indexed": true,
          "internalType": "address",
          "name": "_address",
          "type": "address"
        },
        {
          "indexed": true,
          "internalType": "uint256",
          "name": "_companyId",
          "type": "uint256"
        },
        {
          "indexed": true,
          "internalType": "uint256",
          "name": "_salary",
          "type": "uint256"
        },
        {
          "indexed": false,
          "internalType": "uint256",
          "name": "_interval",
          "type": "uint256"
        }
      ],
      "name": "employeeCreated",
      "type": "event"
    },
    {
      "anonymous": false,
      "inputs": [
        {
          "indexed": true,
          "internalType": "address",
          "name": "_address",
          "type": "address"
        },
        {
          "indexed": true,
          "internalType": "uint256",
          "name": "_amount",
          "type": "uint256"
        },
        {
          "indexed": true,
          "internalType": "uint256",
          "name": "_companyId",
          "type": "uint256"
        }
      ],
      "name": "employeePaid",
      "type": "event"
    },
    {
      "anonymous": false,
      "inputs": [
        {
          "indexed": true,
          "internalType": "uint256",
          "name": "_id",
          "type": "uint256"
        },
        {
          "indexed": true,
          "internalType": "address",
          "name": "_address",
          "type": "address"
        },
        {
          "indexed": true,
          "internalType": "uint256",
          "name": "_amount",
          "type": "uint256"
        }
      ],
      "name": "payrollFunded",
      "type": "event"
    },
    {
      "inputs": [
        {
          "internalType": "address",
          "name": "",
          "type": "address"
        }
      ],
      "name": "companies",
      "outputs": [
        {
          "internalType": "string",
          "name": "name",
          "type": "string"
        },
        {
          "internalType": "uint256",
          "name": "_id",
          "type": "uint256"
        }
      ],
      "stateMutability": "view",
      "type": "function",
      "constant": true
    },
    {
      "inputs": [
        {
          "internalType": "uint256",
          "name": "",
          "type": "uint256"
        }
      ],
      "name": "companiesToOwner",
      "outputs": [
        {
          "internalType": "address",
          "name": "",
          "type": "address"
        }
      ],
      "stateMutability": "view",
      "type": "function",
      "constant": true
    },
    {
      "inputs": [
        {
          "internalType": "address",
          "name": "",
          "type": "address"
        }
      ],
      "name": "companyBalances",
      "outputs": [
        {
          "internalType": "uint256",
          "name": "",
          "type": "uint256"
        }
      ],
      "stateMutability": "view",
      "type": "function",
      "constant": true
    },
    {
      "inputs": [
        {
          "internalType": "bytes32",
          "name": "",
          "type": "bytes32"
        }
      ],
      "name": "employees",
      "outputs": [
        {
          "internalType": "address payable",
          "name": "employeeAddress",
          "type": "address"
        },
        {
          "internalType": "uint256",
          "name": "salary",
          "type": "uint256"
        },
        {
          "internalType": "uint256",
          "name": "interval",
          "type": "uint256"
        },
        {
          "internalType": "uint256",
          "name": "companyId",
          "type": "uint256"
        }
      ],
      "stateMutability": "view",
      "type": "function",
      "constant": true
    },
    {
      "inputs": [
        {
          "internalType": "string",
          "name": "_name",
          "type": "string"
        }
      ],
      "name": "createCompany",
      "outputs": [],
      "stateMutability": "nonpayable",
      "type": "function"
    },
    {
      "inputs": [
        {
          "internalType": "address payable",
          "name": "_address",
          "type": "address"
        },
        {
          "internalType": "uint256",
          "name": "_salary",
          "type": "uint256"
        },
        {
          "internalType": "uint256",
          "name": "_interval",
          "type": "uint256"
        },
        {
          "internalType": "uint256",
          "name": "_coId",
          "type": "uint256"
        }
      ],
      "name": "createEmployee",
      "outputs": [],
      "stateMutability": "nonpayable",
      "type": "function"
    },
    {
      "inputs": [
        {
          "internalType": "address",
          "name": "_address",
          "type": "address"
        },
        {
          "internalType": "uint256",
          "name": "_coId",
          "type": "uint256"
        },
        {
          "internalType": "uint256",
          "name": "_salary",
          "type": "uint256"
        }
      ],
      "name": "editEmployeeSalary",
      "outputs": [],
      "stateMutability": "nonpayable",
      "type": "function"
    },
    {
      "inputs": [
        {
          "internalType": "address",
          "name": "_address",
          "type": "address"
        },
        {
          "internalType": "uint256",
          "name": "_coId",
          "type": "uint256"
        },
        {
          "internalType": "uint256",
          "name": "_interval",
          "type": "uint256"
        }
      ],
      "name": "editEmployeeInterval",
      "outputs": [],
      "stateMutability": "nonpayable",
      "type": "function"
    },
    {
      "inputs": [
        {
          "internalType": "address",
          "name": "_address",
          "type": "address"
        },
        {
          "internalType": "uint256",
          "name": "_coId",
          "type": "uint256"
        }
      ],
      "name": "deleteEmployee",
      "outputs": [],
      "stateMutability": "nonpayable",
      "type": "function"
    },
    {
      "inputs": [
        {
          "internalType": "address payable",
          "name": "_address",
          "type": "address"
        },
        {
          "internalType": "uint256",
          "name": "_coId",
          "type": "uint256"
        }
      ],
      "name": "getEmployeeInterval",
      "outputs": [
        {
          "internalType": "uint256",
          "name": "",
          "type": "uint256"
        }
      ],
      "stateMutability": "view",
      "type": "function",
      "constant": true
    },
    {
      "inputs": [
        {
          "internalType": "address",
          "name": "_address",
          "type": "address"
        },
        {
          "internalType": "uint256",
          "name": "_coId",
          "type": "uint256"
        }
      ],
      "name": "getEmployeeSalary",
      "outputs": [
        {
          "internalType": "uint256",
          "name": "",
          "type": "uint256"
        }
      ],
      "stateMutability": "view",
      "type": "function",
      "constant": true
    },
    {
      "inputs": [
        {
          "internalType": "address",
          "name": "_address",
          "type": "address"
        }
      ],
      "name": "getCompany",
      "outputs": [
        {
          "internalType": "string",
          "name": "",
          "type": "string"
        }
      ],
      "stateMutability": "view",
      "type": "function",
      "constant": true
    },
    {
      "inputs": [
        {
          "internalType": "address",
          "name": "_address",
          "type": "address"
        }
      ],
      "name": "getCompanyId",
      "outputs": [
        {
          "internalType": "uint256",
          "name": "",
          "type": "uint256"
        }
      ],
      "stateMutability": "view",
      "type": "function",
      "constant": true
    },
    {
      "inputs": [
        {
          "internalType": "address",
          "name": "_address",
          "type": "address"
        }
      ],
      "name": "getCompanyBalance",
      "outputs": [
        {
          "internalType": "uint256",
          "name": "",
          "type": "uint256"
        }
      ],
      "stateMutability": "view",
      "type": "function",
      "constant": true
    },
    {
      "inputs": [
        {
          "internalType": "address",
          "name": "_address",
          "type": "address"
        }
      ],
      "name": "getEmployeesByCompany",
      "outputs": [
        {
          "internalType": "address[]",
          "name": "",
          "type": "address[]"
        }
      ],
      "stateMutability": "view",
      "type": "function",
      "constant": true
    },
    {
      "inputs": [
        {
          "internalType": "uint256",
          "name": "_id",
          "type": "uint256"
        }
      ],
      "name": "fundPayroll",
      "outputs": [],
      "stateMutability": "payable",
      "type": "function",
      "payable": true
    },
    {
      "inputs": [
        {
          "internalType": "address",
          "name": "_address",
          "type": "address"
        },
        {
          "internalType": "uint256",
          "name": "_coId",
          "type": "uint256"
        }
      ],
      "name": "payEmployee",
      "outputs": [],
      "stateMutability": "nonpayable",
      "type": "function"
    }
  ],
  "bytecode": "0x60806040526000805534801561001457600080fd5b5061236e806100246000396000f3fe60806040526004361061011b576000357c01000000000000000000000000000000000000000000000000000000009004806350371ee2116100b2578063b4e8699c11610081578063b4e8699c146103a3578063cc79c139146103e0578063d42c43cd14610409578063d6f343c514610432578063fd7f611e1461046f5761011b565b806350371ee2146102ac57806362bc56e6146102e95780639ec7487814610326578063af1ab297146103635761011b565b806330df3e63116100ee57806330df3e63146101d8578063325f1f4d14610215578063355e6ce81461025257806340928e82146102905761011b565b8063074b6c141461012057806319e6d95a1461015d5780631b4027b8146101865780632c726f34146101af575b600080fd5b34801561012c57600080fd5b5061014760048036038101906101429190611a24565b610498565b6040516101549190611ed2565b60405180910390f35b34801561016957600080fd5b50610184600480360381019061017f9190611b38565b6104b0565b005b34801561019257600080fd5b506101ad60048036038101906101a89190611af8565b61057f565b005b3480156101bb57600080fd5b506101d660048036038101906101d19190611a91565b6107b2565b005b3480156101e457600080fd5b506101ff60048036038101906101fa9190611a51565b6109fc565b60405161020c9190611ed2565b60405180910390f35b34801561022157600080fd5b5061023c60048036038101906102379190611c01565b610a99565b6040516102499190611dfe565b60405180910390f35b34801561025e57600080fd5b5061027960048036038101906102749190611a24565b610acc565b604051610287929190611ea2565b60405180910390f35b6102aa60048036038101906102a59190611c01565b610b78565b005b3480156102b857600080fd5b506102d360048036038101906102ce9190611a24565b610c81565b6040516102e09190611e5e565b60405180910390f35b3480156102f557600080fd5b50610310600480360381019061030b9190611a24565b610e4e565b60405161031d9190611e80565b60405180910390f35b34801561033257600080fd5b5061034d60048036038101906103489190611a24565b610f22565b60405161035a9190611ed2565b60405180910390f35b34801561036f57600080fd5b5061038a60048036038101906103859190611b8b565b610f6b565b60405161039a9493929190611e19565b60405180910390f35b3480156103af57600080fd5b506103ca60048036038101906103c59190611af8565b610fbb565b6040516103d79190611ed2565b60405180910390f35b3480156103ec57600080fd5b5061040760048036038101906104029190611af8565b611058565b005b34801561041557600080fd5b50610430600480360381019061042b9190611b38565b6112f8565b005b34801561043e57600080fd5b5061045960048036038101906104549190611a24565b6113c7565b6040516104669190611ed2565b60405180910390f35b34801561047b57600080fd5b5061049660048036038101906104919190611bb8565b611413565b005b60046020528060005260406000206000915090505481565b600083836040516020016104c5929190611dbb565b6040516020818303038152906040528051906020012090503373ffffffffffffffffffffffffffffffffffffffff16600360006001600085815260200190815260200160002060030154815260200190815260200160002060009054906101000a900473ffffffffffffffffffffffffffffffffffffffff1673ffffffffffffffffffffffffffffffffffffffff161461055e57600080fd5b81600160008381526020019081526020016000206001018190555050505050565b60008282604051602001610594929190611dbb565b6040516020818303038152906040528051906020012090503373ffffffffffffffffffffffffffffffffffffffff16600360006001600085815260200190815260200160002060030154815260200190815260200160002060009054906101000a900473ffffffffffffffffffffffffffffffffffffffff1673ffffffffffffffffffffffffffffffffffffffff161461062d57600080fd5b6000610651600160008481526020019081526020016000206002015461016d611661565b9050600061067560016000858152602001908152602001600020600101548361167e565b905060006001600085815260200190815260200160002060000160009054906101000a900473ffffffffffffffffffffffffffffffffffffffff16905081600460003373ffffffffffffffffffffffffffffffffffffffff1673ffffffffffffffffffffffffffffffffffffffff16815260200190815260200160002060008282546107019190611ff9565b925050819055508073ffffffffffffffffffffffffffffffffffffffff166108fc839081150290604051600060405180830381858888f1935050505015801561074e573d6000803e3d6000fd5b506001600085815260200190815260200160002060030154828773ffffffffffffffffffffffffffffffffffffffff167fb581fc7f16ffdcffa92cd6fb31b2e1c8f0c5954a0417ddd1f5be520ab63a00c160405160405180910390a4505050505050565b3373ffffffffffffffffffffffffffffffffffffffff166003600083815260200190815260200160002060009054906101000a900473ffffffffffffffffffffffffffffffffffffffff1673ffffffffffffffffffffffffffffffffffffffff161461081d57600080fd5b600060405180608001604052808673ffffffffffffffffffffffffffffffffffffffff1681526020018581526020018481526020018381525090506000858360405160200161086d929190611d8f565b604051602081830303815290604052805190602001209050816001600083815260200190815260200160002060008201518160000160006101000a81548173ffffffffffffffffffffffffffffffffffffffff021916908373ffffffffffffffffffffffffffffffffffffffff160217905550602082015181600101556040820151816002015560608201518160030155905050600260003373ffffffffffffffffffffffffffffffffffffffff1673ffffffffffffffffffffffffffffffffffffffff168152602001908152602001600020600201869080600181540180825580915050600190039060005260206000200160009091909190916101000a81548173ffffffffffffffffffffffffffffffffffffffff021916908373ffffffffffffffffffffffffffffffffffffffff16021790555084838773ffffffffffffffffffffffffffffffffffffffff167f0b68397dc8fe556878180e0350a4a658953ac44e1f4c2738def55e7efe72f486876040516109ec9190611ed2565b60405180910390a4505050505050565b6000600260003373ffffffffffffffffffffffffffffffffffffffff1673ffffffffffffffffffffffffffffffffffffffff168152602001908152602001600020600101548214610a4c57600080fd5b60008383604051602001610a61929190611d8f565b604051602081830303815290604052805190602001209050600160008281526020019081526020016000206002015491505092915050565b60036020528060005260406000206000915054906101000a900473ffffffffffffffffffffffffffffffffffffffff1681565b6002602052806000526040600020600091509050806000018054610aef906120c7565b80601f0160208091040260200160405190810160405280929190818152602001828054610b1b906120c7565b8015610b685780601f10610b3d57610100808354040283529160200191610b68565b820191906000526020600020905b815481529060010190602001808311610b4b57829003601f168201915b5050505050908060010154905082565b3373ffffffffffffffffffffffffffffffffffffffff166003600083815260200190815260200160002060009054906101000a900473ffffffffffffffffffffffffffffffffffffffff1673ffffffffffffffffffffffffffffffffffffffff1614610be357600080fd5b34600460003373ffffffffffffffffffffffffffffffffffffffff1673ffffffffffffffffffffffffffffffffffffffff1681526020019081526020016000206000828254610c329190611fa3565b92505081905550343373ffffffffffffffffffffffffffffffffffffffff16827fbf233c8416f23879765d76dcefa417b1820427af6dc088a33329b7f341ef7c7360405160405180910390a450565b60606000600260003373ffffffffffffffffffffffffffffffffffffffff1673ffffffffffffffffffffffffffffffffffffffff1681526020019081526020016000206002018054905067ffffffffffffffff811115610ce457610ce361226f565b5b604051908082528060200260200182016040528015610d125781602001602082028036833780820191505090505b50905060005b600260008573ffffffffffffffffffffffffffffffffffffffff1673ffffffffffffffffffffffffffffffffffffffff16815260200190815260200160002060020180549050811015610e4457600260008573ffffffffffffffffffffffffffffffffffffffff1673ffffffffffffffffffffffffffffffffffffffff1681526020019081526020016000206002018181548110610db957610db8612240565b5b9060005260206000200160009054906101000a900473ffffffffffffffffffffffffffffffffffffffff16828281518110610df757610df6612240565b5b602002602001019073ffffffffffffffffffffffffffffffffffffffff16908173ffffffffffffffffffffffffffffffffffffffff16815250508080610e3c9061212a565b915050610d18565b5080915050919050565b6060600260008373ffffffffffffffffffffffffffffffffffffffff1673ffffffffffffffffffffffffffffffffffffffff1681526020019081526020016000206000018054610e9d906120c7565b80601f0160208091040260200160405190810160405280929190818152602001828054610ec9906120c7565b8015610f165780601f10610eeb57610100808354040283529160200191610f16565b820191906000526020600020905b815481529060010190602001808311610ef957829003601f168201915b50505050509050919050565b6000600460008373ffffffffffffffffffffffffffffffffffffffff1673ffffffffffffffffffffffffffffffffffffffff168152602001908152602001600020549050919050565b60016020528060005260406000206000915090508060000160009054906101000a900473ffffffffffffffffffffffffffffffffffffffff16908060010154908060020154908060030154905084565b6000600260003373ffffffffffffffffffffffffffffffffffffffff1673ffffffffffffffffffffffffffffffffffffffff16815260200190815260200160002060010154821461100b57600080fd5b60008383604051602001611020929190611dbb565b604051602081830303815290604052805190602001209050600160008281526020019081526020016000206001015491505092915050565b6000828260405160200161106d929190611dbb565b6040516020818303038152906040528051906020012090503373ffffffffffffffffffffffffffffffffffffffff16600360006001600085815260200190815260200160002060030154815260200190815260200160002060009054906101000a900473ffffffffffffffffffffffffffffffffffffffff1673ffffffffffffffffffffffffffffffffffffffff161461110657600080fd5b60005b600260003373ffffffffffffffffffffffffffffffffffffffff1673ffffffffffffffffffffffffffffffffffffffff1681526020019081526020016000206002018054905081101561129d578373ffffffffffffffffffffffffffffffffffffffff16600260003373ffffffffffffffffffffffffffffffffffffffff1673ffffffffffffffffffffffffffffffffffffffff16815260200190815260200160002060020182815481106111c1576111c0612240565b5b9060005260206000200160009054906101000a900473ffffffffffffffffffffffffffffffffffffffff1673ffffffffffffffffffffffffffffffffffffffff16141561128a57600260003373ffffffffffffffffffffffffffffffffffffffff1673ffffffffffffffffffffffffffffffffffffffff168152602001908152602001600020600201818154811061125c5761125b612240565b5b9060005260206000200160006101000a81549073ffffffffffffffffffffffffffffffffffffffff02191690555b80806112959061212a565b915050611109565b5060016000828152602001908152602001600020600080820160006101000a81549073ffffffffffffffffffffffffffffffffffffffff02191690556001820160009055600282016000905560038201600090555050505050565b6000838360405160200161130d929190611dbb565b6040516020818303038152906040528051906020012090503373ffffffffffffffffffffffffffffffffffffffff16600360006001600085815260200190815260200160002060030154815260200190815260200160002060009054906101000a900473ffffffffffffffffffffffffffffffffffffffff1673ffffffffffffffffffffffffffffffffffffffff16146113a657600080fd5b81600160008381526020019081526020016000206002018190555050505050565b6000600260008373ffffffffffffffffffffffffffffffffffffffff1673ffffffffffffffffffffffffffffffffffffffff168152602001908152602001600020600101549050919050565b60008054905060008081548092919061142b9061212a565b919050555060006040518060600160405280848152602001838152602001600067ffffffffffffffff8111156114645761146361226f565b5b6040519080825280602002602001820160405280156114925781602001602082028036833780820191505090505b50815250905080600260003373ffffffffffffffffffffffffffffffffffffffff1673ffffffffffffffffffffffffffffffffffffffff16815260200190815260200160002060008201518160000190805190602001906114f4929190611833565b5060208201518160010155604082015181600201908051906020019061151b9291906118b9565b509050503360036000600260003373ffffffffffffffffffffffffffffffffffffffff1673ffffffffffffffffffffffffffffffffffffffff16815260200190815260200160002060010154815260200190815260200160002060006101000a81548173ffffffffffffffffffffffffffffffffffffffff021916908373ffffffffffffffffffffffffffffffffffffffff1602179055506000600460003373ffffffffffffffffffffffffffffffffffffffff1673ffffffffffffffffffffffffffffffffffffffff16815260200190815260200160002081905550826040516116069190611de7565b60405180910390203373ffffffffffffffffffffffffffffffffffffffff167f713e5ba51618617b988e0d2f707cd981bd8559bddea1696a67bb1dadb1781611846040516116549190611ed2565b60405180910390a3505050565b600061167683670de0b6b3a764000084611692565b905092915050565b600061168a838361176d565b905092915050565b6000806000801985870985870292508281108382030391505060008114156116cd57600084116116c157600080fd5b83820492505050611766565b8084116116d957600080fd5b60008486880990508281118203915080830392506000600186190186169050808604955080840493506001818260000304019050808302841793506000600287600302189050808702600203810290508087026002038102905080870260020381029050808702600203810290508087026002038102905080870260020381029050808502955050505050505b9392505050565b60008060008019848609848602925082811083820303915050600080670de0b6b3a764000086880991506706f05b59d3b1ffff8211905060008314156117d35780670de0b6b3a764000085816117c6576117c56121e2565b5b040194505050505061182d565b82670de0b6b3a7640000116117e757600080fd5b807faccb18165bd6fe31ae1cf318dc5b51eee0e1ba569b88cd74c1773b91fac1066960016204000080600003040186851186030262040000858803041702019450505050505b92915050565b82805461183f906120c7565b90600052602060002090601f01602090048101928261186157600085556118a8565b82601f1061187a57805160ff19168380011785556118a8565b828001600101855582156118a8579182015b828111156118a757825182559160200191906001019061188c565b5b5090506118b59190611943565b5090565b828054828255906000526020600020908101928215611932579160200282015b828111156119315782518260006101000a81548173ffffffffffffffffffffffffffffffffffffffff021916908373ffffffffffffffffffffffffffffffffffffffff160217905550916020019190600101906118d9565b5b50905061193f9190611943565b5090565b5b8082111561195c576000816000905550600101611944565b5090565b600061197361196e84611f12565b611eed565b90508281526020810184848401111561198f5761198e6122a3565b5b61199a848285612085565b509392505050565b6000813590506119b1816122dc565b92915050565b6000813590506119c6816122f3565b92915050565b6000813590506119db8161230a565b92915050565b600082601f8301126119f6576119f561229e565b5b8135611a06848260208601611960565b91505092915050565b600081359050611a1e81612321565b92915050565b600060208284031215611a3a57611a396122ad565b5b6000611a48848285016119a2565b91505092915050565b60008060408385031215611a6857611a676122ad565b5b6000611a76858286016119b7565b9250506020611a8785828601611a0f565b9150509250929050565b60008060008060808587031215611aab57611aaa6122ad565b5b6000611ab9878288016119b7565b9450506020611aca87828801611a0f565b9350506040611adb87828801611a0f565b9250506060611aec87828801611a0f565b91505092959194509250565b60008060408385031215611b0f57611b0e6122ad565b5b6000611b1d858286016119a2565b9250506020611b2e85828601611a0f565b9150509250929050565b600080600060608486031215611b5157611b506122ad565b5b6000611b5f868287016119a2565b9350506020611b7086828701611a0f565b9250506040611b8186828701611a0f565b9150509250925092565b600060208284031215611ba157611ba06122ad565b5b6000611baf848285016119cc565b91505092915050565b600060208284031215611bce57611bcd6122ad565b5b600082013567ffffffffffffffff811115611bec57611beb6122a8565b5b611bf8848285016119e1565b91505092915050565b600060208284031215611c1757611c166122ad565b5b6000611c2584828501611a0f565b91505092915050565b6000611c3a8383611c6c565b60208301905092915050565b611c4f8161203f565b82525050565b611c66611c618261203f565b612185565b82525050565b611c758161202d565b82525050565b611c848161202d565b82525050565b611c9b611c968261202d565b612173565b82525050565b6000611cac82611f53565b611cb68185611f76565b9350611cc183611f43565b8060005b83811015611cf2578151611cd98882611c2e565b9750611ce483611f69565b925050600181019050611cc5565b5085935050505092915050565b6000611d0a82611f5e565b611d148185611f87565b9350611d24818560208601612094565b611d2d816122b2565b840191505092915050565b6000611d4382611f5e565b611d4d8185611f98565b9350611d5d818560208601612094565b80840191505092915050565b611d728161207b565b82525050565b611d89611d848261207b565b6121a9565b82525050565b6000611d9b8285611c55565b601482019150611dab8284611d78565b6020820191508190509392505050565b6000611dc78285611c8a565b601482019150611dd78284611d78565b6020820191508190509392505050565b6000611df38284611d38565b915081905092915050565b6000602082019050611e136000830184611c7b565b92915050565b6000608082019050611e2e6000830187611c46565b611e3b6020830186611d69565b611e486040830185611d69565b611e556060830184611d69565b95945050505050565b60006020820190508181036000830152611e788184611ca1565b905092915050565b60006020820190508181036000830152611e9a8184611cff565b905092915050565b60006040820190508181036000830152611ebc8185611cff565b9050611ecb6020830184611d69565b9392505050565b6000602082019050611ee76000830184611d69565b92915050565b6000611ef7611f08565b9050611f0382826120f9565b919050565b6000604051905090565b600067ffffffffffffffff821115611f2d57611f2c61226f565b5b611f36826122b2565b9050602081019050919050565b6000819050602082019050919050565b600081519050919050565b600081519050919050565b6000602082019050919050565b600082825260208201905092915050565b600082825260208201905092915050565b600081905092915050565b6000611fae8261207b565b9150611fb98361207b565b9250827fffffffffffffffffffffffffffffffffffffffffffffffffffffffffffffffff03821115611fee57611fed6121b3565b5b828201905092915050565b60006120048261207b565b915061200f8361207b565b925082821015612022576120216121b3565b5b828203905092915050565b60006120388261205b565b9050919050565b600061204a8261205b565b9050919050565b6000819050919050565b600073ffffffffffffffffffffffffffffffffffffffff82169050919050565b6000819050919050565b82818337600083830152505050565b60005b838110156120b2578082015181840152602081019050612097565b838111156120c1576000848401525b50505050565b600060028204905060018216806120df57607f821691505b602082108114156120f3576120f2612211565b5b50919050565b612102826122b2565b810181811067ffffffffffffffff821117156121215761212061226f565b5b80604052505050565b60006121358261207b565b91507fffffffffffffffffffffffffffffffffffffffffffffffffffffffffffffffff821415612168576121676121b3565b5b600182019050919050565b600061217e82612197565b9050919050565b600061219082612197565b9050919050565b60006121a2826122c3565b9050919050565b6000819050919050565b7f4e487b7100000000000000000000000000000000000000000000000000000000600052601160045260246000fd5b7f4e487b7100000000000000000000000000000000000000000000000000000000600052601260045260246000fd5b7f4e487b7100000000000000000000000000000000000000000000000000000000600052602260045260246000fd5b7f4e487b7100000000000000000000000000000000000000000000000000000000600052603260045260246000fd5b7f4e487b7100000000000000000000000000000000000000000000000000000000600052604160045260246000fd5b600080fd5b600080fd5b600080fd5b600080fd5b6000601f19601f8301169050919050565b60006c0100000000000000000000000082029050919050565b6122e58161202d565b81146122f057600080fd5b50565b6122fc8161203f565b811461230757600080fd5b50565b61231381612051565b811461231e57600080fd5b50565b61232a8161207b565b811461233557600080fd5b5056fea2646970667358221220e7f68ceb2c36bf97f5d2450fa3aedc0cbd3e6eae954e42f2d409f72fdecbe04464736f6c63430008060033",
  "immutableReferences": {},
  "source": "// SPDX-License-Identifier: GPL-3.0\n\npragma solidity ^0.8.0;\n\n// this contract lets us create employees that we can then pay based on initial parameters we provide the contract\n//we will use web3 js to call functions within this contract\n//to begin, we'll make the time interval a centralized input \n//(after all, this would be trusted, the benefit is tx on chain and crypto payment rails as the back end if ETH scales)\n\n//let's do the following:\n//refactor code so that we are not storing balances or earnings on chain\n//create a getEmployee function that allows us to query the employee list\n//can remove the 'balance' variable\n//make sure that payEmployee is executing properly, and uses an address vs an id for payment\n\n//massive security holes:\n//anyone can create an employee\n// if anyone can create an employee, anyone can drain this contract\n//if anyone can call pay employee, anyone can drain this contract\n\n//UPDATE 5/12/21 - need the best way to call employee information & update employee information from this contract\nimport \"/prb-math/contracts/PRBMathUD60x18.sol\";\n\ncontract Payroll {\n    \n    using PRBMathUD60x18 for uint;\n    //setup section: defining data & storage types\n\n    //struct that will allow us to create employees\n    struct Employee {\n        //don't think flag is needed, should be able to find another way to require that an employee exists\n        //it also doesn't cost anything for an employee to be added 2x, no? can't we error handle this somewhere else?\n        // bool flag;\n        address payable employeeAddress;\n        uint salary;\n        uint interval;\n        uint companyId;\n        //earnings not needed, can use events and queries to calculate them\n        // uint earnings;\n    }\n    \n    struct Company {\n        string name;\n        uint _id;\n        address[] roster;\n    }\n\n    uint idGenerator = 0;\n    //The below code will help get us to CRUD functionality on back end.\n\n    //new pattern here as an option\n    // mapping (address => Employee) public employees;\n    // address[] public staff - consider using this code to build array of all employees in case we want to get all at once \n    \n    //attempting to use this pattern instead\n    //uint will be hash of co address and address\n    mapping (bytes32 => Employee) public employees;\n    //map address to co\n    mapping (address => Company) public companies;\n    //map co id to address\n    mapping (uint => address) public companiesToOwner;\n    //map co balances\n    mapping (address => uint) public companyBalances;\n\n    \n\n    //need an only owner 'withdraw' function and event\n    event payrollFunded(uint indexed _id, address indexed _address, uint indexed _amount);\n    event employeePaid(address indexed _address, uint indexed _amount, uint indexed _companyId);\n    // event employeeCreated(uint indexed _companyId, address indexed _address);\n    event employeeCreated(address indexed _address, uint indexed _companyId, uint indexed _salary, uint _interval);\n    event companyCreated(address indexed _address, uint _id, string indexed _name);\n\n    //Create, edit, delete employee functions\n\n    // function that will allow us to create a new company using the company struct\n    //should we return the ID? probably\n    function createCompany(string memory _name) public {\n        uint coId = idGenerator;\n        idGenerator++;\n        Company memory company = Company(_name, coId, new address[](0));\n        companies[msg.sender] = company;\n        companiesToOwner[companies[msg.sender]._id] = msg.sender;\n        companyBalances[msg.sender] = 0;\n        emit companyCreated(msg.sender, coId, _name);\n    }\n\n   \n    \n    // function that will allow us to create a new employee using the employee struct\n    function createEmployee(address payable _address, uint _salary, uint _interval, uint _coId) public {\n        require (companiesToOwner[_coId] == msg.sender);\n        Employee memory newEmployee = Employee(_address, _salary, _interval, _coId);\n        bytes32 hashedEmployee = keccak256(abi.encodePacked(_address, _coId));\n        employees[hashedEmployee] = newEmployee;\n        companies[msg.sender].roster.push(_address);\n        emit employeeCreated(_address, _coId, _salary, _interval);\n        // emit employeeInfo(_address, _salary, _interval);\n    }\n    \n    //needs to be edited to account for recent changes w hashed employee and co Id requirements\n    function editEmployeeSalary(address _address, uint _coId, uint _salary) public {\n        bytes32 hashedEmployee = keccak256(abi.encodePacked(_address, _coId));\n        require(companiesToOwner[employees[hashedEmployee].companyId] == msg.sender);\n        employees[hashedEmployee].salary = _salary;\n        // require (_salary > 0);\n        // require (employees[_address].flag = true);\n    }\n    \n    //needs same edits as employee sal edit\n    function editEmployeeInterval(address _address, uint _coId, uint _interval) public {\n        bytes32 hashedEmployee = keccak256(abi.encodePacked(_address, _coId));\n        require(companiesToOwner[employees[hashedEmployee].companyId] == msg.sender);\n        employees[hashedEmployee].interval = _interval;\n    }\n\n    // function editEmployeeInterval(address _address, uint _interval) public {\n    //     require (_interval > 0);\n    //     require (employees[_address].flag = true);\n    //     employees[_address].interval = _interval;\n    // }\n    //check\n    function deleteEmployee(address _address, uint _coId) public {\n        bytes32 hashedEmployee = keccak256(abi.encodePacked(_address, _coId));\n        require(companiesToOwner[employees[hashedEmployee].companyId] == msg.sender);\n        for (uint i; i < companies[msg.sender].roster.length; i++) {\n            if (companies[msg.sender].roster[i] == _address) {\n                delete companies[msg.sender].roster[i];\n            }\n        }\n        delete employees[hashedEmployee];\n    }\n    \n    \n    //getting data section\n\n    function getEmployeeInterval(address payable _address, uint _coId) public view returns (uint) {\n        // require (employees[_address].flag = true);\n        require(_coId == companies[msg.sender]._id);\n        // require (employees[_address].companyId == companies[msg.sender]._id);\n        bytes32 hashedEmployee = keccak256(abi.encodePacked(_address, _coId));\n        return employees[hashedEmployee].interval;\n    }\n     \n    function getEmployeeSalary(address _address, uint _coId) public view returns (uint) {\n        // require (employees[_address].flag = true);\n        require(_coId == companies[msg.sender]._id);\n        // require (employees[_address].companyId == companies[msg.sender]._id);\n        bytes32 hashedEmployee = keccak256(abi.encodePacked(_address, _coId));\n        return employees[hashedEmployee].salary;\n    }\n\n     function getCompany(address _address) public view returns (string memory) {\n        return companies[_address].name;\n    }\n\n    function getCompanyId(address _address) public view returns (uint) {\n        return companies[_address]._id;\n    }\n\n    function getCompanyBalance(address _address) public view returns (uint) {\n        return companyBalances[_address];\n    }\n\n    // function getEmployeesByCompany(uint _coId) public view returns (address[] memory) {\n    //     address[] memory result = new address[](employeeList.length);\n    //     for (uint i; i < employeeList.length; i++) {\n    //         if (employeeList[i].companyId == _coId) {\n    //             result.push(employeeList[i].employeeAddress);\n    //         }\n    //     }\n\n    //     return result;\n    // }\n    \n    //holy shit, I think that this worked. Try it again in app, then use getemployeeSal and getEmployeeInterval to return up to date salaries and intervals, and render them on front end.\n    function getEmployeesByCompany(address _address) public view returns (address[] memory) {\n        address[] memory employeeRoster = new address[](companies[msg.sender].roster.length);\n        for (uint i; i < companies[_address].roster.length; i++) {\n            employeeRoster[i] = companies[_address].roster[i];\n        }\n        return employeeRoster;\n    }\n    \n    // function getEmployeeBalance(address _address) public view returns (uint) {\n    //     // require (employees[_address].flag = true);\n    //     return employees[_address].earnings;\n    // }\n    \n    //do we really need this getter function?\n    //can't we just store employee addresses on front end and read them from the contract at will?\n    //can't we store our own front end copy of the smart contract data to use for looping & displaying this data?\n    // function getEmployees() public view returns (address[] memory, uint[] memory, uint[] memory) {\n    //     //this function allows us to get all employees by calling it - in the form of an array\n    //     address[] memory employeeAddresses = new address[](employees.length);\n    //     uint[] memory employeeSalaries = new uint[](employees.length);\n    //     uint[] memory employeeIntervals = new uint[](employees.length);\n    //     for (uint i = 0; i < employees.length; i++) {\n    //         employeeAddresses[i] = employees[i].employeeAddress;\n    //         employeeSalaries[i] = employees[i].salary;\n    //         employeeIntervals[i] = employees[i].interval;\n    //     }\n    //     return (employeeAddresses, employeeSalaries, employeeIntervals);\n    // }\n    \n\n\n    //key action section\n\n    // function that allows us to fund the contract\n    function fundPayroll(uint _id) public payable {\n        require(companiesToOwner[_id] == msg.sender);\n        companyBalances[msg.sender] += msg.value;\n        emit payrollFunded(_id, msg.sender, msg.value);\n    }\n    \n    \n    //we are there, with the exception of handling the payment amount...solidity doesn't handle decimals well\n    //need a way to work w decimals to create accurate payment amount\n    //if we call this function, we pay the employee based on interval and salary\n    //use a library for floating points\n    function payEmployee(address _address, uint _coId) public {\n    bytes32 hashedEmployee = keccak256(abi.encodePacked(_address, _coId));\n    require(companiesToOwner[employees[hashedEmployee].companyId] == msg.sender);\n    //these payment intervals and amounts will be very important for our whole application.\n    //technical challenges here - will want to support stablecoins eventuall\n    //will also want to include decentralized price feeds that can convert $ to ETH easily\n    //attempting to use library here - not working. For some reason the functions aren't working\n        uint paymentInterval;\n        //use library to create a payment interval to multiply by\n        paymentInterval = PRBMathUD60x18.div(employees[hashedEmployee].interval, 365);\n        uint payment;\n        //use library to multiply by fraction\n        payment = PRBMathUD60x18.mul(employees[hashedEmployee].salary, paymentInterval);\n        address payable payee = employees[hashedEmployee].employeeAddress;\n        companyBalances[msg.sender] -= payment;\n        payee.transfer(payment);\n        //add the payment amount to total earnings of the employee\n        emit employeePaid(_address, payment, employees[hashedEmployee].companyId);\n    }\n\n}\n\n\n",
  "sourcePath": "/Users/sam_flamini/devPortfolio/payrollApp/payrollApp/contracts/payroll.sol",
  "compiler": {
    "name": "solc",
    "version": "0.8.6+commit.11564f7e.Emscripten.clang"
  },
  "schemaVersion": "3.4.1",
  "updatedAt": "2021-06-28T03:42:17.480Z",
  "networkType": "ethereum",
  "devdoc": {
    "kind": "dev",
    "methods": {},
    "version": 1
  },
  "userdoc": {
    "kind": "user",
    "methods": {},
    "version": 1
  }
}